{
	"11-redpacket1.sol": {
		"redpacket": {
			"abi": [
				{
					"inputs": [
						{
							"internalType": "uint256",
							"name": "_number",
							"type": "uint256"
						}
					],
					"stateMutability": "payable",
					"type": "constructor"
				},
				{
					"inputs": [],
					"name": "getBalance",
					"outputs": [
						{
							"internalType": "uint256",
							"name": "",
							"type": "uint256"
						}
					],
					"stateMutability": "view",
					"type": "function"
				},
				{
					"inputs": [],
					"name": "kill",
					"outputs": [],
					"stateMutability": "nonpayable",
					"type": "function"
				},
				{
					"inputs": [],
					"name": "number",
					"outputs": [
						{
							"internalType": "uint256",
							"name": "",
							"type": "uint256"
						}
					],
					"stateMutability": "view",
					"type": "function"
				},
				{
					"inputs": [],
					"name": "stakeMoney",
					"outputs": [
						{
							"internalType": "bool",
							"name": "",
							"type": "bool"
						}
					],
					"stateMutability": "nonpayable",
					"type": "function"
				},
				{
					"inputs": [],
					"name": "tuhao",
					"outputs": [
						{
							"internalType": "address payable",
							"name": "",
							"type": "address"
						}
					],
					"stateMutability": "view",
					"type": "function"
				}
			],
			"devdoc": {
				"methods": {}
			},
			"evm": {
				"assembly": "    /* \"11-redpacket1.sol\":25:1721  contract redpacket {... */\n  mstore(0x40, 0x80)\n    /* \"11-redpacket1.sol\":221:457  constructor(uint _number) payable public {... */\n  mload(0x40)\n  sub(codesize, bytecodeSize)\n  dup1\n  bytecodeSize\n  dup4\n  codecopy\n  dup2\n  dup2\n  add\n  0x40\n  mstore\n    /* \"--CODEGEN--\":13:15   */\n  0x20\n    /* \"--CODEGEN--\":8:11   */\n  dup2\n    /* \"--CODEGEN--\":5:16   */\n  lt\n    /* \"--CODEGEN--\":2:4   */\n  iszero\n  tag_1\n  jumpi\n    /* \"--CODEGEN--\":29:30   */\n  0x00\n    /* \"--CODEGEN--\":26:27   */\n  dup1\n    /* \"--CODEGEN--\":19:31   */\n  revert\n    /* \"--CODEGEN--\":2:4   */\ntag_1:\n    /* \"11-redpacket1.sol\":221:457  constructor(uint _number) payable public {... */\n  dup2\n  add\n  swap1\n  dup1\n  dup1\n  mload\n  swap1\n  0x20\n  add\n  swap1\n  swap3\n  swap2\n  swap1\n  pop\n  pop\n  pop\n    /* \"11-redpacket1.sol\":290:291  0 */\n  0x00\n    /* \"11-redpacket1.sol\":280:287  _number */\n  dup2\n    /* \"11-redpacket1.sol\":280:291  _number > 0 */\n  gt\n    /* \"11-redpacket1.sol\":272:321  require(_number > 0, \"红包数量必须大于0\") */\n  tag_4\n  jumpi\n  mload(0x40)\n  0x08c379a000000000000000000000000000000000000000000000000000000000\n  dup2\n  mstore\n  0x04\n  add\n  dup1\n  dup1\n  0x20\n  add\n  dup3\n  dup2\n  sub\n  dup3\n  mstore\n  0x19\n  dup2\n  mstore\n  0x20\n  add\n  dup1\n  0xe7baa2e58c85e695b0e9878fe5bf85e9a1bbe5a4a7e4ba8e3000000000000000\n  dup2\n  mstore\n  pop\n  0x20\n  add\n  swap2\n  pop\n  pop\n  mload(0x40)\n  dup1\n  swap2\n  sub\n  swap1\n  revert\ntag_4:\n    /* \"11-redpacket1.sol\":351:352  0 */\n  0x00\n    /* \"11-redpacket1.sol\":339:348  msg.value */\n  callvalue\n    /* \"11-redpacket1.sol\":339:352  msg.value > 0 */\n  gt\n    /* \"11-redpacket1.sol\":331:396  require(msg.value > 0, \"必须转入以太币作为红包金额\") */\n  tag_5\n  jumpi\n  mload(0x40)\n  0x08c379a000000000000000000000000000000000000000000000000000000000\n  dup2\n  mstore\n  0x04\n  add\n  dup1\n  dup1\n  0x20\n  add\n  dup3\n  dup2\n  sub\n  dup3\n  mstore\n  0x27\n  dup2\n  mstore\n  0x20\n  add\n  dup1\n  data_ca2b711dd50258ced4fc76d870403ecdbaf2e6e7c314562883062de12d0c39fe\n  0x27\n  swap2\n  codecopy\n  0x40\n  add\n  swap2\n  pop\n  pop\n  mload(0x40)\n  dup1\n  swap2\n  sub\n  swap1\n  revert\ntag_5:\n    /* \"11-redpacket1.sol\":414:424  msg.sender */\n  caller\n    /* \"11-redpacket1.sol\":406:411  tuhao */\n  0x00\n  dup1\n    /* \"11-redpacket1.sol\":406:424  tuhao = msg.sender */\n  0x0100\n  exp\n  dup2\n  sload\n  dup2\n  0xffffffffffffffffffffffffffffffffffffffff\n  mul\n  not\n  and\n  swap1\n  dup4\n  0xffffffffffffffffffffffffffffffffffffffff\n  and\n  mul\n  or\n  swap1\n  sstore\n  pop\n    /* \"11-redpacket1.sol\":443:450  _number */\n  dup1\n    /* \"11-redpacket1.sol\":434:440  number */\n  0x01\n    /* \"11-redpacket1.sol\":434:450  number = _number */\n  dup2\n  swap1\n  sstore\n  pop\n    /* \"11-redpacket1.sol\":221:457  constructor(uint _number) payable public {... */\n  pop\n    /* \"11-redpacket1.sol\":25:1721  contract redpacket {... */\n  dataSize(sub_0)\n  dup1\n  dataOffset(sub_0)\n  0x00\n  codecopy\n  0x00\n  return\nstop\ndata_ca2b711dd50258ced4fc76d870403ecdbaf2e6e7c314562883062de12d0c39fe e5bf85e9a1bbe8bdace585a5e4bba5e5a4aae5b881e4bd9ce4b8bae7baa2e58c85e98791e9a29d\n\nsub_0: assembly {\n        /* \"11-redpacket1.sol\":25:1721  contract redpacket {... */\n      mstore(0x40, 0x80)\n      callvalue\n        /* \"--CODEGEN--\":8:17   */\n      dup1\n        /* \"--CODEGEN--\":5:7   */\n      iszero\n      tag_1\n      jumpi\n        /* \"--CODEGEN--\":30:31   */\n      0x00\n        /* \"--CODEGEN--\":27:28   */\n      dup1\n        /* \"--CODEGEN--\":20:32   */\n      revert\n        /* \"--CODEGEN--\":5:7   */\n    tag_1:\n        /* \"11-redpacket1.sol\":25:1721  contract redpacket {... */\n      pop\n      jumpi(tag_2, lt(calldatasize, 0x04))\n      shr(0xe0, calldataload(0x00))\n      dup1\n      0x12065fe0\n      eq\n      tag_3\n      jumpi\n      dup1\n      0x41c0e1b5\n      eq\n      tag_4\n      jumpi\n      dup1\n      0x6878dfa4\n      eq\n      tag_5\n      jumpi\n      dup1\n      0x8381f58a\n      eq\n      tag_6\n      jumpi\n      dup1\n      0xdaa7fd17\n      eq\n      tag_7\n      jumpi\n    tag_2:\n      0x00\n      dup1\n      revert\n        /* \"11-redpacket1.sol\":489:583  function getBalance() public view returns (uint) {... */\n    tag_3:\n      tag_8\n      tag_9\n      jump\t// in\n    tag_8:\n      mload(0x40)\n      dup1\n      dup3\n      dup2\n      mstore\n      0x20\n      add\n      swap2\n      pop\n      pop\n      mload(0x40)\n      dup1\n      swap2\n      sub\n      swap1\n      return\n        /* \"11-redpacket1.sol\":1594:1719  function kill() public {... */\n    tag_4:\n      tag_10\n      tag_11\n      jump\t// in\n    tag_10:\n      stop\n        /* \"11-redpacket1.sol\":50:78  address payable public tuhao */\n    tag_5:\n      tag_12\n      tag_13\n      jump\t// in\n    tag_12:\n      mload(0x40)\n      dup1\n      dup3\n      0xffffffffffffffffffffffffffffffffffffffff\n      and\n      0xffffffffffffffffffffffffffffffffffffffff\n      and\n      dup2\n      mstore\n      0x20\n      add\n      swap2\n      pop\n      pop\n      mload(0x40)\n      dup1\n      swap2\n      sub\n      swap1\n      return\n        /* \"11-redpacket1.sol\":100:118  uint public number */\n    tag_6:\n      tag_14\n      tag_15\n      jump\t// in\n    tag_14:\n      mload(0x40)\n      dup1\n      dup3\n      dup2\n      mstore\n      0x20\n      add\n      swap2\n      pop\n      pop\n      mload(0x40)\n      dup1\n      swap2\n      sub\n      swap1\n      return\n        /* \"11-redpacket1.sol\":612:1547  function stakeMoney() public returns (bool) {... */\n    tag_7:\n      tag_16\n      tag_17\n      jump\t// in\n    tag_16:\n      mload(0x40)\n      dup1\n      dup3\n      iszero\n      iszero\n      iszero\n      iszero\n      dup2\n      mstore\n      0x20\n      add\n      swap2\n      pop\n      pop\n      mload(0x40)\n      dup1\n      swap2\n      sub\n      swap1\n      return\n        /* \"11-redpacket1.sol\":489:583  function getBalance() public view returns (uint) {... */\n    tag_9:\n        /* \"11-redpacket1.sol\":532:536  uint */\n      0x00\n        /* \"11-redpacket1.sol\":555:576  address(this).balance */\n      selfbalance\n        /* \"11-redpacket1.sol\":548:576  return address(this).balance */\n      swap1\n      pop\n        /* \"11-redpacket1.sol\":489:583  function getBalance() public view returns (uint) {... */\n      swap1\n      jump\t// out\n        /* \"11-redpacket1.sol\":1594:1719  function kill() public {... */\n    tag_11:\n        /* \"11-redpacket1.sol\":1649:1654  tuhao */\n      0x00\n      dup1\n      swap1\n      sload\n      swap1\n      0x0100\n      exp\n      swap1\n      div\n      0xffffffffffffffffffffffffffffffffffffffff\n      and\n        /* \"11-redpacket1.sol\":1635:1654  msg.sender == tuhao */\n      0xffffffffffffffffffffffffffffffffffffffff\n      and\n        /* \"11-redpacket1.sol\":1635:1645  msg.sender */\n      caller\n        /* \"11-redpacket1.sol\":1635:1654  msg.sender == tuhao */\n      0xffffffffffffffffffffffffffffffffffffffff\n      and\n      eq\n        /* \"11-redpacket1.sol\":1627:1683  require(msg.sender == tuhao, \"仅土豪可销毁合约\") */\n      tag_20\n      jumpi\n      mload(0x40)\n      0x08c379a000000000000000000000000000000000000000000000000000000000\n      dup2\n      mstore\n      0x04\n      add\n      dup1\n      dup1\n      0x20\n      add\n      dup3\n      dup2\n      sub\n      dup3\n      mstore\n      0x18\n      dup2\n      mstore\n      0x20\n      add\n      dup1\n      0xe4bb85e59c9fe8b1aae58fafe99480e6af81e59088e7baa60000000000000000\n      dup2\n      mstore\n      pop\n      0x20\n      add\n      swap2\n      pop\n      pop\n      mload(0x40)\n      dup1\n      swap2\n      sub\n      swap1\n      revert\n    tag_20:\n        /* \"11-redpacket1.sol\":1706:1711  tuhao */\n      0x00\n      dup1\n      swap1\n      sload\n      swap1\n      0x0100\n      exp\n      swap1\n      div\n      0xffffffffffffffffffffffffffffffffffffffff\n      and\n        /* \"11-redpacket1.sol\":1693:1712  selfdestruct(tuhao) */\n      0xffffffffffffffffffffffffffffffffffffffff\n      and\n      selfdestruct\n        /* \"11-redpacket1.sol\":50:78  address payable public tuhao */\n    tag_13:\n      0x00\n      dup1\n      swap1\n      sload\n      swap1\n      0x0100\n      exp\n      swap1\n      div\n      0xffffffffffffffffffffffffffffffffffffffff\n      and\n      dup2\n      jump\t// out\n        /* \"11-redpacket1.sol\":100:118  uint public number */\n    tag_15:\n      sload(0x01)\n      dup2\n      jump\t// out\n        /* \"11-redpacket1.sol\":612:1547  function stakeMoney() public returns (bool) {... */\n    tag_17:\n        /* \"11-redpacket1.sol\":650:654  bool */\n      0x00\n        /* \"11-redpacket1.sol\":683:684  0 */\n      dup1\n        /* \"11-redpacket1.sol\":674:680  number */\n      sload(0x01)\n        /* \"11-redpacket1.sol\":674:684  number > 0 */\n      gt\n        /* \"11-redpacket1.sol\":666:704  require(number > 0, \"红包已抢完\") */\n      tag_22\n      jumpi\n      mload(0x40)\n      0x08c379a000000000000000000000000000000000000000000000000000000000\n      dup2\n      mstore\n      0x04\n      add\n      dup1\n      dup1\n      0x20\n      add\n      dup3\n      dup2\n      sub\n      dup3\n      mstore\n      0x0f\n      dup2\n      mstore\n      0x20\n      add\n      dup1\n      0xe7baa2e58c85e5b7b2e68aa2e5ae8c0000000000000000000000000000000000\n      dup2\n      mstore\n      pop\n      0x20\n      add\n      swap2\n      pop\n      pop\n      mload(0x40)\n      dup1\n      swap2\n      sub\n      swap1\n      revert\n    tag_22:\n        /* \"11-redpacket1.sol\":737:738  0 */\n      0x00\n        /* \"11-redpacket1.sol\":722:734  getBalance() */\n      tag_23\n        /* \"11-redpacket1.sol\":722:732  getBalance */\n      tag_9\n        /* \"11-redpacket1.sol\":722:734  getBalance() */\n      jump\t// in\n    tag_23:\n        /* \"11-redpacket1.sol\":722:738  getBalance() > 0 */\n      gt\n        /* \"11-redpacket1.sol\":714:761  require(getBalance() > 0, \"红包余额已空\") */\n      tag_24\n      jumpi\n      mload(0x40)\n      0x08c379a000000000000000000000000000000000000000000000000000000000\n      dup2\n      mstore\n      0x04\n      add\n      dup1\n      dup1\n      0x20\n      add\n      dup3\n      dup2\n      sub\n      dup3\n      mstore\n      0x12\n      dup2\n      mstore\n      0x20\n      add\n      dup1\n      0xe7baa2e58c85e4bd99e9a29de5b7b2e7a9ba0000000000000000000000000000\n      dup2\n      mstore\n      pop\n      0x20\n      add\n      swap2\n      pop\n      pop\n      mload(0x40)\n      dup1\n      swap2\n      sub\n      swap1\n      revert\n    tag_24:\n        /* \"11-redpacket1.sol\":772:784  uint balance */\n      0x00\n        /* \"11-redpacket1.sol\":787:799  getBalance() */\n      tag_25\n        /* \"11-redpacket1.sol\":787:797  getBalance */\n      tag_9\n        /* \"11-redpacket1.sol\":787:799  getBalance() */\n      jump\t// in\n    tag_25:\n        /* \"11-redpacket1.sol\":772:799  uint balance = getBalance() */\n      swap1\n      pop\n        /* \"11-redpacket1.sol\":809:820  uint amount */\n      0x00\n        /* \"11-redpacket1.sol\":902:903  1 */\n      0x01\n        /* \"11-redpacket1.sol\":892:898  number */\n      dup1\n      sload\n        /* \"11-redpacket1.sol\":892:903  number == 1 */\n      eq\n        /* \"11-redpacket1.sol\":888:1336  if (number == 1) {... */\n      iszero\n      tag_26\n      jumpi\n        /* \"11-redpacket1.sol\":928:935  balance */\n      dup2\n        /* \"11-redpacket1.sol\":919:935  amount = balance */\n      swap1\n      pop\n        /* \"11-redpacket1.sol\":888:1336  if (number == 1) {... */\n      jump(tag_27)\n    tag_26:\n        /* \"11-redpacket1.sol\":1038:1049  uint random */\n      0x00\n        /* \"11-redpacket1.sol\":1130:1132  10 */\n      0x0a\n        /* \"11-redpacket1.sol\":1125:1127  90 */\n      0x5a\n        /* \"11-redpacket1.sol\":1084:1099  block.timestamp */\n      timestamp\n        /* \"11-redpacket1.sol\":1101:1111  msg.sender */\n      caller\n        /* \"11-redpacket1.sol\":1113:1119  number */\n      sload(0x01)\n        /* \"11-redpacket1.sol\":1067:1120  abi.encodePacked(block.timestamp, msg.sender, number) */\n      add(0x20, mload(0x40))\n      dup1\n      dup5\n      dup2\n      mstore\n      0x20\n      add\n      dup4\n      0xffffffffffffffffffffffffffffffffffffffff\n      and\n      0xffffffffffffffffffffffffffffffffffffffff\n      and\n      0x60\n      shl\n      dup2\n      mstore\n      0x14\n      add\n      dup3\n      dup2\n      mstore\n      0x20\n      add\n      swap4\n      pop\n      pop\n      pop\n      pop\n      mload(0x40)\n        /* \"--CODEGEN--\":49:53   */\n      0x20\n        /* \"--CODEGEN--\":39:46   */\n      dup2\n        /* \"--CODEGEN--\":30:37   */\n      dup4\n        /* \"--CODEGEN--\":26:47   */\n      sub\n        /* \"--CODEGEN--\":22:54   */\n      sub\n        /* \"--CODEGEN--\":13:20   */\n      dup2\n        /* \"--CODEGEN--\":6:55   */\n      mstore\n        /* \"11-redpacket1.sol\":1067:1120  abi.encodePacked(block.timestamp, msg.sender, number) */\n      swap1\n      0x40\n      mstore\n        /* \"11-redpacket1.sol\":1057:1121  keccak256(abi.encodePacked(block.timestamp, msg.sender, number)) */\n      dup1\n      mload\n      swap1\n      0x20\n      add\n      keccak256\n        /* \"11-redpacket1.sol\":1052:1122  uint(keccak256(abi.encodePacked(block.timestamp, msg.sender, number))) */\n      0x00\n      shr\n        /* \"11-redpacket1.sol\":1052:1127  uint(keccak256(abi.encodePacked(block.timestamp, msg.sender, number))) % 90 */\n      dup2\n      tag_28\n      jumpi\n      invalid\n    tag_28:\n      mod\n        /* \"11-redpacket1.sol\":1052:1132  uint(keccak256(abi.encodePacked(block.timestamp, msg.sender, number))) % 90 + 10 */\n      add\n        /* \"11-redpacket1.sol\":1038:1132  uint random = uint(keccak256(abi.encodePacked(block.timestamp, msg.sender, number))) % 90 + 10 */\n      swap1\n      pop\n        /* \"11-redpacket1.sol\":1183:1186  100 */\n      0x64\n        /* \"11-redpacket1.sol\":1174:1180  random */\n      dup2\n        /* \"11-redpacket1.sol\":1164:1171  balance */\n      dup5\n        /* \"11-redpacket1.sol\":1164:1180  balance * random */\n      mul\n        /* \"11-redpacket1.sol\":1164:1186  balance * random / 100 */\n      dup2\n      tag_29\n      jumpi\n      invalid\n    tag_29:\n      div\n        /* \"11-redpacket1.sol\":1155:1186  amount = balance * random / 100 */\n      swap2\n      pop\n        /* \"11-redpacket1.sol\":1280:1281  0 */\n      0x00\n        /* \"11-redpacket1.sol\":1270:1276  amount */\n      dup3\n        /* \"11-redpacket1.sol\":1270:1281  amount == 0 */\n      eq\n        /* \"11-redpacket1.sol\":1266:1326  if (amount == 0) {... */\n      iszero\n      tag_30\n      jumpi\n        /* \"11-redpacket1.sol\":1310:1311  1 */\n      0x01\n        /* \"11-redpacket1.sol\":1301:1311  amount = 1 */\n      swap2\n      pop\n        /* \"11-redpacket1.sol\":1266:1326  if (amount == 0) {... */\n    tag_30:\n        /* \"11-redpacket1.sol\":888:1336  if (number == 1) {... */\n      pop\n    tag_27:\n        /* \"11-redpacket1.sol\":1450:1460  msg.sender */\n      caller\n        /* \"11-redpacket1.sol\":1450:1469  msg.sender.transfer */\n      0xffffffffffffffffffffffffffffffffffffffff\n      and\n        /* \"11-redpacket1.sol\":1450:1477  msg.sender.transfer(amount) */\n      0x08fc\n        /* \"11-redpacket1.sol\":1470:1476  amount */\n      dup3\n        /* \"11-redpacket1.sol\":1450:1477  msg.sender.transfer(amount) */\n      swap1\n      dup2\n      iszero\n      mul\n      swap1\n      mload(0x40)\n      0x00\n      mload(0x40)\n      dup1\n      dup4\n      sub\n      dup2\n      dup6\n      dup9\n      dup9\n      call\n      swap4\n      pop\n      pop\n      pop\n      pop\n      iszero\n        /* \"--CODEGEN--\":8:17   */\n      dup1\n        /* \"--CODEGEN--\":5:7   */\n      iszero\n      tag_32\n      jumpi\n        /* \"--CODEGEN--\":45:61   */\n      returndatasize\n        /* \"--CODEGEN--\":42:43   */\n      0x00\n        /* \"--CODEGEN--\":39:40   */\n      dup1\n        /* \"--CODEGEN--\":24:62   */\n      returndatacopy\n        /* \"--CODEGEN--\":77:93   */\n      returndatasize\n        /* \"--CODEGEN--\":74:75   */\n      0x00\n        /* \"--CODEGEN--\":67:94   */\n      revert\n        /* \"--CODEGEN--\":5:7   */\n    tag_32:\n        /* \"11-redpacket1.sol\":1450:1477  msg.sender.transfer(amount) */\n      pop\n        /* \"11-redpacket1.sol\":1487:1493  number */\n      0x01\n      0x00\n        /* \"11-redpacket1.sol\":1487:1495  number-- */\n      dup2\n      sload\n      dup1\n      swap3\n      swap2\n      swap1\n      0x01\n      swap1\n      sub\n      swap2\n      swap1\n      pop\n      sstore\n      pop\n        /* \"11-redpacket1.sol\":1536:1540  true */\n      0x01\n        /* \"11-redpacket1.sol\":1529:1540  return true */\n      swap3\n      pop\n      pop\n      pop\n        /* \"11-redpacket1.sol\":612:1547  function stakeMoney() public returns (bool) {... */\n      swap1\n      jump\t// out\n\n    auxdata: 0xa2646970667358221220e45c513fed823b2a0ae07eded670b34c4252887a5171413ecdd35165d0d1572364736f6c63430006010033\n}\n",
				"bytecode": {
					"linkReferences": {},
					"object": "608060405260405161060b38038061060b8339818101604052602081101561002657600080fd5b8101908080519060200190929190505050600081116100ad576040517f08c379a00000000000000000000000000000000000000000000000000000000081526004018080602001828103825260198152602001807fe7baa2e58c85e695b0e9878fe5bf85e9a1bbe5a4a7e4ba8e300000000000000081525060200191505060405180910390fd5b60003411610106576040517f08c379a00000000000000000000000000000000000000000000000000000000081526004018080602001828103825260278152602001806105e46027913960400191505060405180910390fd5b336000806101000a81548173ffffffffffffffffffffffffffffffffffffffff021916908373ffffffffffffffffffffffffffffffffffffffff16021790555080600181905550506104878061015d6000396000f3fe608060405234801561001057600080fd5b50600436106100575760003560e01c806312065fe01461005c57806341c0e1b51461007a5780636878dfa4146100845780638381f58a146100ce578063daa7fd17146100ec575b600080fd5b61006461010e565b6040518082815260200191505060405180910390f35b610082610116565b005b61008c610212565b604051808273ffffffffffffffffffffffffffffffffffffffff1673ffffffffffffffffffffffffffffffffffffffff16815260200191505060405180910390f35b6100d6610237565b6040518082815260200191505060405180910390f35b6100f461023d565b604051808215151515815260200191505060405180910390f35b600047905090565b6000809054906101000a900473ffffffffffffffffffffffffffffffffffffffff1673ffffffffffffffffffffffffffffffffffffffff163373ffffffffffffffffffffffffffffffffffffffff16146101d8576040517f08c379a00000000000000000000000000000000000000000000000000000000081526004018080602001828103825260188152602001807fe4bb85e59c9fe8b1aae58fafe99480e6af81e59088e7baa6000000000000000081525060200191505060405180910390fd5b6000809054906101000a900473ffffffffffffffffffffffffffffffffffffffff1673ffffffffffffffffffffffffffffffffffffffff16ff5b6000809054906101000a900473ffffffffffffffffffffffffffffffffffffffff1681565b60015481565b600080600154116102b6576040517f08c379a000000000000000000000000000000000000000000000000000000000815260040180806020018281038252600f8152602001807fe7baa2e58c85e5b7b2e68aa2e5ae8c000000000000000000000000000000000081525060200191505060405180910390fd5b60006102c061010e565b11610333576040517f08c379a00000000000000000000000000000000000000000000000000000000081526004018080602001828103825260128152602001807fe7baa2e58c85e4bd99e9a29de5b7b2e7a9ba000000000000000000000000000081525060200191505060405180910390fd5b600061033d61010e565b90506000600180541415610353578190506103ee565b6000600a605a4233600154604051602001808481526020018373ffffffffffffffffffffffffffffffffffffffff1673ffffffffffffffffffffffffffffffffffffffff1660601b815260140182815260200193505050506040516020818303038152906040528051906020012060001c816103cb57fe5b060190506064818402816103db57fe5b04915060008214156103ec57600191505b505b3373ffffffffffffffffffffffffffffffffffffffff166108fc829081150290604051600060405180830381858888f19350505050158015610434573d6000803e3d6000fd5b50600160008154809291906001900391905055506001925050509056fea2646970667358221220e45c513fed823b2a0ae07eded670b34c4252887a5171413ecdd35165d0d1572364736f6c63430006010033e5bf85e9a1bbe8bdace585a5e4bba5e5a4aae5b881e4bd9ce4b8bae7baa2e58c85e98791e9a29d",
					"opcodes": "PUSH1 0x80 PUSH1 0x40 MSTORE PUSH1 0x40 MLOAD PUSH2 0x60B CODESIZE SUB DUP1 PUSH2 0x60B DUP4 CODECOPY DUP2 DUP2 ADD PUSH1 0x40 MSTORE PUSH1 0x20 DUP2 LT ISZERO PUSH2 0x26 JUMPI PUSH1 0x0 DUP1 REVERT JUMPDEST DUP2 ADD SWAP1 DUP1 DUP1 MLOAD SWAP1 PUSH1 0x20 ADD SWAP1 SWAP3 SWAP2 SWAP1 POP POP POP PUSH1 0x0 DUP2 GT PUSH2 0xAD JUMPI PUSH1 0x40 MLOAD PUSH32 0x8C379A000000000000000000000000000000000000000000000000000000000 DUP2 MSTORE PUSH1 0x4 ADD DUP1 DUP1 PUSH1 0x20 ADD DUP3 DUP2 SUB DUP3 MSTORE PUSH1 0x19 DUP2 MSTORE PUSH1 0x20 ADD DUP1 PUSH32 0xE7BAA2E58C85E695B0E9878FE5BF85E9A1BBE5A4A7E4BA8E3000000000000000 DUP2 MSTORE POP PUSH1 0x20 ADD SWAP2 POP POP PUSH1 0x40 MLOAD DUP1 SWAP2 SUB SWAP1 REVERT JUMPDEST PUSH1 0x0 CALLVALUE GT PUSH2 0x106 JUMPI PUSH1 0x40 MLOAD PUSH32 0x8C379A000000000000000000000000000000000000000000000000000000000 DUP2 MSTORE PUSH1 0x4 ADD DUP1 DUP1 PUSH1 0x20 ADD DUP3 DUP2 SUB DUP3 MSTORE PUSH1 0x27 DUP2 MSTORE PUSH1 0x20 ADD DUP1 PUSH2 0x5E4 PUSH1 0x27 SWAP2 CODECOPY PUSH1 0x40 ADD SWAP2 POP POP PUSH1 0x40 MLOAD DUP1 SWAP2 SUB SWAP1 REVERT JUMPDEST CALLER PUSH1 0x0 DUP1 PUSH2 0x100 EXP DUP2 SLOAD DUP2 PUSH20 0xFFFFFFFFFFFFFFFFFFFFFFFFFFFFFFFFFFFFFFFF MUL NOT AND SWAP1 DUP4 PUSH20 0xFFFFFFFFFFFFFFFFFFFFFFFFFFFFFFFFFFFFFFFF AND MUL OR SWAP1 SSTORE POP DUP1 PUSH1 0x1 DUP2 SWAP1 SSTORE POP POP PUSH2 0x487 DUP1 PUSH2 0x15D PUSH1 0x0 CODECOPY PUSH1 0x0 RETURN INVALID PUSH1 0x80 PUSH1 0x40 MSTORE CALLVALUE DUP1 ISZERO PUSH2 0x10 JUMPI PUSH1 0x0 DUP1 REVERT JUMPDEST POP PUSH1 0x4 CALLDATASIZE LT PUSH2 0x57 JUMPI PUSH1 0x0 CALLDATALOAD PUSH1 0xE0 SHR DUP1 PUSH4 0x12065FE0 EQ PUSH2 0x5C JUMPI DUP1 PUSH4 0x41C0E1B5 EQ PUSH2 0x7A JUMPI DUP1 PUSH4 0x6878DFA4 EQ PUSH2 0x84 JUMPI DUP1 PUSH4 0x8381F58A EQ PUSH2 0xCE JUMPI DUP1 PUSH4 0xDAA7FD17 EQ PUSH2 0xEC JUMPI JUMPDEST PUSH1 0x0 DUP1 REVERT JUMPDEST PUSH2 0x64 PUSH2 0x10E JUMP JUMPDEST PUSH1 0x40 MLOAD DUP1 DUP3 DUP2 MSTORE PUSH1 0x20 ADD SWAP2 POP POP PUSH1 0x40 MLOAD DUP1 SWAP2 SUB SWAP1 RETURN JUMPDEST PUSH2 0x82 PUSH2 0x116 JUMP JUMPDEST STOP JUMPDEST PUSH2 0x8C PUSH2 0x212 JUMP JUMPDEST PUSH1 0x40 MLOAD DUP1 DUP3 PUSH20 0xFFFFFFFFFFFFFFFFFFFFFFFFFFFFFFFFFFFFFFFF AND PUSH20 0xFFFFFFFFFFFFFFFFFFFFFFFFFFFFFFFFFFFFFFFF AND DUP2 MSTORE PUSH1 0x20 ADD SWAP2 POP POP PUSH1 0x40 MLOAD DUP1 SWAP2 SUB SWAP1 RETURN JUMPDEST PUSH2 0xD6 PUSH2 0x237 JUMP JUMPDEST PUSH1 0x40 MLOAD DUP1 DUP3 DUP2 MSTORE PUSH1 0x20 ADD SWAP2 POP POP PUSH1 0x40 MLOAD DUP1 SWAP2 SUB SWAP1 RETURN JUMPDEST PUSH2 0xF4 PUSH2 0x23D JUMP JUMPDEST PUSH1 0x40 MLOAD DUP1 DUP3 ISZERO ISZERO ISZERO ISZERO DUP2 MSTORE PUSH1 0x20 ADD SWAP2 POP POP PUSH1 0x40 MLOAD DUP1 SWAP2 SUB SWAP1 RETURN JUMPDEST PUSH1 0x0 SELFBALANCE SWAP1 POP SWAP1 JUMP JUMPDEST PUSH1 0x0 DUP1 SWAP1 SLOAD SWAP1 PUSH2 0x100 EXP SWAP1 DIV PUSH20 0xFFFFFFFFFFFFFFFFFFFFFFFFFFFFFFFFFFFFFFFF AND PUSH20 0xFFFFFFFFFFFFFFFFFFFFFFFFFFFFFFFFFFFFFFFF AND CALLER PUSH20 0xFFFFFFFFFFFFFFFFFFFFFFFFFFFFFFFFFFFFFFFF AND EQ PUSH2 0x1D8 JUMPI PUSH1 0x40 MLOAD PUSH32 0x8C379A000000000000000000000000000000000000000000000000000000000 DUP2 MSTORE PUSH1 0x4 ADD DUP1 DUP1 PUSH1 0x20 ADD DUP3 DUP2 SUB DUP3 MSTORE PUSH1 0x18 DUP2 MSTORE PUSH1 0x20 ADD DUP1 PUSH32 0xE4BB85E59C9FE8B1AAE58FAFE99480E6AF81E59088E7BAA60000000000000000 DUP2 MSTORE POP PUSH1 0x20 ADD SWAP2 POP POP PUSH1 0x40 MLOAD DUP1 SWAP2 SUB SWAP1 REVERT JUMPDEST PUSH1 0x0 DUP1 SWAP1 SLOAD SWAP1 PUSH2 0x100 EXP SWAP1 DIV PUSH20 0xFFFFFFFFFFFFFFFFFFFFFFFFFFFFFFFFFFFFFFFF AND PUSH20 0xFFFFFFFFFFFFFFFFFFFFFFFFFFFFFFFFFFFFFFFF AND SELFDESTRUCT JUMPDEST PUSH1 0x0 DUP1 SWAP1 SLOAD SWAP1 PUSH2 0x100 EXP SWAP1 DIV PUSH20 0xFFFFFFFFFFFFFFFFFFFFFFFFFFFFFFFFFFFFFFFF AND DUP2 JUMP JUMPDEST PUSH1 0x1 SLOAD DUP2 JUMP JUMPDEST PUSH1 0x0 DUP1 PUSH1 0x1 SLOAD GT PUSH2 0x2B6 JUMPI PUSH1 0x40 MLOAD PUSH32 0x8C379A000000000000000000000000000000000000000000000000000000000 DUP2 MSTORE PUSH1 0x4 ADD DUP1 DUP1 PUSH1 0x20 ADD DUP3 DUP2 SUB DUP3 MSTORE PUSH1 0xF DUP2 MSTORE PUSH1 0x20 ADD DUP1 PUSH32 0xE7BAA2E58C85E5B7B2E68AA2E5AE8C0000000000000000000000000000000000 DUP2 MSTORE POP PUSH1 0x20 ADD SWAP2 POP POP PUSH1 0x40 MLOAD DUP1 SWAP2 SUB SWAP1 REVERT JUMPDEST PUSH1 0x0 PUSH2 0x2C0 PUSH2 0x10E JUMP JUMPDEST GT PUSH2 0x333 JUMPI PUSH1 0x40 MLOAD PUSH32 0x8C379A000000000000000000000000000000000000000000000000000000000 DUP2 MSTORE PUSH1 0x4 ADD DUP1 DUP1 PUSH1 0x20 ADD DUP3 DUP2 SUB DUP3 MSTORE PUSH1 0x12 DUP2 MSTORE PUSH1 0x20 ADD DUP1 PUSH32 0xE7BAA2E58C85E4BD99E9A29DE5B7B2E7A9BA0000000000000000000000000000 DUP2 MSTORE POP PUSH1 0x20 ADD SWAP2 POP POP PUSH1 0x40 MLOAD DUP1 SWAP2 SUB SWAP1 REVERT JUMPDEST PUSH1 0x0 PUSH2 0x33D PUSH2 0x10E JUMP JUMPDEST SWAP1 POP PUSH1 0x0 PUSH1 0x1 DUP1 SLOAD EQ ISZERO PUSH2 0x353 JUMPI DUP2 SWAP1 POP PUSH2 0x3EE JUMP JUMPDEST PUSH1 0x0 PUSH1 0xA PUSH1 0x5A TIMESTAMP CALLER PUSH1 0x1 SLOAD PUSH1 0x40 MLOAD PUSH1 0x20 ADD DUP1 DUP5 DUP2 MSTORE PUSH1 0x20 ADD DUP4 PUSH20 0xFFFFFFFFFFFFFFFFFFFFFFFFFFFFFFFFFFFFFFFF AND PUSH20 0xFFFFFFFFFFFFFFFFFFFFFFFFFFFFFFFFFFFFFFFF AND PUSH1 0x60 SHL DUP2 MSTORE PUSH1 0x14 ADD DUP3 DUP2 MSTORE PUSH1 0x20 ADD SWAP4 POP POP POP POP PUSH1 0x40 MLOAD PUSH1 0x20 DUP2 DUP4 SUB SUB DUP2 MSTORE SWAP1 PUSH1 0x40 MSTORE DUP1 MLOAD SWAP1 PUSH1 0x20 ADD KECCAK256 PUSH1 0x0 SHR DUP2 PUSH2 0x3CB JUMPI INVALID JUMPDEST MOD ADD SWAP1 POP PUSH1 0x64 DUP2 DUP5 MUL DUP2 PUSH2 0x3DB JUMPI INVALID JUMPDEST DIV SWAP2 POP PUSH1 0x0 DUP3 EQ ISZERO PUSH2 0x3EC JUMPI PUSH1 0x1 SWAP2 POP JUMPDEST POP JUMPDEST CALLER PUSH20 0xFFFFFFFFFFFFFFFFFFFFFFFFFFFFFFFFFFFFFFFF AND PUSH2 0x8FC DUP3 SWAP1 DUP2 ISZERO MUL SWAP1 PUSH1 0x40 MLOAD PUSH1 0x0 PUSH1 0x40 MLOAD DUP1 DUP4 SUB DUP2 DUP6 DUP9 DUP9 CALL SWAP4 POP POP POP POP ISZERO DUP1 ISZERO PUSH2 0x434 JUMPI RETURNDATASIZE PUSH1 0x0 DUP1 RETURNDATACOPY RETURNDATASIZE PUSH1 0x0 REVERT JUMPDEST POP PUSH1 0x1 PUSH1 0x0 DUP2 SLOAD DUP1 SWAP3 SWAP2 SWAP1 PUSH1 0x1 SWAP1 SUB SWAP2 SWAP1 POP SSTORE POP PUSH1 0x1 SWAP3 POP POP POP SWAP1 JUMP INVALID LOG2 PUSH5 0x6970667358 0x22 SLT KECCAK256 0xE4 0x5C MLOAD EXTCODEHASH 0xED DUP3 EXTCODESIZE 0x2A EXP 0xE0 PUSH31 0xDED670B34C4252887A5171413ECDD35165D0D1572364736F6C634300060100 CALLER 0xE5 0xBF DUP6 0xE9 LOG1 0xBB 0xE8 0xBD 0xAC 0xE5 DUP6 0xA5 0xE4 0xBB 0xA5 0xE5 LOG4 0xAA 0xE5 0xB8 DUP2 0xE4 0xBD SWAP13 0xE4 0xB8 0xBA 0xE7 0xBA LOG2 0xE5 DUP13 DUP6 0xE9 DUP8 SWAP2 0xE9 LOG2 SWAP14 "
				},
				"gasEstimates": {
					"creation": {
						"codeDepositCost": "231800",
						"executionCost": "infinite",
						"totalCost": "infinite"
					},
					"external": {
						"getBalance()": "193",
						"kill()": "31850",
						"number()": "1049",
						"stakeMoney()": "infinite",
						"tuhao()": "1075"
					}
				},
				"methodIdentifiers": {
					"getBalance()": "12065fe0",
					"kill()": "41c0e1b5",
					"number()": "8381f58a",
					"stakeMoney()": "daa7fd17",
					"tuhao()": "6878dfa4"
				}
			},
			"storageLayout": {
				"storage": [
					{
						"astId": 3,
						"contract": "11-redpacket1.sol:redpacket",
						"label": "tuhao",
						"offset": 0,
						"slot": "0",
						"type": "t_address_payable"
					},
					{
						"astId": 5,
						"contract": "11-redpacket1.sol:redpacket",
						"label": "number",
						"offset": 0,
						"slot": "1",
						"type": "t_uint256"
					}
				],
				"types": {
					"t_address_payable": {
						"encoding": "inplace",
						"label": "address payable",
						"numberOfBytes": "20"
					},
					"t_uint256": {
						"encoding": "inplace",
						"label": "uint256",
						"numberOfBytes": "32"
					}
				}
			},
			"userdoc": {
				"methods": {}
			}
		}
	}
}