{
	"14-data_bank.sol": {
		"data_demo": {
			"abi": [
				{
					"inputs": [
						{
							"internalType": "string",
							"name": "_name",
							"type": "string"
						},
						{
							"internalType": "uint256",
							"name": "_amount",
							"type": "uint256"
						}
					],
					"stateMutability": "nonpayable",
					"type": "constructor"
				},
				{
					"inputs": [],
					"name": "getBank",
					"outputs": [
						{
							"components": [
								{
									"internalType": "string",
									"name": "name",
									"type": "string"
								},
								{
									"internalType": "uint256",
									"name": "amount",
									"type": "uint256"
								}
							],
							"internalType": "struct Bank",
							"name": "",
							"type": "tuple"
						}
					],
					"stateMutability": "view",
					"type": "function"
				}
			],
			"devdoc": {
				"methods": {}
			},
			"evm": {
				"assembly": "    /* \"14-data_bank.sol\":174:505  contract data_demo {... */\n  mstore(0x40, 0x80)\n    /* \"14-data_bank.sol\":270:393  constructor(string memory _name, uint256 _amount) public {... */\n  callvalue\n    /* \"--CODEGEN--\":8:17   */\n  dup1\n    /* \"--CODEGEN--\":5:7   */\n  iszero\n  tag_1\n  jumpi\n    /* \"--CODEGEN--\":30:31   */\n  0x00\n    /* \"--CODEGEN--\":27:28   */\n  dup1\n    /* \"--CODEGEN--\":20:32   */\n  revert\n    /* \"--CODEGEN--\":5:7   */\ntag_1:\n    /* \"14-data_bank.sol\":270:393  constructor(string memory _name, uint256 _amount) public {... */\n  pop\n  mload(0x40)\n  sub(codesize, bytecodeSize)\n  dup1\n  bytecodeSize\n  dup4\n  codecopy\n  dup2\n  dup2\n  add\n  0x40\n  mstore\n  tag_2\n  swap2\n  swap1\n  dup2\n  add\n  swap1\n  jump(tag_3)\ntag_2:\n    /* \"14-data_bank.sol\":349:354  _name */\n  dup2\n    /* \"14-data_bank.sol\":337:341  bank */\n  0x00\n    /* \"14-data_bank.sol\":337:346  bank.name */\n  dup1\n  add\n    /* \"14-data_bank.sol\":337:354  bank.name = _name */\n  swap1\n  dup1\n  mload\n  swap1\n  0x20\n  add\n  swap1\n  tag_6\n  swap3\n  swap2\n  swap1\n  tag_7\n  jump\t// in\ntag_6:\n  pop\n    /* \"14-data_bank.sol\":379:386  _amount */\n  dup1\n    /* \"14-data_bank.sol\":364:368  bank */\n  0x00\n    /* \"14-data_bank.sol\":364:375  bank.amount */\n  0x01\n  add\n    /* \"14-data_bank.sol\":364:386  bank.amount  = _amount */\n  dup2\n  swap1\n  sstore\n  pop\n    /* \"14-data_bank.sol\":270:393  constructor(string memory _name, uint256 _amount) public {... */\n  pop\n  pop\n    /* \"14-data_bank.sol\":174:505  contract data_demo {... */\n  jump(tag_8)\ntag_7:\n  dup3\n  dup1\n  sload\n  0x01\n  dup2\n  0x01\n  and\n  iszero\n  0x0100\n  mul\n  sub\n  and\n  0x02\n  swap1\n  div\n  swap1\n  0x00\n  mstore\n  keccak256(0x00, 0x20)\n  swap1\n  0x1f\n  add\n  0x20\n  swap1\n  div\n  dup2\n  add\n  swap3\n  dup3\n  0x1f\n  lt\n  tag_10\n  jumpi\n  dup1\n  mload\n  not(0xff)\n  and\n  dup4\n  dup1\n  add\n  or\n  dup6\n  sstore\n  jump(tag_9)\ntag_10:\n  dup3\n  dup1\n  add\n  0x01\n  add\n  dup6\n  sstore\n  dup3\n  iszero\n  tag_9\n  jumpi\n  swap2\n  dup3\n  add\ntag_11:\n  dup3\n  dup2\n  gt\n  iszero\n  tag_12\n  jumpi\n  dup3\n  mload\n  dup3\n  sstore\n  swap2\n  0x20\n  add\n  swap2\n  swap1\n  0x01\n  add\n  swap1\n  jump(tag_11)\ntag_12:\ntag_9:\n  pop\n  swap1\n  pop\n  tag_13\n  swap2\n  swap1\n  tag_14\n  jump\t// in\ntag_13:\n  pop\n  swap1\n  jump\t// out\ntag_14:\n  tag_15\n  swap2\n  swap1\ntag_16:\n  dup1\n  dup3\n  gt\n  iszero\n  tag_17\n  jumpi\n  0x00\n  dup2\n  0x00\n  swap1\n  sstore\n  pop\n  0x01\n  add\n  jump(tag_16)\ntag_17:\n  pop\n  swap1\n  jump\ntag_15:\n  swap1\n  jump\t// out\n    /* \"--CODEGEN--\":6:450   */\ntag_19:\n  0x00\n    /* \"--CODEGEN--\":119:122   */\n  dup3\n    /* \"--CODEGEN--\":112:116   */\n  0x1f\n    /* \"--CODEGEN--\":104:110   */\n  dup4\n    /* \"--CODEGEN--\":100:117   */\n  add\n    /* \"--CODEGEN--\":96:123   */\n  slt\n    /* \"--CODEGEN--\":86:88   */\n  tag_21\n  jumpi\n    /* \"--CODEGEN--\":137:138   */\n  0x00\n    /* \"--CODEGEN--\":134:135   */\n  dup1\n    /* \"--CODEGEN--\":127:139   */\n  revert\n    /* \"--CODEGEN--\":86:88   */\ntag_21:\n    /* \"--CODEGEN--\":167:173   */\n  dup2\n    /* \"--CODEGEN--\":161:174   */\n  mload\n    /* \"--CODEGEN--\":189:254   */\n  tag_22\n    /* \"--CODEGEN--\":204:253   */\n  tag_23\n    /* \"--CODEGEN--\":246:252   */\n  dup3\n    /* \"--CODEGEN--\":204:253   */\n  jump(tag_24)\ntag_23:\n    /* \"--CODEGEN--\":189:254   */\n  jump(tag_25)\ntag_22:\n    /* \"--CODEGEN--\":180:254   */\n  swap2\n  pop\n    /* \"--CODEGEN--\":274:280   */\n  dup1\n    /* \"--CODEGEN--\":267:272   */\n  dup3\n    /* \"--CODEGEN--\":260:281   */\n  mstore\n    /* \"--CODEGEN--\":310:314   */\n  0x20\n    /* \"--CODEGEN--\":302:308   */\n  dup4\n    /* \"--CODEGEN--\":298:315   */\n  add\n    /* \"--CODEGEN--\":343:347   */\n  0x20\n    /* \"--CODEGEN--\":336:341   */\n  dup4\n    /* \"--CODEGEN--\":332:348   */\n  add\n    /* \"--CODEGEN--\":378:381   */\n  dup6\n    /* \"--CODEGEN--\":369:375   */\n  dup4\n    /* \"--CODEGEN--\":364:367   */\n  dup4\n    /* \"--CODEGEN--\":360:376   */\n  add\n    /* \"--CODEGEN--\":357:382   */\n  gt\n    /* \"--CODEGEN--\":354:356   */\n  iszero\n  tag_26\n  jumpi\n    /* \"--CODEGEN--\":395:396   */\n  0x00\n    /* \"--CODEGEN--\":392:393   */\n  dup1\n    /* \"--CODEGEN--\":385:397   */\n  revert\n    /* \"--CODEGEN--\":354:356   */\ntag_26:\n    /* \"--CODEGEN--\":405:444   */\n  tag_27\n    /* \"--CODEGEN--\":437:443   */\n  dup4\n    /* \"--CODEGEN--\":432:435   */\n  dup3\n    /* \"--CODEGEN--\":427:430   */\n  dup5\n    /* \"--CODEGEN--\":405:444   */\n  jump(tag_28)\ntag_27:\n    /* \"--CODEGEN--\":79:450   */\n  pop\n  pop\n  pop\n  swap3\n  swap2\n  pop\n  pop\n  jump\n    /* \"--CODEGEN--\":458:592   */\ntag_29:\n  0x00\n    /* \"--CODEGEN--\":542:548   */\n  dup2\n    /* \"--CODEGEN--\":536:549   */\n  mload\n    /* \"--CODEGEN--\":527:549   */\n  swap1\n  pop\n    /* \"--CODEGEN--\":554:587   */\n  tag_31\n    /* \"--CODEGEN--\":581:586   */\n  dup2\n    /* \"--CODEGEN--\":554:587   */\n  jump(tag_32)\ntag_31:\n    /* \"--CODEGEN--\":521:592   */\n  swap3\n  swap2\n  pop\n  pop\n  jump\n    /* \"--CODEGEN--\":599:1097   */\ntag_3:\n  0x00\n  dup1\n    /* \"--CODEGEN--\":741:743   */\n  0x40\n    /* \"--CODEGEN--\":729:738   */\n  dup4\n    /* \"--CODEGEN--\":720:727   */\n  dup6\n    /* \"--CODEGEN--\":716:739   */\n  sub\n    /* \"--CODEGEN--\":712:744   */\n  slt\n    /* \"--CODEGEN--\":709:711   */\n  iszero\n  tag_34\n  jumpi\n    /* \"--CODEGEN--\":757:758   */\n  0x00\n    /* \"--CODEGEN--\":754:755   */\n  dup1\n    /* \"--CODEGEN--\":747:759   */\n  revert\n    /* \"--CODEGEN--\":709:711   */\ntag_34:\n    /* \"--CODEGEN--\":813:814   */\n  0x00\n    /* \"--CODEGEN--\":802:811   */\n  dup4\n    /* \"--CODEGEN--\":798:815   */\n  add\n    /* \"--CODEGEN--\":792:816   */\n  mload\n    /* \"--CODEGEN--\":836:854   */\n  0xffffffffffffffff\n    /* \"--CODEGEN--\":828:834   */\n  dup2\n    /* \"--CODEGEN--\":825:855   */\n  gt\n    /* \"--CODEGEN--\":822:824   */\n  iszero\n  tag_35\n  jumpi\n    /* \"--CODEGEN--\":868:869   */\n  0x00\n    /* \"--CODEGEN--\":865:866   */\n  dup1\n    /* \"--CODEGEN--\":858:870   */\n  revert\n    /* \"--CODEGEN--\":822:824   */\ntag_35:\n    /* \"--CODEGEN--\":888:962   */\n  tag_36\n    /* \"--CODEGEN--\":954:961   */\n  dup6\n    /* \"--CODEGEN--\":945:951   */\n  dup3\n    /* \"--CODEGEN--\":934:943   */\n  dup7\n    /* \"--CODEGEN--\":930:952   */\n  add\n    /* \"--CODEGEN--\":888:962   */\n  jump(tag_19)\ntag_36:\n    /* \"--CODEGEN--\":878:962   */\n  swap3\n  pop\n    /* \"--CODEGEN--\":771:968   */\n  pop\n    /* \"--CODEGEN--\":999:1001   */\n  0x20\n    /* \"--CODEGEN--\":1017:1081   */\n  tag_37\n    /* \"--CODEGEN--\":1073:1080   */\n  dup6\n    /* \"--CODEGEN--\":1064:1070   */\n  dup3\n    /* \"--CODEGEN--\":1053:1062   */\n  dup7\n    /* \"--CODEGEN--\":1049:1071   */\n  add\n    /* \"--CODEGEN--\":1017:1081   */\n  jump(tag_29)\ntag_37:\n    /* \"--CODEGEN--\":1007:1081   */\n  swap2\n  pop\n    /* \"--CODEGEN--\":978:1087   */\n  pop\n    /* \"--CODEGEN--\":703:1097   */\n  swap3\n  pop\n  swap3\n  swap1\n  pop\n  jump\n    /* \"--CODEGEN--\":1104:1360   */\ntag_25:\n  0x00\n    /* \"--CODEGEN--\":1166:1168   */\n  0x40\n    /* \"--CODEGEN--\":1160:1169   */\n  mload\n    /* \"--CODEGEN--\":1150:1169   */\n  swap1\n  pop\n    /* \"--CODEGEN--\":1204:1208   */\n  dup2\n    /* \"--CODEGEN--\":1196:1202   */\n  dup2\n    /* \"--CODEGEN--\":1192:1209   */\n  add\n    /* \"--CODEGEN--\":1303:1309   */\n  dup2\n    /* \"--CODEGEN--\":1291:1301   */\n  dup2\n    /* \"--CODEGEN--\":1288:1310   */\n  lt\n    /* \"--CODEGEN--\":1267:1285   */\n  0xffffffffffffffff\n    /* \"--CODEGEN--\":1255:1265   */\n  dup3\n    /* \"--CODEGEN--\":1252:1286   */\n  gt\n    /* \"--CODEGEN--\":1249:1311   */\n  or\n    /* \"--CODEGEN--\":1246:1248   */\n  iszero\n  tag_39\n  jumpi\n    /* \"--CODEGEN--\":1324:1325   */\n  0x00\n    /* \"--CODEGEN--\":1321:1322   */\n  dup1\n    /* \"--CODEGEN--\":1314:1326   */\n  revert\n    /* \"--CODEGEN--\":1246:1248   */\ntag_39:\n    /* \"--CODEGEN--\":1344:1354   */\n  dup1\n    /* \"--CODEGEN--\":1340:1342   */\n  0x40\n    /* \"--CODEGEN--\":1333:1355   */\n  mstore\n    /* \"--CODEGEN--\":1144:1360   */\n  pop\n  swap2\n  swap1\n  pop\n  jump\n    /* \"--CODEGEN--\":1367:1689   */\ntag_24:\n  0x00\n    /* \"--CODEGEN--\":1511:1529   */\n  0xffffffffffffffff\n    /* \"--CODEGEN--\":1503:1509   */\n  dup3\n    /* \"--CODEGEN--\":1500:1530   */\n  gt\n    /* \"--CODEGEN--\":1497:1499   */\n  iszero\n  tag_41\n  jumpi\n    /* \"--CODEGEN--\":1543:1544   */\n  0x00\n    /* \"--CODEGEN--\":1540:1541   */\n  dup1\n    /* \"--CODEGEN--\":1533:1545   */\n  revert\n    /* \"--CODEGEN--\":1497:1499   */\ntag_41:\n    /* \"--CODEGEN--\":1610:1614   */\n  0x1f\n    /* \"--CODEGEN--\":1606:1615   */\n  not\n    /* \"--CODEGEN--\":1599:1603   */\n  0x1f\n    /* \"--CODEGEN--\":1591:1597   */\n  dup4\n    /* \"--CODEGEN--\":1587:1604   */\n  add\n    /* \"--CODEGEN--\":1583:1616   */\n  and\n    /* \"--CODEGEN--\":1575:1616   */\n  swap1\n  pop\n    /* \"--CODEGEN--\":1674:1678   */\n  0x20\n    /* \"--CODEGEN--\":1668:1672   */\n  dup2\n    /* \"--CODEGEN--\":1664:1679   */\n  add\n    /* \"--CODEGEN--\":1656:1679   */\n  swap1\n  pop\n    /* \"--CODEGEN--\":1434:1689   */\n  swap2\n  swap1\n  pop\n  jump\n    /* \"--CODEGEN--\":1696:1768   */\ntag_42:\n  0x00\n    /* \"--CODEGEN--\":1758:1763   */\n  dup2\n    /* \"--CODEGEN--\":1747:1763   */\n  swap1\n  pop\n    /* \"--CODEGEN--\":1741:1768   */\n  swap2\n  swap1\n  pop\n  jump\n    /* \"--CODEGEN--\":1776:2044   */\ntag_28:\n    /* \"--CODEGEN--\":1841:1842   */\n  0x00\n    /* \"--CODEGEN--\":1848:1949   */\ntag_45:\n    /* \"--CODEGEN--\":1862:1868   */\n  dup4\n    /* \"--CODEGEN--\":1859:1860   */\n  dup2\n    /* \"--CODEGEN--\":1856:1869   */\n  lt\n    /* \"--CODEGEN--\":1848:1949   */\n  iszero\n  tag_47\n  jumpi\n    /* \"--CODEGEN--\":1938:1939   */\n  dup1\n    /* \"--CODEGEN--\":1933:1936   */\n  dup3\n    /* \"--CODEGEN--\":1929:1940   */\n  add\n    /* \"--CODEGEN--\":1923:1941   */\n  mload\n    /* \"--CODEGEN--\":1919:1920   */\n  dup2\n    /* \"--CODEGEN--\":1914:1917   */\n  dup5\n    /* \"--CODEGEN--\":1910:1921   */\n  add\n    /* \"--CODEGEN--\":1903:1942   */\n  mstore\n    /* \"--CODEGEN--\":1884:1886   */\n  0x20\n    /* \"--CODEGEN--\":1881:1882   */\n  dup2\n    /* \"--CODEGEN--\":1877:1887   */\n  add\n    /* \"--CODEGEN--\":1872:1887   */\n  swap1\n  pop\n    /* \"--CODEGEN--\":1848:1949   */\n  jump(tag_45)\ntag_47:\n    /* \"--CODEGEN--\":1964:1970   */\n  dup4\n    /* \"--CODEGEN--\":1961:1962   */\n  dup2\n    /* \"--CODEGEN--\":1958:1971   */\n  gt\n    /* \"--CODEGEN--\":1955:1957   */\n  iszero\n  tag_48\n  jumpi\n    /* \"--CODEGEN--\":2029:2030   */\n  0x00\n    /* \"--CODEGEN--\":2020:2026   */\n  dup5\n    /* \"--CODEGEN--\":2015:2018   */\n  dup5\n    /* \"--CODEGEN--\":2011:2027   */\n  add\n    /* \"--CODEGEN--\":2004:2031   */\n  mstore\n    /* \"--CODEGEN--\":1955:1957   */\ntag_48:\n    /* \"--CODEGEN--\":1825:2044   */\n  pop\n  pop\n  pop\n  pop\n  jump\n    /* \"--CODEGEN--\":2052:2169   */\ntag_32:\n    /* \"--CODEGEN--\":2121:2145   */\n  tag_50\n    /* \"--CODEGEN--\":2139:2144   */\n  dup2\n    /* \"--CODEGEN--\":2121:2145   */\n  jump(tag_42)\ntag_50:\n    /* \"--CODEGEN--\":2114:2119   */\n  dup2\n    /* \"--CODEGEN--\":2111:2146   */\n  eq\n    /* \"--CODEGEN--\":2101:2103   */\n  tag_51\n  jumpi\n    /* \"--CODEGEN--\":2160:2161   */\n  0x00\n    /* \"--CODEGEN--\":2157:2158   */\n  dup1\n    /* \"--CODEGEN--\":2150:2162   */\n  revert\n    /* \"--CODEGEN--\":2101:2103   */\ntag_51:\n    /* \"--CODEGEN--\":2095:2169   */\n  pop\n  jump\n    /* \"14-data_bank.sol\":174:505  contract data_demo {... */\ntag_8:\n  dataSize(sub_0)\n  dup1\n  dataOffset(sub_0)\n  0x00\n  codecopy\n  0x00\n  return\nstop\n\nsub_0: assembly {\n        /* \"14-data_bank.sol\":174:505  contract data_demo {... */\n      mstore(0x40, 0x80)\n      callvalue\n        /* \"--CODEGEN--\":8:17   */\n      dup1\n        /* \"--CODEGEN--\":5:7   */\n      iszero\n      tag_1\n      jumpi\n        /* \"--CODEGEN--\":30:31   */\n      0x00\n        /* \"--CODEGEN--\":27:28   */\n      dup1\n        /* \"--CODEGEN--\":20:32   */\n      revert\n        /* \"--CODEGEN--\":5:7   */\n    tag_1:\n        /* \"14-data_bank.sol\":174:505  contract data_demo {... */\n      pop\n      jumpi(tag_2, lt(calldatasize, 0x04))\n      shr(0xe0, calldataload(0x00))\n      dup1\n      0x60d704db\n      eq\n      tag_3\n      jumpi\n    tag_2:\n      0x00\n      dup1\n      revert\n        /* \"14-data_bank.sol\":422:503  function getBank() public view returns (Bank memory) {... */\n    tag_3:\n      tag_4\n      tag_5\n      jump\t// in\n    tag_4:\n      mload(0x40)\n      tag_6\n      swap2\n      swap1\n      jump(tag_7)\n    tag_6:\n      mload(0x40)\n      dup1\n      swap2\n      sub\n      swap1\n      return\n    tag_5:\n        /* \"14-data_bank.sol\":462:473  Bank memory */\n      tag_8\n      tag_9\n      jump\t// in\n    tag_8:\n        /* \"14-data_bank.sol\":492:496  bank */\n      0x00\n        /* \"14-data_bank.sol\":485:496  return bank */\n      mload(0x40)\n      dup1\n      0x40\n      add\n      0x40\n      mstore\n      swap1\n      dup2\n      0x00\n      dup3\n      add\n      dup1\n      sload\n      0x01\n      dup2\n      0x01\n      and\n      iszero\n      0x0100\n      mul\n      sub\n      and\n      0x02\n      swap1\n      div\n      dup1\n      0x1f\n      add\n      0x20\n      dup1\n      swap2\n      div\n      mul\n      0x20\n      add\n      mload(0x40)\n      swap1\n      dup2\n      add\n      0x40\n      mstore\n      dup1\n      swap3\n      swap2\n      swap1\n      dup2\n      dup2\n      mstore\n      0x20\n      add\n      dup3\n      dup1\n      sload\n      0x01\n      dup2\n      0x01\n      and\n      iszero\n      0x0100\n      mul\n      sub\n      and\n      0x02\n      swap1\n      div\n      dup1\n      iszero\n      tag_11\n      jumpi\n      dup1\n      0x1f\n      lt\n      tag_12\n      jumpi\n      0x0100\n      dup1\n      dup4\n      sload\n      div\n      mul\n      dup4\n      mstore\n      swap2\n      0x20\n      add\n      swap2\n      jump(tag_11)\n    tag_12:\n      dup3\n      add\n      swap2\n      swap1\n      0x00\n      mstore\n      keccak256(0x00, 0x20)\n      swap1\n    tag_13:\n      dup2\n      sload\n      dup2\n      mstore\n      swap1\n      0x01\n      add\n      swap1\n      0x20\n      add\n      dup1\n      dup4\n      gt\n      tag_13\n      jumpi\n      dup3\n      swap1\n      sub\n      0x1f\n      and\n      dup3\n      add\n      swap2\n    tag_11:\n      pop\n      pop\n      pop\n      pop\n      pop\n      dup2\n      mstore\n      0x20\n      add\n      0x01\n      dup3\n      add\n      sload\n      dup2\n      mstore\n      pop\n      pop\n      swap1\n      pop\n        /* \"14-data_bank.sol\":422:503  function getBank() public view returns (Bank memory) {... */\n      swap1\n      jump\t// out\n        /* \"14-data_bank.sol\":174:505  contract data_demo {... */\n    tag_9:\n      mload(0x40)\n      dup1\n      0x40\n      add\n      0x40\n      mstore\n      dup1\n      0x60\n      dup2\n      mstore\n      0x20\n      add\n      0x00\n      dup2\n      mstore\n      pop\n      swap1\n      jump\t// out\n        /* \"--CODEGEN--\":5:324   */\n    tag_15:\n      0x00\n        /* \"--CODEGEN--\":103:138   */\n      tag_17\n        /* \"--CODEGEN--\":132:137   */\n      dup3\n        /* \"--CODEGEN--\":103:138   */\n      jump(tag_18)\n    tag_17:\n        /* \"--CODEGEN--\":150:211   */\n      tag_19\n        /* \"--CODEGEN--\":204:210   */\n      dup2\n        /* \"--CODEGEN--\":199:202   */\n      dup6\n        /* \"--CODEGEN--\":150:211   */\n      jump(tag_20)\n    tag_19:\n        /* \"--CODEGEN--\":143:211   */\n      swap4\n      pop\n        /* \"--CODEGEN--\":216:268   */\n      tag_21\n        /* \"--CODEGEN--\":261:267   */\n      dup2\n        /* \"--CODEGEN--\":256:259   */\n      dup6\n        /* \"--CODEGEN--\":249:253   */\n      0x20\n        /* \"--CODEGEN--\":242:247   */\n      dup7\n        /* \"--CODEGEN--\":238:254   */\n      add\n        /* \"--CODEGEN--\":216:268   */\n      jump(tag_22)\n    tag_21:\n        /* \"--CODEGEN--\":289:318   */\n      tag_23\n        /* \"--CODEGEN--\":311:317   */\n      dup2\n        /* \"--CODEGEN--\":289:318   */\n      jump(tag_24)\n    tag_23:\n        /* \"--CODEGEN--\":284:287   */\n      dup5\n        /* \"--CODEGEN--\":280:319   */\n      add\n        /* \"--CODEGEN--\":273:319   */\n      swap2\n      pop\n        /* \"--CODEGEN--\":83:324   */\n      pop\n      swap3\n      swap2\n      pop\n      pop\n      jump\n        /* \"--CODEGEN--\":364:921   */\n    tag_25:\n      0x00\n        /* \"--CODEGEN--\":503:507   */\n      0x40\n        /* \"--CODEGEN--\":498:501   */\n      dup4\n        /* \"--CODEGEN--\":494:508   */\n      add\n        /* \"--CODEGEN--\":586:590   */\n      0x00\n        /* \"--CODEGEN--\":579:584   */\n      dup4\n        /* \"--CODEGEN--\":575:591   */\n      add\n        /* \"--CODEGEN--\":569:592   */\n      mload\n        /* \"--CODEGEN--\":638:641   */\n      dup5\n        /* \"--CODEGEN--\":632:636   */\n      dup3\n        /* \"--CODEGEN--\":628:642   */\n      sub\n        /* \"--CODEGEN--\":621:625   */\n      0x00\n        /* \"--CODEGEN--\":616:619   */\n      dup7\n        /* \"--CODEGEN--\":612:626   */\n      add\n        /* \"--CODEGEN--\":605:643   */\n      mstore\n        /* \"--CODEGEN--\":658:727   */\n      tag_27\n        /* \"--CODEGEN--\":722:726   */\n      dup3\n        /* \"--CODEGEN--\":708:720   */\n      dup3\n        /* \"--CODEGEN--\":658:727   */\n      jump(tag_15)\n    tag_27:\n        /* \"--CODEGEN--\":650:727   */\n      swap2\n      pop\n        /* \"--CODEGEN--\":523:739   */\n      pop\n        /* \"--CODEGEN--\":814:818   */\n      0x20\n        /* \"--CODEGEN--\":807:812   */\n      dup4\n        /* \"--CODEGEN--\":803:819   */\n      add\n        /* \"--CODEGEN--\":797:820   */\n      mload\n        /* \"--CODEGEN--\":826:889   */\n      tag_28\n        /* \"--CODEGEN--\":883:887   */\n      0x20\n        /* \"--CODEGEN--\":878:881   */\n      dup7\n        /* \"--CODEGEN--\":874:888   */\n      add\n        /* \"--CODEGEN--\":860:872   */\n      dup3\n        /* \"--CODEGEN--\":826:889   */\n      jump(tag_29)\n    tag_28:\n        /* \"--CODEGEN--\":749:895   */\n      pop\n        /* \"--CODEGEN--\":912:916   */\n      dup1\n        /* \"--CODEGEN--\":905:916   */\n      swap2\n      pop\n        /* \"--CODEGEN--\":476:921   */\n      pop\n      swap3\n      swap2\n      pop\n      pop\n      jump\n        /* \"--CODEGEN--\":928:1031   */\n    tag_29:\n        /* \"--CODEGEN--\":1001:1025   */\n      tag_31\n        /* \"--CODEGEN--\":1019:1024   */\n      dup2\n        /* \"--CODEGEN--\":1001:1025   */\n      jump(tag_32)\n    tag_31:\n        /* \"--CODEGEN--\":996:999   */\n      dup3\n        /* \"--CODEGEN--\":989:1026   */\n      mstore\n        /* \"--CODEGEN--\":983:1031   */\n      pop\n      pop\n      jump\n        /* \"--CODEGEN--\":1038:1375   */\n    tag_7:\n      0x00\n        /* \"--CODEGEN--\":1194:1196   */\n      0x20\n        /* \"--CODEGEN--\":1183:1192   */\n      dup3\n        /* \"--CODEGEN--\":1179:1197   */\n      add\n        /* \"--CODEGEN--\":1171:1197   */\n      swap1\n      pop\n        /* \"--CODEGEN--\":1244:1253   */\n      dup2\n        /* \"--CODEGEN--\":1238:1242   */\n      dup2\n        /* \"--CODEGEN--\":1234:1254   */\n      sub\n        /* \"--CODEGEN--\":1230:1231   */\n      0x00\n        /* \"--CODEGEN--\":1219:1228   */\n      dup4\n        /* \"--CODEGEN--\":1215:1232   */\n      add\n        /* \"--CODEGEN--\":1208:1255   */\n      mstore\n        /* \"--CODEGEN--\":1269:1365   */\n      tag_34\n        /* \"--CODEGEN--\":1360:1364   */\n      dup2\n        /* \"--CODEGEN--\":1351:1357   */\n      dup5\n        /* \"--CODEGEN--\":1269:1365   */\n      jump(tag_25)\n    tag_34:\n        /* \"--CODEGEN--\":1261:1365   */\n      swap1\n      pop\n        /* \"--CODEGEN--\":1165:1375   */\n      swap3\n      swap2\n      pop\n      pop\n      jump\n        /* \"--CODEGEN--\":1382:1500   */\n    tag_18:\n      0x00\n        /* \"--CODEGEN--\":1472:1477   */\n      dup2\n        /* \"--CODEGEN--\":1466:1478   */\n      mload\n        /* \"--CODEGEN--\":1456:1478   */\n      swap1\n      pop\n        /* \"--CODEGEN--\":1437:1500   */\n      swap2\n      swap1\n      pop\n      jump\n        /* \"--CODEGEN--\":1508:1661   */\n    tag_20:\n      0x00\n        /* \"--CODEGEN--\":1613:1619   */\n      dup3\n        /* \"--CODEGEN--\":1608:1611   */\n      dup3\n        /* \"--CODEGEN--\":1601:1620   */\n      mstore\n        /* \"--CODEGEN--\":1650:1654   */\n      0x20\n        /* \"--CODEGEN--\":1645:1648   */\n      dup3\n        /* \"--CODEGEN--\":1641:1655   */\n      add\n        /* \"--CODEGEN--\":1626:1655   */\n      swap1\n      pop\n        /* \"--CODEGEN--\":1594:1661   */\n      swap3\n      swap2\n      pop\n      pop\n      jump\n        /* \"--CODEGEN--\":1669:1741   */\n    tag_32:\n      0x00\n        /* \"--CODEGEN--\":1731:1736   */\n      dup2\n        /* \"--CODEGEN--\":1720:1736   */\n      swap1\n      pop\n        /* \"--CODEGEN--\":1714:1741   */\n      swap2\n      swap1\n      pop\n      jump\n        /* \"--CODEGEN--\":1749:2017   */\n    tag_22:\n        /* \"--CODEGEN--\":1814:1815   */\n      0x00\n        /* \"--CODEGEN--\":1821:1922   */\n    tag_39:\n        /* \"--CODEGEN--\":1835:1841   */\n      dup4\n        /* \"--CODEGEN--\":1832:1833   */\n      dup2\n        /* \"--CODEGEN--\":1829:1842   */\n      lt\n        /* \"--CODEGEN--\":1821:1922   */\n      iszero\n      tag_41\n      jumpi\n        /* \"--CODEGEN--\":1911:1912   */\n      dup1\n        /* \"--CODEGEN--\":1906:1909   */\n      dup3\n        /* \"--CODEGEN--\":1902:1913   */\n      add\n        /* \"--CODEGEN--\":1896:1914   */\n      mload\n        /* \"--CODEGEN--\":1892:1893   */\n      dup2\n        /* \"--CODEGEN--\":1887:1890   */\n      dup5\n        /* \"--CODEGEN--\":1883:1894   */\n      add\n        /* \"--CODEGEN--\":1876:1915   */\n      mstore\n        /* \"--CODEGEN--\":1857:1859   */\n      0x20\n        /* \"--CODEGEN--\":1854:1855   */\n      dup2\n        /* \"--CODEGEN--\":1850:1860   */\n      add\n        /* \"--CODEGEN--\":1845:1860   */\n      swap1\n      pop\n        /* \"--CODEGEN--\":1821:1922   */\n      jump(tag_39)\n    tag_41:\n        /* \"--CODEGEN--\":1937:1943   */\n      dup4\n        /* \"--CODEGEN--\":1934:1935   */\n      dup2\n        /* \"--CODEGEN--\":1931:1944   */\n      gt\n        /* \"--CODEGEN--\":1928:1930   */\n      iszero\n      tag_42\n      jumpi\n        /* \"--CODEGEN--\":2002:2003   */\n      0x00\n        /* \"--CODEGEN--\":1993:1999   */\n      dup5\n        /* \"--CODEGEN--\":1988:1991   */\n      dup5\n        /* \"--CODEGEN--\":1984:2000   */\n      add\n        /* \"--CODEGEN--\":1977:2004   */\n      mstore\n        /* \"--CODEGEN--\":1928:1930   */\n    tag_42:\n        /* \"--CODEGEN--\":1798:2017   */\n      pop\n      pop\n      pop\n      pop\n      jump\n        /* \"--CODEGEN--\":2025:2122   */\n    tag_24:\n      0x00\n        /* \"--CODEGEN--\":2113:2115   */\n      0x1f\n        /* \"--CODEGEN--\":2109:2116   */\n      not\n        /* \"--CODEGEN--\":2104:2106   */\n      0x1f\n        /* \"--CODEGEN--\":2097:2102   */\n      dup4\n        /* \"--CODEGEN--\":2093:2107   */\n      add\n        /* \"--CODEGEN--\":2089:2117   */\n      and\n        /* \"--CODEGEN--\":2079:2117   */\n      swap1\n      pop\n        /* \"--CODEGEN--\":2073:2122   */\n      swap2\n      swap1\n      pop\n      jump\n\n    auxdata: 0xa264697066735822122001172434780c8521e1f66455154e6136941ad590828a407e20157c3670425d8364736f6c63430006010033\n}\n",
				"bytecode": {
					"linkReferences": {},
					"object": "608060405234801561001057600080fd5b506040516104ef3803806104ef8339818101604052610032919081019061016a565b8160008001908051906020019061004a92919061005c565b5080600060010181905550505061026b565b828054600181600116156101000203166002900490600052602060002090601f016020900481019282601f1061009d57805160ff19168380011785556100cb565b828001600101855582156100cb579182015b828111156100ca5782518255916020019190600101906100af565b5b5090506100d891906100dc565b5090565b6100fe91905b808211156100fa5760008160009055506001016100e2565b5090565b90565b600082601f83011261011257600080fd5b8151610125610120826101eb565b6101be565b9150808252602083016020830185838301111561014157600080fd5b61014c838284610221565b50505092915050565b60008151905061016481610254565b92915050565b6000806040838503121561017d57600080fd5b600083015167ffffffffffffffff81111561019757600080fd5b6101a385828601610101565b92505060206101b485828601610155565b9150509250929050565b6000604051905081810181811067ffffffffffffffff821117156101e157600080fd5b8060405250919050565b600067ffffffffffffffff82111561020257600080fd5b601f19601f8301169050602081019050919050565b6000819050919050565b60005b8381101561023f578082015181840152602081019050610224565b8381111561024e576000848401525b50505050565b61025d81610217565b811461026857600080fd5b50565b6102758061027a6000396000f3fe608060405234801561001057600080fd5b506004361061002b5760003560e01c806360d704db14610030575b600080fd5b61003861004e565b60405161004591906101b3565b60405180910390f35b610056610114565b6000604051806040016040529081600082018054600181600116156101000203166002900480601f0160208091040260200160405190810160405280929190818152602001828054600181600116156101000203166002900480156100fc5780601f106100d1576101008083540402835291602001916100fc565b820191906000526020600020905b8154815290600101906020018083116100df57829003601f168201915b50505050508152602001600182015481525050905090565b604051806040016040528060608152602001600081525090565b6000610139826101d5565b61014381856101e0565b93506101538185602086016101fb565b61015c8161022e565b840191505092915050565b60006040830160008301518482036000860152610184828261012e565b915050602083015161019960208601826101a4565b508091505092915050565b6101ad816101f1565b82525050565b600060208201905081810360008301526101cd8184610167565b905092915050565b600081519050919050565b600082825260208201905092915050565b6000819050919050565b60005b838110156102195780820151818401526020810190506101fe565b83811115610228576000848401525b50505050565b6000601f19601f830116905091905056fea264697066735822122001172434780c8521e1f66455154e6136941ad590828a407e20157c3670425d8364736f6c63430006010033",
					"opcodes": "PUSH1 0x80 PUSH1 0x40 MSTORE CALLVALUE DUP1 ISZERO PUSH2 0x10 JUMPI PUSH1 0x0 DUP1 REVERT JUMPDEST POP PUSH1 0x40 MLOAD PUSH2 0x4EF CODESIZE SUB DUP1 PUSH2 0x4EF DUP4 CODECOPY DUP2 DUP2 ADD PUSH1 0x40 MSTORE PUSH2 0x32 SWAP2 SWAP1 DUP2 ADD SWAP1 PUSH2 0x16A JUMP JUMPDEST DUP2 PUSH1 0x0 DUP1 ADD SWAP1 DUP1 MLOAD SWAP1 PUSH1 0x20 ADD SWAP1 PUSH2 0x4A SWAP3 SWAP2 SWAP1 PUSH2 0x5C JUMP JUMPDEST POP DUP1 PUSH1 0x0 PUSH1 0x1 ADD DUP2 SWAP1 SSTORE POP POP POP PUSH2 0x26B JUMP JUMPDEST DUP3 DUP1 SLOAD PUSH1 0x1 DUP2 PUSH1 0x1 AND ISZERO PUSH2 0x100 MUL SUB AND PUSH1 0x2 SWAP1 DIV SWAP1 PUSH1 0x0 MSTORE PUSH1 0x20 PUSH1 0x0 KECCAK256 SWAP1 PUSH1 0x1F ADD PUSH1 0x20 SWAP1 DIV DUP2 ADD SWAP3 DUP3 PUSH1 0x1F LT PUSH2 0x9D JUMPI DUP1 MLOAD PUSH1 0xFF NOT AND DUP4 DUP1 ADD OR DUP6 SSTORE PUSH2 0xCB JUMP JUMPDEST DUP3 DUP1 ADD PUSH1 0x1 ADD DUP6 SSTORE DUP3 ISZERO PUSH2 0xCB JUMPI SWAP2 DUP3 ADD JUMPDEST DUP3 DUP2 GT ISZERO PUSH2 0xCA JUMPI DUP3 MLOAD DUP3 SSTORE SWAP2 PUSH1 0x20 ADD SWAP2 SWAP1 PUSH1 0x1 ADD SWAP1 PUSH2 0xAF JUMP JUMPDEST JUMPDEST POP SWAP1 POP PUSH2 0xD8 SWAP2 SWAP1 PUSH2 0xDC JUMP JUMPDEST POP SWAP1 JUMP JUMPDEST PUSH2 0xFE SWAP2 SWAP1 JUMPDEST DUP1 DUP3 GT ISZERO PUSH2 0xFA JUMPI PUSH1 0x0 DUP2 PUSH1 0x0 SWAP1 SSTORE POP PUSH1 0x1 ADD PUSH2 0xE2 JUMP JUMPDEST POP SWAP1 JUMP JUMPDEST SWAP1 JUMP JUMPDEST PUSH1 0x0 DUP3 PUSH1 0x1F DUP4 ADD SLT PUSH2 0x112 JUMPI PUSH1 0x0 DUP1 REVERT JUMPDEST DUP2 MLOAD PUSH2 0x125 PUSH2 0x120 DUP3 PUSH2 0x1EB JUMP JUMPDEST PUSH2 0x1BE JUMP JUMPDEST SWAP2 POP DUP1 DUP3 MSTORE PUSH1 0x20 DUP4 ADD PUSH1 0x20 DUP4 ADD DUP6 DUP4 DUP4 ADD GT ISZERO PUSH2 0x141 JUMPI PUSH1 0x0 DUP1 REVERT JUMPDEST PUSH2 0x14C DUP4 DUP3 DUP5 PUSH2 0x221 JUMP JUMPDEST POP POP POP SWAP3 SWAP2 POP POP JUMP JUMPDEST PUSH1 0x0 DUP2 MLOAD SWAP1 POP PUSH2 0x164 DUP2 PUSH2 0x254 JUMP JUMPDEST SWAP3 SWAP2 POP POP JUMP JUMPDEST PUSH1 0x0 DUP1 PUSH1 0x40 DUP4 DUP6 SUB SLT ISZERO PUSH2 0x17D JUMPI PUSH1 0x0 DUP1 REVERT JUMPDEST PUSH1 0x0 DUP4 ADD MLOAD PUSH8 0xFFFFFFFFFFFFFFFF DUP2 GT ISZERO PUSH2 0x197 JUMPI PUSH1 0x0 DUP1 REVERT JUMPDEST PUSH2 0x1A3 DUP6 DUP3 DUP7 ADD PUSH2 0x101 JUMP JUMPDEST SWAP3 POP POP PUSH1 0x20 PUSH2 0x1B4 DUP6 DUP3 DUP7 ADD PUSH2 0x155 JUMP JUMPDEST SWAP2 POP POP SWAP3 POP SWAP3 SWAP1 POP JUMP JUMPDEST PUSH1 0x0 PUSH1 0x40 MLOAD SWAP1 POP DUP2 DUP2 ADD DUP2 DUP2 LT PUSH8 0xFFFFFFFFFFFFFFFF DUP3 GT OR ISZERO PUSH2 0x1E1 JUMPI PUSH1 0x0 DUP1 REVERT JUMPDEST DUP1 PUSH1 0x40 MSTORE POP SWAP2 SWAP1 POP JUMP JUMPDEST PUSH1 0x0 PUSH8 0xFFFFFFFFFFFFFFFF DUP3 GT ISZERO PUSH2 0x202 JUMPI PUSH1 0x0 DUP1 REVERT JUMPDEST PUSH1 0x1F NOT PUSH1 0x1F DUP4 ADD AND SWAP1 POP PUSH1 0x20 DUP2 ADD SWAP1 POP SWAP2 SWAP1 POP JUMP JUMPDEST PUSH1 0x0 DUP2 SWAP1 POP SWAP2 SWAP1 POP JUMP JUMPDEST PUSH1 0x0 JUMPDEST DUP4 DUP2 LT ISZERO PUSH2 0x23F JUMPI DUP1 DUP3 ADD MLOAD DUP2 DUP5 ADD MSTORE PUSH1 0x20 DUP2 ADD SWAP1 POP PUSH2 0x224 JUMP JUMPDEST DUP4 DUP2 GT ISZERO PUSH2 0x24E JUMPI PUSH1 0x0 DUP5 DUP5 ADD MSTORE JUMPDEST POP POP POP POP JUMP JUMPDEST PUSH2 0x25D DUP2 PUSH2 0x217 JUMP JUMPDEST DUP2 EQ PUSH2 0x268 JUMPI PUSH1 0x0 DUP1 REVERT JUMPDEST POP JUMP JUMPDEST PUSH2 0x275 DUP1 PUSH2 0x27A PUSH1 0x0 CODECOPY PUSH1 0x0 RETURN INVALID PUSH1 0x80 PUSH1 0x40 MSTORE CALLVALUE DUP1 ISZERO PUSH2 0x10 JUMPI PUSH1 0x0 DUP1 REVERT JUMPDEST POP PUSH1 0x4 CALLDATASIZE LT PUSH2 0x2B JUMPI PUSH1 0x0 CALLDATALOAD PUSH1 0xE0 SHR DUP1 PUSH4 0x60D704DB EQ PUSH2 0x30 JUMPI JUMPDEST PUSH1 0x0 DUP1 REVERT JUMPDEST PUSH2 0x38 PUSH2 0x4E JUMP JUMPDEST PUSH1 0x40 MLOAD PUSH2 0x45 SWAP2 SWAP1 PUSH2 0x1B3 JUMP JUMPDEST PUSH1 0x40 MLOAD DUP1 SWAP2 SUB SWAP1 RETURN JUMPDEST PUSH2 0x56 PUSH2 0x114 JUMP JUMPDEST PUSH1 0x0 PUSH1 0x40 MLOAD DUP1 PUSH1 0x40 ADD PUSH1 0x40 MSTORE SWAP1 DUP2 PUSH1 0x0 DUP3 ADD DUP1 SLOAD PUSH1 0x1 DUP2 PUSH1 0x1 AND ISZERO PUSH2 0x100 MUL SUB AND PUSH1 0x2 SWAP1 DIV DUP1 PUSH1 0x1F ADD PUSH1 0x20 DUP1 SWAP2 DIV MUL PUSH1 0x20 ADD PUSH1 0x40 MLOAD SWAP1 DUP2 ADD PUSH1 0x40 MSTORE DUP1 SWAP3 SWAP2 SWAP1 DUP2 DUP2 MSTORE PUSH1 0x20 ADD DUP3 DUP1 SLOAD PUSH1 0x1 DUP2 PUSH1 0x1 AND ISZERO PUSH2 0x100 MUL SUB AND PUSH1 0x2 SWAP1 DIV DUP1 ISZERO PUSH2 0xFC JUMPI DUP1 PUSH1 0x1F LT PUSH2 0xD1 JUMPI PUSH2 0x100 DUP1 DUP4 SLOAD DIV MUL DUP4 MSTORE SWAP2 PUSH1 0x20 ADD SWAP2 PUSH2 0xFC JUMP JUMPDEST DUP3 ADD SWAP2 SWAP1 PUSH1 0x0 MSTORE PUSH1 0x20 PUSH1 0x0 KECCAK256 SWAP1 JUMPDEST DUP2 SLOAD DUP2 MSTORE SWAP1 PUSH1 0x1 ADD SWAP1 PUSH1 0x20 ADD DUP1 DUP4 GT PUSH2 0xDF JUMPI DUP3 SWAP1 SUB PUSH1 0x1F AND DUP3 ADD SWAP2 JUMPDEST POP POP POP POP POP DUP2 MSTORE PUSH1 0x20 ADD PUSH1 0x1 DUP3 ADD SLOAD DUP2 MSTORE POP POP SWAP1 POP SWAP1 JUMP JUMPDEST PUSH1 0x40 MLOAD DUP1 PUSH1 0x40 ADD PUSH1 0x40 MSTORE DUP1 PUSH1 0x60 DUP2 MSTORE PUSH1 0x20 ADD PUSH1 0x0 DUP2 MSTORE POP SWAP1 JUMP JUMPDEST PUSH1 0x0 PUSH2 0x139 DUP3 PUSH2 0x1D5 JUMP JUMPDEST PUSH2 0x143 DUP2 DUP6 PUSH2 0x1E0 JUMP JUMPDEST SWAP4 POP PUSH2 0x153 DUP2 DUP6 PUSH1 0x20 DUP7 ADD PUSH2 0x1FB JUMP JUMPDEST PUSH2 0x15C DUP2 PUSH2 0x22E JUMP JUMPDEST DUP5 ADD SWAP2 POP POP SWAP3 SWAP2 POP POP JUMP JUMPDEST PUSH1 0x0 PUSH1 0x40 DUP4 ADD PUSH1 0x0 DUP4 ADD MLOAD DUP5 DUP3 SUB PUSH1 0x0 DUP7 ADD MSTORE PUSH2 0x184 DUP3 DUP3 PUSH2 0x12E JUMP JUMPDEST SWAP2 POP POP PUSH1 0x20 DUP4 ADD MLOAD PUSH2 0x199 PUSH1 0x20 DUP7 ADD DUP3 PUSH2 0x1A4 JUMP JUMPDEST POP DUP1 SWAP2 POP POP SWAP3 SWAP2 POP POP JUMP JUMPDEST PUSH2 0x1AD DUP2 PUSH2 0x1F1 JUMP JUMPDEST DUP3 MSTORE POP POP JUMP JUMPDEST PUSH1 0x0 PUSH1 0x20 DUP3 ADD SWAP1 POP DUP2 DUP2 SUB PUSH1 0x0 DUP4 ADD MSTORE PUSH2 0x1CD DUP2 DUP5 PUSH2 0x167 JUMP JUMPDEST SWAP1 POP SWAP3 SWAP2 POP POP JUMP JUMPDEST PUSH1 0x0 DUP2 MLOAD SWAP1 POP SWAP2 SWAP1 POP JUMP JUMPDEST PUSH1 0x0 DUP3 DUP3 MSTORE PUSH1 0x20 DUP3 ADD SWAP1 POP SWAP3 SWAP2 POP POP JUMP JUMPDEST PUSH1 0x0 DUP2 SWAP1 POP SWAP2 SWAP1 POP JUMP JUMPDEST PUSH1 0x0 JUMPDEST DUP4 DUP2 LT ISZERO PUSH2 0x219 JUMPI DUP1 DUP3 ADD MLOAD DUP2 DUP5 ADD MSTORE PUSH1 0x20 DUP2 ADD SWAP1 POP PUSH2 0x1FE JUMP JUMPDEST DUP4 DUP2 GT ISZERO PUSH2 0x228 JUMPI PUSH1 0x0 DUP5 DUP5 ADD MSTORE JUMPDEST POP POP POP POP JUMP JUMPDEST PUSH1 0x0 PUSH1 0x1F NOT PUSH1 0x1F DUP4 ADD AND SWAP1 POP SWAP2 SWAP1 POP JUMP INVALID LOG2 PUSH5 0x6970667358 0x22 SLT KECCAK256 ADD OR 0x24 CALLVALUE PUSH25 0xC8521E1F66455154E6136941AD590828A407E20157C367042 0x5D DUP4 PUSH5 0x736F6C6343 STOP MOD ADD STOP CALLER "
				},
				"gasEstimates": {
					"creation": {
						"codeDepositCost": "125800",
						"executionCost": "infinite",
						"totalCost": "infinite"
					},
					"external": {
						"getBank()": "infinite"
					}
				},
				"methodIdentifiers": {
					"getBank()": "60d704db"
				}
			},
			"storageLayout": {
				"storage": [
					{
						"astId": 9,
						"contract": "14-data_bank.sol:data_demo",
						"label": "bank",
						"offset": 0,
						"slot": "0",
						"type": "t_struct(Bank)7_storage"
					}
				],
				"types": {
					"t_string_storage": {
						"encoding": "bytes",
						"label": "string",
						"numberOfBytes": "32"
					},
					"t_struct(Bank)7_storage": {
						"encoding": "inplace",
						"label": "struct Bank",
						"members": [
							{
								"astId": 4,
								"contract": "14-data_bank.sol:data_demo",
								"label": "name",
								"offset": 0,
								"slot": "0",
								"type": "t_string_storage"
							},
							{
								"astId": 6,
								"contract": "14-data_bank.sol:data_demo",
								"label": "amount",
								"offset": 0,
								"slot": "1",
								"type": "t_uint256"
							}
						],
						"numberOfBytes": "64"
					},
					"t_uint256": {
						"encoding": "inplace",
						"label": "uint256",
						"numberOfBytes": "32"
					}
				}
			},
			"userdoc": {
				"methods": {}
			}
		}
	}
}