{
	"11-redpacket.sol": {
		"redpacket": {
			"abi": [
				{
					"inputs": [
						{
							"internalType": "uint256",
							"name": "_number",
							"type": "uint256"
						}
					],
					"stateMutability": "payable",
					"type": "constructor"
				},
				{
					"inputs": [],
					"name": "getBalance",
					"outputs": [
						{
							"internalType": "uint256",
							"name": "",
							"type": "uint256"
						}
					],
					"stateMutability": "view",
					"type": "function"
				},
				{
					"inputs": [],
					"name": "kill",
					"outputs": [],
					"stateMutability": "nonpayable",
					"type": "function"
				},
				{
					"inputs": [],
					"name": "number",
					"outputs": [
						{
							"internalType": "uint256",
							"name": "",
							"type": "uint256"
						}
					],
					"stateMutability": "view",
					"type": "function"
				},
				{
					"inputs": [],
					"name": "stakeMoney",
					"outputs": [
						{
							"internalType": "bool",
							"name": "",
							"type": "bool"
						}
					],
					"stateMutability": "payable",
					"type": "function"
				},
				{
					"inputs": [],
					"name": "tuhao",
					"outputs": [
						{
							"internalType": "address payable",
							"name": "",
							"type": "address"
						}
					],
					"stateMutability": "view",
					"type": "function"
				}
			],
			"devdoc": {
				"methods": {}
			},
			"evm": {
				"assembly": "    /* \"11-redpacket.sol\":24:1288  contract redpacket {... */\n  mstore(0x40, 0x80)\n    /* \"11-redpacket.sol\":181:329  constructor(uint _number) payable public {... */\n  mload(0x40)\n  sub(codesize, bytecodeSize)\n  dup1\n  bytecodeSize\n  dup4\n  codecopy\n  dup2\n  dup2\n  add\n  0x40\n  mstore\n    /* \"--CODEGEN--\":13:15   */\n  0x20\n    /* \"--CODEGEN--\":8:11   */\n  dup2\n    /* \"--CODEGEN--\":5:16   */\n  lt\n    /* \"--CODEGEN--\":2:4   */\n  iszero\n  tag_1\n  jumpi\n    /* \"--CODEGEN--\":29:30   */\n  0x00\n    /* \"--CODEGEN--\":26:27   */\n  dup1\n    /* \"--CODEGEN--\":19:31   */\n  revert\n    /* \"--CODEGEN--\":2:4   */\ntag_1:\n    /* \"11-redpacket.sol\":181:329  constructor(uint _number) payable public {... */\n  dup2\n  add\n  swap1\n  dup1\n  dup1\n  mload\n  swap1\n  0x20\n  add\n  swap1\n  swap3\n  swap2\n  swap1\n  pop\n  pop\n  pop\n    /* \"11-redpacket.sol\":240:250  msg.sender */\n  caller\n    /* \"11-redpacket.sol\":232:237  tuhao */\n  0x00\n  dup1\n    /* \"11-redpacket.sol\":232:250  tuhao = msg.sender */\n  0x0100\n  exp\n  dup2\n  sload\n  dup2\n  0xffffffffffffffffffffffffffffffffffffffff\n  mul\n  not\n  and\n  swap1\n  dup4\n  0xffffffffffffffffffffffffffffffffffffffff\n  and\n  mul\n  or\n  swap1\n  sstore\n  pop\n    /* \"11-redpacket.sol\":295:302  _number */\n  dup1\n    /* \"11-redpacket.sol\":286:292  number */\n  0x01\n    /* \"11-redpacket.sol\":286:302  number = _number */\n  dup2\n  swap1\n  sstore\n  pop\n    /* \"11-redpacket.sol\":181:329  constructor(uint _number) payable public {... */\n  pop\n    /* \"11-redpacket.sol\":24:1288  contract redpacket {... */\n  dataSize(sub_0)\n  dup1\n  dataOffset(sub_0)\n  0x00\n  codecopy\n  0x00\n  return\nstop\n\nsub_0: assembly {\n        /* \"11-redpacket.sol\":24:1288  contract redpacket {... */\n      mstore(0x40, 0x80)\n      jumpi(tag_1, lt(calldatasize, 0x04))\n      shr(0xe0, calldataload(0x00))\n      dup1\n      0x12065fe0\n      eq\n      tag_2\n      jumpi\n      dup1\n      0x41c0e1b5\n      eq\n      tag_3\n      jumpi\n      dup1\n      0x6878dfa4\n      eq\n      tag_4\n      jumpi\n      dup1\n      0x8381f58a\n      eq\n      tag_5\n      jumpi\n      dup1\n      0xdaa7fd17\n      eq\n      tag_6\n      jumpi\n    tag_1:\n      0x00\n      dup1\n      revert\n        /* \"11-redpacket.sol\":353:447  function getBalance() public view returns (uint) {... */\n    tag_2:\n      callvalue\n        /* \"--CODEGEN--\":8:17   */\n      dup1\n        /* \"--CODEGEN--\":5:7   */\n      iszero\n      tag_7\n      jumpi\n        /* \"--CODEGEN--\":30:31   */\n      0x00\n        /* \"--CODEGEN--\":27:28   */\n      dup1\n        /* \"--CODEGEN--\":20:32   */\n      revert\n        /* \"--CODEGEN--\":5:7   */\n    tag_7:\n        /* \"11-redpacket.sol\":353:447  function getBalance() public view returns (uint) {... */\n      pop\n      tag_8\n      tag_9\n      jump\t// in\n    tag_8:\n      mload(0x40)\n      dup1\n      dup3\n      dup2\n      mstore\n      0x20\n      add\n      swap2\n      pop\n      pop\n      mload(0x40)\n      dup1\n      swap2\n      sub\n      swap1\n      return\n        /* \"11-redpacket.sol\":1150:1281  function kill() public {... */\n    tag_3:\n      callvalue\n        /* \"--CODEGEN--\":8:17   */\n      dup1\n        /* \"--CODEGEN--\":5:7   */\n      iszero\n      tag_10\n      jumpi\n        /* \"--CODEGEN--\":30:31   */\n      0x00\n        /* \"--CODEGEN--\":27:28   */\n      dup1\n        /* \"--CODEGEN--\":20:32   */\n      revert\n        /* \"--CODEGEN--\":5:7   */\n    tag_10:\n        /* \"11-redpacket.sol\":1150:1281  function kill() public {... */\n      pop\n      tag_11\n      tag_12\n      jump\t// in\n    tag_11:\n      stop\n        /* \"11-redpacket.sol\":49:77  address payable public tuhao */\n    tag_4:\n      callvalue\n        /* \"--CODEGEN--\":8:17   */\n      dup1\n        /* \"--CODEGEN--\":5:7   */\n      iszero\n      tag_13\n      jumpi\n        /* \"--CODEGEN--\":30:31   */\n      0x00\n        /* \"--CODEGEN--\":27:28   */\n      dup1\n        /* \"--CODEGEN--\":20:32   */\n      revert\n        /* \"--CODEGEN--\":5:7   */\n    tag_13:\n        /* \"11-redpacket.sol\":49:77  address payable public tuhao */\n      pop\n      tag_14\n      tag_15\n      jump\t// in\n    tag_14:\n      mload(0x40)\n      dup1\n      dup3\n      0xffffffffffffffffffffffffffffffffffffffff\n      and\n      0xffffffffffffffffffffffffffffffffffffffff\n      and\n      dup2\n      mstore\n      0x20\n      add\n      swap2\n      pop\n      pop\n      mload(0x40)\n      dup1\n      swap2\n      sub\n      swap1\n      return\n        /* \"11-redpacket.sol\":98:116  uint public number */\n    tag_5:\n      callvalue\n        /* \"--CODEGEN--\":8:17   */\n      dup1\n        /* \"--CODEGEN--\":5:7   */\n      iszero\n      tag_16\n      jumpi\n        /* \"--CODEGEN--\":30:31   */\n      0x00\n        /* \"--CODEGEN--\":27:28   */\n      dup1\n        /* \"--CODEGEN--\":20:32   */\n      revert\n        /* \"--CODEGEN--\":5:7   */\n    tag_16:\n        /* \"11-redpacket.sol\":98:116  uint public number */\n      pop\n      tag_17\n      tag_18\n      jump\t// in\n    tag_17:\n      mload(0x40)\n      dup1\n      dup3\n      dup2\n      mstore\n      0x20\n      add\n      swap2\n      pop\n      pop\n      mload(0x40)\n      dup1\n      swap2\n      sub\n      swap1\n      return\n        /* \"11-redpacket.sol\":469:1120  function stakeMoney() public payable returns (bool) {... */\n    tag_6:\n      tag_19\n      tag_20\n      jump\t// in\n    tag_19:\n      mload(0x40)\n      dup1\n      dup3\n      iszero\n      iszero\n      iszero\n      iszero\n      dup2\n      mstore\n      0x20\n      add\n      swap2\n      pop\n      pop\n      mload(0x40)\n      dup1\n      swap2\n      sub\n      swap1\n      return\n        /* \"11-redpacket.sol\":353:447  function getBalance() public view returns (uint) {... */\n    tag_9:\n        /* \"11-redpacket.sol\":396:400  uint */\n      0x00\n        /* \"11-redpacket.sol\":419:440  address(this).balance */\n      selfbalance\n        /* \"11-redpacket.sol\":412:440  return address(this).balance */\n      swap1\n      pop\n        /* \"11-redpacket.sol\":353:447  function getBalance() public view returns (uint) {... */\n      swap1\n      jump\t// out\n        /* \"11-redpacket.sol\":1150:1281  function kill() public {... */\n    tag_12:\n        /* \"11-redpacket.sol\":1205:1210  tuhao */\n      0x00\n      dup1\n      swap1\n      sload\n      swap1\n      0x0100\n      exp\n      swap1\n      div\n      0xffffffffffffffffffffffffffffffffffffffff\n      and\n        /* \"11-redpacket.sol\":1191:1210  msg.sender == tuhao */\n      0xffffffffffffffffffffffffffffffffffffffff\n      and\n        /* \"11-redpacket.sol\":1191:1201  msg.sender */\n      caller\n        /* \"11-redpacket.sol\":1191:1210  msg.sender == tuhao */\n      0xffffffffffffffffffffffffffffffffffffffff\n      and\n      eq\n        /* \"11-redpacket.sol\":1183:1211  require(msg.sender == tuhao) */\n      tag_23\n      jumpi\n      0x00\n      dup1\n      revert\n    tag_23:\n        /* \"11-redpacket.sol\":1234:1239  tuhao */\n      0x00\n      dup1\n      swap1\n      sload\n      swap1\n      0x0100\n      exp\n      swap1\n      div\n      0xffffffffffffffffffffffffffffffffffffffff\n      and\n        /* \"11-redpacket.sol\":1221:1240  selfdestruct(tuhao) */\n      0xffffffffffffffffffffffffffffffffffffffff\n      and\n      selfdestruct\n        /* \"11-redpacket.sol\":49:77  address payable public tuhao */\n    tag_15:\n      0x00\n      dup1\n      swap1\n      sload\n      swap1\n      0x0100\n      exp\n      swap1\n      div\n      0xffffffffffffffffffffffffffffffffffffffff\n      and\n      dup2\n      jump\t// out\n        /* \"11-redpacket.sol\":98:116  uint public number */\n    tag_18:\n      sload(0x01)\n      dup2\n      jump\t// out\n        /* \"11-redpacket.sol\":469:1120  function stakeMoney() public payable returns (bool) {... */\n    tag_20:\n        /* \"11-redpacket.sol\":515:519  bool */\n      0x00\n        /* \"11-redpacket.sol\":548:549  0 */\n      dup1\n        /* \"11-redpacket.sol\":539:545  number */\n      sload(0x01)\n        /* \"11-redpacket.sol\":539:549  number > 0 */\n      gt\n        /* \"11-redpacket.sol\":531:550  require(number > 0) */\n      tag_25\n      jumpi\n      0x00\n      dup1\n      revert\n    tag_25:\n        /* \"11-redpacket.sol\":610:611  0 */\n      0x00\n        /* \"11-redpacket.sol\":595:607  getBalance() */\n      tag_26\n        /* \"11-redpacket.sol\":595:605  getBalance */\n      tag_9\n        /* \"11-redpacket.sol\":595:607  getBalance() */\n      jump\t// in\n    tag_26:\n        /* \"11-redpacket.sol\":595:611  getBalance() > 0 */\n      gt\n        /* \"11-redpacket.sol\":587:612  require(getBalance() > 0) */\n      tag_27\n      jumpi\n      0x00\n      dup1\n      revert\n    tag_27:\n        /* \"11-redpacket.sol\":641:647  number */\n      0x01\n      0x00\n        /* \"11-redpacket.sol\":641:650  number -- */\n      dup2\n      sload\n      dup1\n      swap3\n      swap2\n      swap1\n      0x01\n      swap1\n      sub\n      swap2\n      swap1\n      pop\n      sstore\n      pop\n        /* \"11-redpacket.sol\":954:965  uint random */\n      0x00\n        /* \"11-redpacket.sol\":968:970  10 */\n      0x0a\n        /* \"11-redpacket.sol\":954:970  uint random = 10 */\n      swap1\n      pop\n        /* \"11-redpacket.sol\":980:992  uint balance */\n      0x00\n        /* \"11-redpacket.sol\":995:1007  getBalance() */\n      tag_28\n        /* \"11-redpacket.sol\":995:1005  getBalance */\n      tag_9\n        /* \"11-redpacket.sol\":995:1007  getBalance() */\n      jump\t// in\n    tag_28:\n        /* \"11-redpacket.sol\":980:1007  uint balance = getBalance() */\n      swap1\n      pop\n        /* \"11-redpacket.sol\":1048:1058  msg.sender */\n      caller\n        /* \"11-redpacket.sol\":1048:1067  msg.sender.transfer */\n      0xffffffffffffffffffffffffffffffffffffffff\n      and\n        /* \"11-redpacket.sol\":1048:1092  msg.sender.transfer(balance * random / 100 ) */\n      0x08fc\n        /* \"11-redpacket.sol\":1087:1090  100 */\n      0x64\n        /* \"11-redpacket.sol\":1078:1084  random */\n      dup5\n        /* \"11-redpacket.sol\":1068:1075  balance */\n      dup5\n        /* \"11-redpacket.sol\":1068:1084  balance * random */\n      mul\n        /* \"11-redpacket.sol\":1068:1090  balance * random / 100 */\n      dup2\n      tag_29\n      jumpi\n      invalid\n    tag_29:\n      div\n        /* \"11-redpacket.sol\":1048:1092  msg.sender.transfer(balance * random / 100 ) */\n      swap1\n      dup2\n      iszero\n      mul\n      swap1\n      mload(0x40)\n      0x00\n      mload(0x40)\n      dup1\n      dup4\n      sub\n      dup2\n      dup6\n      dup9\n      dup9\n      call\n      swap4\n      pop\n      pop\n      pop\n      pop\n      iszero\n        /* \"--CODEGEN--\":8:17   */\n      dup1\n        /* \"--CODEGEN--\":5:7   */\n      iszero\n      tag_31\n      jumpi\n        /* \"--CODEGEN--\":45:61   */\n      returndatasize\n        /* \"--CODEGEN--\":42:43   */\n      0x00\n        /* \"--CODEGEN--\":39:40   */\n      dup1\n        /* \"--CODEGEN--\":24:62   */\n      returndatacopy\n        /* \"--CODEGEN--\":77:93   */\n      returndatasize\n        /* \"--CODEGEN--\":74:75   */\n      0x00\n        /* \"--CODEGEN--\":67:94   */\n      revert\n        /* \"--CODEGEN--\":5:7   */\n    tag_31:\n        /* \"11-redpacket.sol\":1048:1092  msg.sender.transfer(balance * random / 100 ) */\n      pop\n        /* \"11-redpacket.sol\":1109:1113  true */\n      0x01\n        /* \"11-redpacket.sol\":1102:1113  return true */\n      swap3\n      pop\n      pop\n      pop\n        /* \"11-redpacket.sol\":469:1120  function stakeMoney() public payable returns (bool) {... */\n      swap1\n      jump\t// out\n\n    auxdata: 0xa26469706673582212204974239004b6974425c074f043485c0894b5e7eaa5a84b6b34b97cb6489948c964736f6c63430006010033\n}\n",
				"bytecode": {
					"linkReferences": {},
					"object": "60806040526040516103643803806103648339818101604052602081101561002657600080fd5b8101908080519060200190929190505050336000806101000a81548173ffffffffffffffffffffffffffffffffffffffff021916908373ffffffffffffffffffffffffffffffffffffffff16021790555080600181905550506102d68061008e6000396000f3fe60806040526004361061004a5760003560e01c806312065fe01461004f57806341c0e1b51461007a5780636878dfa4146100915780638381f58a146100e8578063daa7fd1714610113575b600080fd5b34801561005b57600080fd5b50610064610135565b6040518082815260200191505060405180910390f35b34801561008657600080fd5b5061008f61013d565b005b34801561009d57600080fd5b506100a66101d0565b604051808273ffffffffffffffffffffffffffffffffffffffff1673ffffffffffffffffffffffffffffffffffffffff16815260200191505060405180910390f35b3480156100f457600080fd5b506100fd6101f5565b6040518082815260200191505060405180910390f35b61011b6101fb565b604051808215151515815260200191505060405180910390f35b600047905090565b6000809054906101000a900473ffffffffffffffffffffffffffffffffffffffff1673ffffffffffffffffffffffffffffffffffffffff163373ffffffffffffffffffffffffffffffffffffffff161461019657600080fd5b6000809054906101000a900473ffffffffffffffffffffffffffffffffffffffff1673ffffffffffffffffffffffffffffffffffffffff16ff5b6000809054906101000a900473ffffffffffffffffffffffffffffffffffffffff1681565b60015481565b6000806001541161020b57600080fd5b6000610215610135565b1161021f57600080fd5b600160008154809291906001900391905055506000600a90506000610242610135565b90503373ffffffffffffffffffffffffffffffffffffffff166108fc60648484028161026a57fe5b049081150290604051600060405180830381858888f19350505050158015610296573d6000803e3d6000fd5b506001925050509056fea26469706673582212204974239004b6974425c074f043485c0894b5e7eaa5a84b6b34b97cb6489948c964736f6c63430006010033",
					"opcodes": "PUSH1 0x80 PUSH1 0x40 MSTORE PUSH1 0x40 MLOAD PUSH2 0x364 CODESIZE SUB DUP1 PUSH2 0x364 DUP4 CODECOPY DUP2 DUP2 ADD PUSH1 0x40 MSTORE PUSH1 0x20 DUP2 LT ISZERO PUSH2 0x26 JUMPI PUSH1 0x0 DUP1 REVERT JUMPDEST DUP2 ADD SWAP1 DUP1 DUP1 MLOAD SWAP1 PUSH1 0x20 ADD SWAP1 SWAP3 SWAP2 SWAP1 POP POP POP CALLER PUSH1 0x0 DUP1 PUSH2 0x100 EXP DUP2 SLOAD DUP2 PUSH20 0xFFFFFFFFFFFFFFFFFFFFFFFFFFFFFFFFFFFFFFFF MUL NOT AND SWAP1 DUP4 PUSH20 0xFFFFFFFFFFFFFFFFFFFFFFFFFFFFFFFFFFFFFFFF AND MUL OR SWAP1 SSTORE POP DUP1 PUSH1 0x1 DUP2 SWAP1 SSTORE POP POP PUSH2 0x2D6 DUP1 PUSH2 0x8E PUSH1 0x0 CODECOPY PUSH1 0x0 RETURN INVALID PUSH1 0x80 PUSH1 0x40 MSTORE PUSH1 0x4 CALLDATASIZE LT PUSH2 0x4A JUMPI PUSH1 0x0 CALLDATALOAD PUSH1 0xE0 SHR DUP1 PUSH4 0x12065FE0 EQ PUSH2 0x4F JUMPI DUP1 PUSH4 0x41C0E1B5 EQ PUSH2 0x7A JUMPI DUP1 PUSH4 0x6878DFA4 EQ PUSH2 0x91 JUMPI DUP1 PUSH4 0x8381F58A EQ PUSH2 0xE8 JUMPI DUP1 PUSH4 0xDAA7FD17 EQ PUSH2 0x113 JUMPI JUMPDEST PUSH1 0x0 DUP1 REVERT JUMPDEST CALLVALUE DUP1 ISZERO PUSH2 0x5B JUMPI PUSH1 0x0 DUP1 REVERT JUMPDEST POP PUSH2 0x64 PUSH2 0x135 JUMP JUMPDEST PUSH1 0x40 MLOAD DUP1 DUP3 DUP2 MSTORE PUSH1 0x20 ADD SWAP2 POP POP PUSH1 0x40 MLOAD DUP1 SWAP2 SUB SWAP1 RETURN JUMPDEST CALLVALUE DUP1 ISZERO PUSH2 0x86 JUMPI PUSH1 0x0 DUP1 REVERT JUMPDEST POP PUSH2 0x8F PUSH2 0x13D JUMP JUMPDEST STOP JUMPDEST CALLVALUE DUP1 ISZERO PUSH2 0x9D JUMPI PUSH1 0x0 DUP1 REVERT JUMPDEST POP PUSH2 0xA6 PUSH2 0x1D0 JUMP JUMPDEST PUSH1 0x40 MLOAD DUP1 DUP3 PUSH20 0xFFFFFFFFFFFFFFFFFFFFFFFFFFFFFFFFFFFFFFFF AND PUSH20 0xFFFFFFFFFFFFFFFFFFFFFFFFFFFFFFFFFFFFFFFF AND DUP2 MSTORE PUSH1 0x20 ADD SWAP2 POP POP PUSH1 0x40 MLOAD DUP1 SWAP2 SUB SWAP1 RETURN JUMPDEST CALLVALUE DUP1 ISZERO PUSH2 0xF4 JUMPI PUSH1 0x0 DUP1 REVERT JUMPDEST POP PUSH2 0xFD PUSH2 0x1F5 JUMP JUMPDEST PUSH1 0x40 MLOAD DUP1 DUP3 DUP2 MSTORE PUSH1 0x20 ADD SWAP2 POP POP PUSH1 0x40 MLOAD DUP1 SWAP2 SUB SWAP1 RETURN JUMPDEST PUSH2 0x11B PUSH2 0x1FB JUMP JUMPDEST PUSH1 0x40 MLOAD DUP1 DUP3 ISZERO ISZERO ISZERO ISZERO DUP2 MSTORE PUSH1 0x20 ADD SWAP2 POP POP PUSH1 0x40 MLOAD DUP1 SWAP2 SUB SWAP1 RETURN JUMPDEST PUSH1 0x0 SELFBALANCE SWAP1 POP SWAP1 JUMP JUMPDEST PUSH1 0x0 DUP1 SWAP1 SLOAD SWAP1 PUSH2 0x100 EXP SWAP1 DIV PUSH20 0xFFFFFFFFFFFFFFFFFFFFFFFFFFFFFFFFFFFFFFFF AND PUSH20 0xFFFFFFFFFFFFFFFFFFFFFFFFFFFFFFFFFFFFFFFF AND CALLER PUSH20 0xFFFFFFFFFFFFFFFFFFFFFFFFFFFFFFFFFFFFFFFF AND EQ PUSH2 0x196 JUMPI PUSH1 0x0 DUP1 REVERT JUMPDEST PUSH1 0x0 DUP1 SWAP1 SLOAD SWAP1 PUSH2 0x100 EXP SWAP1 DIV PUSH20 0xFFFFFFFFFFFFFFFFFFFFFFFFFFFFFFFFFFFFFFFF AND PUSH20 0xFFFFFFFFFFFFFFFFFFFFFFFFFFFFFFFFFFFFFFFF AND SELFDESTRUCT JUMPDEST PUSH1 0x0 DUP1 SWAP1 SLOAD SWAP1 PUSH2 0x100 EXP SWAP1 DIV PUSH20 0xFFFFFFFFFFFFFFFFFFFFFFFFFFFFFFFFFFFFFFFF AND DUP2 JUMP JUMPDEST PUSH1 0x1 SLOAD DUP2 JUMP JUMPDEST PUSH1 0x0 DUP1 PUSH1 0x1 SLOAD GT PUSH2 0x20B JUMPI PUSH1 0x0 DUP1 REVERT JUMPDEST PUSH1 0x0 PUSH2 0x215 PUSH2 0x135 JUMP JUMPDEST GT PUSH2 0x21F JUMPI PUSH1 0x0 DUP1 REVERT JUMPDEST PUSH1 0x1 PUSH1 0x0 DUP2 SLOAD DUP1 SWAP3 SWAP2 SWAP1 PUSH1 0x1 SWAP1 SUB SWAP2 SWAP1 POP SSTORE POP PUSH1 0x0 PUSH1 0xA SWAP1 POP PUSH1 0x0 PUSH2 0x242 PUSH2 0x135 JUMP JUMPDEST SWAP1 POP CALLER PUSH20 0xFFFFFFFFFFFFFFFFFFFFFFFFFFFFFFFFFFFFFFFF AND PUSH2 0x8FC PUSH1 0x64 DUP5 DUP5 MUL DUP2 PUSH2 0x26A JUMPI INVALID JUMPDEST DIV SWAP1 DUP2 ISZERO MUL SWAP1 PUSH1 0x40 MLOAD PUSH1 0x0 PUSH1 0x40 MLOAD DUP1 DUP4 SUB DUP2 DUP6 DUP9 DUP9 CALL SWAP4 POP POP POP POP ISZERO DUP1 ISZERO PUSH2 0x296 JUMPI RETURNDATASIZE PUSH1 0x0 DUP1 RETURNDATACOPY RETURNDATASIZE PUSH1 0x0 REVERT JUMPDEST POP PUSH1 0x1 SWAP3 POP POP POP SWAP1 JUMP INVALID LOG2 PUSH5 0x6970667358 0x22 SLT KECCAK256 0x49 PUSH21 0x239004B6974425C074F043485C0894B5E7EAA5A84B PUSH12 0x34B97CB6489948C964736F6C PUSH4 0x43000601 STOP CALLER "
				},
				"gasEstimates": {
					"creation": {
						"codeDepositCost": "145200",
						"executionCost": "infinite",
						"totalCost": "infinite"
					},
					"external": {
						"getBalance()": "193",
						"kill()": "31850",
						"number()": "1049",
						"stakeMoney()": "infinite",
						"tuhao()": "1075"
					}
				},
				"methodIdentifiers": {
					"getBalance()": "12065fe0",
					"kill()": "41c0e1b5",
					"number()": "8381f58a",
					"stakeMoney()": "daa7fd17",
					"tuhao()": "6878dfa4"
				}
			},
			"storageLayout": {
				"storage": [
					{
						"astId": 3,
						"contract": "11-redpacket.sol:redpacket",
						"label": "tuhao",
						"offset": 0,
						"slot": "0",
						"type": "t_address_payable"
					},
					{
						"astId": 5,
						"contract": "11-redpacket.sol:redpacket",
						"label": "number",
						"offset": 0,
						"slot": "1",
						"type": "t_uint256"
					}
				],
				"types": {
					"t_address_payable": {
						"encoding": "inplace",
						"label": "address payable",
						"numberOfBytes": "20"
					},
					"t_uint256": {
						"encoding": "inplace",
						"label": "uint256",
						"numberOfBytes": "32"
					}
				}
			},
			"userdoc": {
				"methods": {}
			}
		}
	}
}