{
	"Chainlink_test/FundMe.sol": {
		"FundMe": {
			"abi": [
				{
					"inputs": [
						{
							"internalType": "uint256",
							"name": "_lockTime",
							"type": "uint256"
						}
					],
					"stateMutability": "nonpayable",
					"type": "constructor"
				},
				{
					"inputs": [],
					"name": "fund",
					"outputs": [],
					"stateMutability": "payable",
					"type": "function"
				},
				{
					"inputs": [
						{
							"internalType": "address",
							"name": "",
							"type": "address"
						}
					],
					"name": "fundersToAmount",
					"outputs": [
						{
							"internalType": "uint256",
							"name": "",
							"type": "uint256"
						}
					],
					"stateMutability": "view",
					"type": "function"
				},
				{
					"inputs": [],
					"name": "getChainlinkDataFeedLatestAnswer",
					"outputs": [
						{
							"internalType": "int256",
							"name": "",
							"type": "int256"
						}
					],
					"stateMutability": "view",
					"type": "function"
				},
				{
					"inputs": [],
					"name": "getFund",
					"outputs": [],
					"stateMutability": "nonpayable",
					"type": "function"
				},
				{
					"inputs": [],
					"name": "getFundSuccess",
					"outputs": [
						{
							"internalType": "bool",
							"name": "",
							"type": "bool"
						}
					],
					"stateMutability": "view",
					"type": "function"
				},
				{
					"inputs": [],
					"name": "owner",
					"outputs": [
						{
							"internalType": "address",
							"name": "",
							"type": "address"
						}
					],
					"stateMutability": "view",
					"type": "function"
				},
				{
					"inputs": [],
					"name": "refund",
					"outputs": [],
					"stateMutability": "nonpayable",
					"type": "function"
				},
				{
					"inputs": [
						{
							"internalType": "address",
							"name": "_erc20Addr",
							"type": "address"
						}
					],
					"name": "setErc20Addr",
					"outputs": [],
					"stateMutability": "nonpayable",
					"type": "function"
				},
				{
					"inputs": [
						{
							"internalType": "address",
							"name": "funder",
							"type": "address"
						},
						{
							"internalType": "uint256",
							"name": "amountToUpdate",
							"type": "uint256"
						}
					],
					"name": "setFunderToAmount",
					"outputs": [],
					"stateMutability": "nonpayable",
					"type": "function"
				},
				{
					"inputs": [
						{
							"internalType": "address",
							"name": "newOwner",
							"type": "address"
						}
					],
					"name": "transferOwnership",
					"outputs": [],
					"stateMutability": "nonpayable",
					"type": "function"
				}
			],
			"devdoc": {
				"kind": "dev",
				"methods": {},
				"version": 1
			},
			"evm": {
				"assembly": "    /* \"Chainlink_test/FundMe.sol\":378:3751  contract FundMe{... */\n  mstore(0x40, 0x80)\n    /* \"Chainlink_test/FundMe.sol\":721:726  false */\n  0x00\n    /* \"Chainlink_test/FundMe.sol\":692:726  bool public getFundSuccess = false */\n  0x05\n  exp(0x0100, 0x00)\n  dup2\n  sload\n  dup2\n  0xff\n  mul\n  not\n  and\n  swap1\n  dup4\n  iszero\n  iszero\n  mul\n  or\n  swap1\n  sstore\n  pop\n    /* \"Chainlink_test/FundMe.sol\":758:1013  constructor(uint256 _lockTime){... */\n  callvalue\n  dup1\n  iszero\n  tag_1\n  jumpi\n  revert(0x00, 0x00)\ntag_1:\n  pop\n  mload(0x40)\n  sub(codesize, bytecodeSize)\n  dup1\n  bytecodeSize\n  dup4\n  codecopy\n  dup2\n  dup2\n  add\n  0x40\n  mstore\n  dup2\n  add\n  swap1\n  tag_2\n  swap2\n  swap1\n  tag_3\n  jump\t// in\ntag_2:\n    /* \"Chainlink_test/FundMe.sol\":858:900  0x694AA1769357215DE4FAC081bf1f309aDC325306 */\n  0x694aa1769357215de4fac081bf1f309adc325306\n    /* \"Chainlink_test/FundMe.sol\":825:833  dataFeed */\n  0x01\n  0x00\n    /* \"Chainlink_test/FundMe.sol\":825:901  dataFeed = AggregatorV3Interface(0x694AA1769357215DE4FAC081bf1f309aDC325306) */\n  0x0100\n  exp\n  dup2\n  sload\n  dup2\n  0xffffffffffffffffffffffffffffffffffffffff\n  mul\n  not\n  and\n  swap1\n  dup4\n  0xffffffffffffffffffffffffffffffffffffffff\n  and\n  mul\n  or\n  swap1\n  sstore\n  pop\n    /* \"Chainlink_test/FundMe.sol\":919:929  msg.sender */\n  caller\n    /* \"Chainlink_test/FundMe.sol\":911:916  owner */\n  0x02\n  0x00\n    /* \"Chainlink_test/FundMe.sol\":911:929  owner = msg.sender */\n  0x0100\n  exp\n  dup2\n  sload\n  dup2\n  0xffffffffffffffffffffffffffffffffffffffff\n  mul\n  not\n  and\n  swap1\n  dup4\n  0xffffffffffffffffffffffffffffffffffffffff\n  and\n  mul\n  or\n  swap1\n  sstore\n  pop\n    /* \"Chainlink_test/FundMe.sol\":961:976  block.timestamp */\n  timestamp\n    /* \"Chainlink_test/FundMe.sol\":939:958  deploymentTimestamp */\n  0x03\n    /* \"Chainlink_test/FundMe.sol\":939:976  deploymentTimestamp = block.timestamp */\n  dup2\n  swap1\n  sstore\n  pop\n    /* \"Chainlink_test/FundMe.sol\":997:1006  _lockTime */\n  dup1\n    /* \"Chainlink_test/FundMe.sol\":986:994  lockTime */\n  0x04\n    /* \"Chainlink_test/FundMe.sol\":986:1006  lockTime = _lockTime */\n  dup2\n  swap1\n  sstore\n  pop\n    /* \"Chainlink_test/FundMe.sol\":758:1013  constructor(uint256 _lockTime){... */\n  pop\n    /* \"Chainlink_test/FundMe.sol\":378:3751  contract FundMe{... */\n  jump(tag_6)\n    /* \"#utility.yul\":88:205   */\ntag_8:\n    /* \"#utility.yul\":197:198   */\n  0x00\n    /* \"#utility.yul\":194:195   */\n  0x00\n    /* \"#utility.yul\":187:199   */\n  revert\n    /* \"#utility.yul\":334:411   */\ntag_10:\n    /* \"#utility.yul\":371:378   */\n  0x00\n    /* \"#utility.yul\":400:405   */\n  dup2\n    /* \"#utility.yul\":389:405   */\n  swap1\n  pop\n    /* \"#utility.yul\":334:411   */\n  swap2\n  swap1\n  pop\n  jump\t// out\n    /* \"#utility.yul\":417:539   */\ntag_11:\n    /* \"#utility.yul\":490:514   */\n  tag_19\n    /* \"#utility.yul\":508:513   */\n  dup2\n    /* \"#utility.yul\":490:514   */\n  tag_10\n  jump\t// in\ntag_19:\n    /* \"#utility.yul\":483:488   */\n  dup2\n    /* \"#utility.yul\":480:515   */\n  eq\n    /* \"#utility.yul\":470:533   */\n  tag_20\n  jumpi\n    /* \"#utility.yul\":529:530   */\n  0x00\n    /* \"#utility.yul\":526:527   */\n  0x00\n    /* \"#utility.yul\":519:531   */\n  revert\n    /* \"#utility.yul\":470:533   */\ntag_20:\n    /* \"#utility.yul\":417:539   */\n  pop\n  jump\t// out\n    /* \"#utility.yul\":545:688   */\ntag_12:\n    /* \"#utility.yul\":602:607   */\n  0x00\n    /* \"#utility.yul\":633:639   */\n  dup2\n    /* \"#utility.yul\":627:640   */\n  mload\n    /* \"#utility.yul\":618:640   */\n  swap1\n  pop\n    /* \"#utility.yul\":649:682   */\n  tag_22\n    /* \"#utility.yul\":676:681   */\n  dup2\n    /* \"#utility.yul\":649:682   */\n  tag_11\n  jump\t// in\ntag_22:\n    /* \"#utility.yul\":545:688   */\n  swap3\n  swap2\n  pop\n  pop\n  jump\t// out\n    /* \"#utility.yul\":694:1045   */\ntag_3:\n    /* \"#utility.yul\":764:770   */\n  0x00\n    /* \"#utility.yul\":813:815   */\n  0x20\n    /* \"#utility.yul\":801:810   */\n  dup3\n    /* \"#utility.yul\":792:799   */\n  dup5\n    /* \"#utility.yul\":788:811   */\n  sub\n    /* \"#utility.yul\":784:816   */\n  slt\n    /* \"#utility.yul\":781:900   */\n  iszero\n  tag_24\n  jumpi\n    /* \"#utility.yul\":819:898   */\n  tag_25\n  tag_8\n  jump\t// in\ntag_25:\n    /* \"#utility.yul\":781:900   */\ntag_24:\n    /* \"#utility.yul\":939:940   */\n  0x00\n    /* \"#utility.yul\":964:1028   */\n  tag_26\n    /* \"#utility.yul\":1020:1027   */\n  dup5\n    /* \"#utility.yul\":1011:1017   */\n  dup3\n    /* \"#utility.yul\":1000:1009   */\n  dup6\n    /* \"#utility.yul\":996:1018   */\n  add\n    /* \"#utility.yul\":964:1028   */\n  tag_12\n  jump\t// in\ntag_26:\n    /* \"#utility.yul\":954:1028   */\n  swap2\n  pop\n    /* \"#utility.yul\":910:1038   */\n  pop\n    /* \"#utility.yul\":694:1045   */\n  swap3\n  swap2\n  pop\n  pop\n  jump\t// out\n    /* \"Chainlink_test/FundMe.sol\":378:3751  contract FundMe{... */\ntag_6:\n  dataSize(sub_0)\n  dup1\n  dataOffset(sub_0)\n  0x00\n  codecopy\n  0x00\n  return\nstop\n\nsub_0: assembly {\n        /* \"Chainlink_test/FundMe.sol\":378:3751  contract FundMe{... */\n      mstore(0x40, 0x80)\n      jumpi(tag_1, lt(calldatasize, 0x04))\n      shr(0xe0, calldataload(0x00))\n      dup1\n      0xb60d4288\n      gt\n      tag_12\n      jumpi\n      dup1\n      0xb60d4288\n      eq\n      tag_7\n      jumpi\n      dup1\n      0xbea4dfb5\n      eq\n      tag_8\n      jumpi\n      dup1\n      0xd39cf006\n      eq\n      tag_9\n      jumpi\n      dup1\n      0xda4658e0\n      eq\n      tag_10\n      jumpi\n      dup1\n      0xf2fde38b\n      eq\n      tag_11\n      jumpi\n      jump(tag_1)\n    tag_12:\n      dup1\n      0x13ffff01\n      eq\n      tag_2\n      jumpi\n      dup1\n      0x590e1ae3\n      eq\n      tag_3\n      jumpi\n      dup1\n      0x8da5cb5b\n      eq\n      tag_4\n      jumpi\n      dup1\n      0x8edd6eb6\n      eq\n      tag_5\n      jumpi\n      dup1\n      0x9f883a05\n      eq\n      tag_6\n      jumpi\n    tag_1:\n      revert(0x00, 0x00)\n        /* \"Chainlink_test/FundMe.sol\":3382:3480  function setErc20Addr(address _erc20Addr) public onlyOwner {... */\n    tag_2:\n      callvalue\n      dup1\n      iszero\n      tag_13\n      jumpi\n      revert(0x00, 0x00)\n    tag_13:\n      pop\n      tag_14\n      0x04\n      dup1\n      calldatasize\n      sub\n      dup2\n      add\n      swap1\n      tag_15\n      swap2\n      swap1\n      tag_16\n      jump\t// in\n    tag_15:\n      tag_17\n      jump\t// in\n    tag_14:\n      stop\n        /* \"Chainlink_test/FundMe.sol\":2727:3140  function refund() external windowClosed {... */\n    tag_3:\n      callvalue\n      dup1\n      iszero\n      tag_18\n      jumpi\n      revert(0x00, 0x00)\n    tag_18:\n      pop\n      tag_19\n      tag_20\n      jump\t// in\n    tag_19:\n      stop\n        /* \"Chainlink_test/FundMe.sol\":609:629  address public owner */\n    tag_4:\n      callvalue\n      dup1\n      iszero\n      tag_21\n      jumpi\n      revert(0x00, 0x00)\n    tag_21:\n      pop\n      tag_22\n      tag_23\n      jump\t// in\n    tag_22:\n      mload(0x40)\n      tag_24\n      swap2\n      swap1\n      tag_25\n      jump\t// in\n    tag_24:\n      mload(0x40)\n      dup1\n      swap2\n      sub\n      swap1\n      return\n        /* \"Chainlink_test/FundMe.sol\":1950:2720  function getFund() external windowClosed onlyOwner{... */\n    tag_5:\n      callvalue\n      dup1\n      iszero\n      tag_26\n      jumpi\n      revert(0x00, 0x00)\n    tag_26:\n      pop\n      tag_27\n      tag_28\n      jump\t// in\n    tag_27:\n      stop\n        /* \"Chainlink_test/FundMe.sol\":404:454  mapping(address => uint256) public fundersToAmount */\n    tag_6:\n      callvalue\n      dup1\n      iszero\n      tag_29\n      jumpi\n      revert(0x00, 0x00)\n    tag_29:\n      pop\n      tag_30\n      0x04\n      dup1\n      calldatasize\n      sub\n      dup2\n      add\n      swap1\n      tag_31\n      swap2\n      swap1\n      tag_16\n      jump\t// in\n    tag_31:\n      tag_32\n      jump\t// in\n    tag_30:\n      mload(0x40)\n      tag_33\n      swap2\n      swap1\n      tag_34\n      jump\t// in\n    tag_33:\n      mload(0x40)\n      dup1\n      swap2\n      sub\n      swap1\n      return\n        /* \"Chainlink_test/FundMe.sol\":1019:1275  function fund() external payable {... */\n    tag_7:\n      tag_35\n      tag_36\n      jump\t// in\n    tag_35:\n      stop\n        /* \"Chainlink_test/FundMe.sol\":1281:1619  function getChainlinkDataFeedLatestAnswer() public view returns (int) {... */\n    tag_8:\n      callvalue\n      dup1\n      iszero\n      tag_37\n      jumpi\n      revert(0x00, 0x00)\n    tag_37:\n      pop\n      tag_38\n      tag_39\n      jump\t// in\n    tag_38:\n      mload(0x40)\n      tag_40\n      swap2\n      swap1\n      tag_41\n      jump\t// in\n    tag_40:\n      mload(0x40)\n      dup1\n      swap2\n      sub\n      swap1\n      return\n        /* \"Chainlink_test/FundMe.sol\":3150:3376  function setFunderToAmount(address funder, uint256 amountToUpdate) external {... */\n    tag_9:\n      callvalue\n      dup1\n      iszero\n      tag_42\n      jumpi\n      revert(0x00, 0x00)\n    tag_42:\n      pop\n      tag_43\n      0x04\n      dup1\n      calldatasize\n      sub\n      dup2\n      add\n      swap1\n      tag_44\n      swap2\n      swap1\n      tag_45\n      jump\t// in\n    tag_44:\n      tag_46\n      jump\t// in\n    tag_43:\n      stop\n        /* \"Chainlink_test/FundMe.sol\":692:726  bool public getFundSuccess = false */\n    tag_10:\n      callvalue\n      dup1\n      iszero\n      tag_47\n      jumpi\n      revert(0x00, 0x00)\n    tag_47:\n      pop\n      tag_48\n      tag_49\n      jump\t// in\n    tag_48:\n      mload(0x40)\n      tag_50\n      swap2\n      swap1\n      tag_51\n      jump\t// in\n    tag_50:\n      mload(0x40)\n      dup1\n      swap2\n      sub\n      swap1\n      return\n        /* \"Chainlink_test/FundMe.sol\":1850:1944  function transferOwnership(address newOwner) public onlyOwner{... */\n    tag_11:\n      callvalue\n      dup1\n      iszero\n      tag_52\n      jumpi\n      revert(0x00, 0x00)\n    tag_52:\n      pop\n      tag_53\n      0x04\n      dup1\n      calldatasize\n      sub\n      dup2\n      add\n      swap1\n      tag_54\n      swap2\n      swap1\n      tag_16\n      jump\t// in\n    tag_54:\n      tag_55\n      jump\t// in\n    tag_53:\n      stop\n        /* \"Chainlink_test/FundMe.sol\":3382:3480  function setErc20Addr(address _erc20Addr) public onlyOwner {... */\n    tag_17:\n        /* \"Chainlink_test/FundMe.sol\":3679:3684  owner */\n      0x02\n      0x00\n      swap1\n      sload\n      swap1\n      0x0100\n      exp\n      swap1\n      div\n      0xffffffffffffffffffffffffffffffffffffffff\n      and\n        /* \"Chainlink_test/FundMe.sol\":3665:3684  msg.sender == owner */\n      0xffffffffffffffffffffffffffffffffffffffff\n      and\n        /* \"Chainlink_test/FundMe.sol\":3665:3675  msg.sender */\n      caller\n        /* \"Chainlink_test/FundMe.sol\":3665:3684  msg.sender == owner */\n      0xffffffffffffffffffffffffffffffffffffffff\n      and\n      eq\n        /* \"Chainlink_test/FundMe.sol\":3657:3730  require(msg.sender == owner, \"this function can only be called by owner\") */\n      tag_57\n      jumpi\n      mload(0x40)\n      0x08c379a000000000000000000000000000000000000000000000000000000000\n      dup2\n      mstore\n      0x04\n      add\n      tag_58\n      swap1\n      tag_59\n      jump\t// in\n    tag_58:\n      mload(0x40)\n      dup1\n      swap2\n      sub\n      swap1\n      revert\n    tag_57:\n        /* \"Chainlink_test/FundMe.sol\":3463:3473  _erc20Addr */\n      dup1\n        /* \"Chainlink_test/FundMe.sol\":3451:3460  erc20Addr */\n      0x05\n      0x01\n        /* \"Chainlink_test/FundMe.sol\":3451:3473  erc20Addr = _erc20Addr */\n      0x0100\n      exp\n      dup2\n      sload\n      dup2\n      0xffffffffffffffffffffffffffffffffffffffff\n      mul\n      not\n      and\n      swap1\n      dup4\n      0xffffffffffffffffffffffffffffffffffffffff\n      and\n      mul\n      or\n      swap1\n      sstore\n      pop\n        /* \"Chainlink_test/FundMe.sol\":3382:3480  function setErc20Addr(address _erc20Addr) public onlyOwner {... */\n      pop\n      jump\t// out\n        /* \"Chainlink_test/FundMe.sol\":2727:3140  function refund() external windowClosed {... */\n    tag_20:\n        /* \"Chainlink_test/FundMe.sol\":3569:3577  lockTime */\n      sload(0x04)\n        /* \"Chainlink_test/FundMe.sol\":3547:3566  deploymentTimestamp */\n      sload(0x03)\n        /* \"Chainlink_test/FundMe.sol\":3547:3577  deploymentTimestamp + lockTime */\n      tag_62\n      swap2\n      swap1\n      tag_63\n      jump\t// in\n    tag_62:\n        /* \"Chainlink_test/FundMe.sol\":3528:3543  block.timestamp */\n      timestamp\n        /* \"Chainlink_test/FundMe.sol\":3528:3577  block.timestamp >= deploymentTimestamp + lockTime */\n      lt\n      iszero\n        /* \"Chainlink_test/FundMe.sol\":3520:3602  require(block.timestamp >= deploymentTimestamp + lockTime, \"window is not closed\") */\n      tag_64\n      jumpi\n      mload(0x40)\n      0x08c379a000000000000000000000000000000000000000000000000000000000\n      dup2\n      mstore\n      0x04\n      add\n      tag_65\n      swap1\n      tag_66\n      jump\t// in\n    tag_65:\n      mload(0x40)\n      dup1\n      swap2\n      sub\n      swap1\n      revert\n    tag_64:\n        /* \"Chainlink_test/FundMe.sol\":589:602  10 * 10 ** 18 */\n      0x8ac7230489e80000\n        /* \"Chainlink_test/FundMe.sol\":2785:2823  convertEthToUsd(address(this).balance) */\n      tag_68\n        /* \"Chainlink_test/FundMe.sol\":2801:2822  address(this).balance */\n      selfbalance\n        /* \"Chainlink_test/FundMe.sol\":2785:2800  convertEthToUsd */\n      tag_69\n        /* \"Chainlink_test/FundMe.sol\":2785:2823  convertEthToUsd(address(this).balance) */\n      jump\t// in\n    tag_68:\n        /* \"Chainlink_test/FundMe.sol\":2785:2833  convertEthToUsd(address(this).balance) >= TARGET */\n      lt\n      iszero\n        /* \"Chainlink_test/FundMe.sol\":2777:2855  require(convertEthToUsd(address(this).balance) >= TARGET, \"Target is reached\") */\n      tag_70\n      jumpi\n      mload(0x40)\n      0x08c379a000000000000000000000000000000000000000000000000000000000\n      dup2\n      mstore\n      0x04\n      add\n      tag_71\n      swap1\n      tag_72\n      jump\t// in\n    tag_71:\n      mload(0x40)\n      dup1\n      swap2\n      sub\n      swap1\n      revert\n    tag_70:\n        /* \"Chainlink_test/FundMe.sol\":2904:2905  0 */\n      0x00\n        /* \"Chainlink_test/FundMe.sol\":2873:2888  fundersToAmount */\n      0x00\n        /* \"Chainlink_test/FundMe.sol\":2873:2900  fundersToAmount[msg.sender] */\n      0x00\n        /* \"Chainlink_test/FundMe.sol\":2889:2899  msg.sender */\n      caller\n        /* \"Chainlink_test/FundMe.sol\":2873:2900  fundersToAmount[msg.sender] */\n      0xffffffffffffffffffffffffffffffffffffffff\n      and\n      0xffffffffffffffffffffffffffffffffffffffff\n      and\n      dup2\n      mstore\n      0x20\n      add\n      swap1\n      dup2\n      mstore\n      0x20\n      add\n      0x00\n      keccak256\n      sload\n        /* \"Chainlink_test/FundMe.sol\":2873:2905  fundersToAmount[msg.sender] != 0 */\n      sub\n        /* \"Chainlink_test/FundMe.sol\":2865:2934  require(fundersToAmount[msg.sender] != 0, \"there is no fund for you\") */\n      tag_73\n      jumpi\n      mload(0x40)\n      0x08c379a000000000000000000000000000000000000000000000000000000000\n      dup2\n      mstore\n      0x04\n      add\n      tag_74\n      swap1\n      tag_75\n      jump\t// in\n    tag_74:\n      mload(0x40)\n      dup1\n      swap2\n      sub\n      swap1\n      revert\n    tag_73:\n        /* \"Chainlink_test/FundMe.sol\":2944:2956  bool success */\n      0x00\n        /* \"Chainlink_test/FundMe.sol\":2988:2998  msg.sender */\n      caller\n        /* \"Chainlink_test/FundMe.sol\":2980:3004  payable(msg.sender).call */\n      0xffffffffffffffffffffffffffffffffffffffff\n      and\n        /* \"Chainlink_test/FundMe.sol\":3012:3027  fundersToAmount */\n      0x00\n        /* \"Chainlink_test/FundMe.sol\":3012:3039  fundersToAmount[msg.sender] */\n      0x00\n        /* \"Chainlink_test/FundMe.sol\":3028:3038  msg.sender */\n      caller\n        /* \"Chainlink_test/FundMe.sol\":3012:3039  fundersToAmount[msg.sender] */\n      0xffffffffffffffffffffffffffffffffffffffff\n      and\n      0xffffffffffffffffffffffffffffffffffffffff\n      and\n      dup2\n      mstore\n      0x20\n      add\n      swap1\n      dup2\n      mstore\n      0x20\n      add\n      0x00\n      keccak256\n      sload\n        /* \"Chainlink_test/FundMe.sol\":2980:3044  payable(msg.sender).call{value: fundersToAmount[msg.sender]}(\"\") */\n      mload(0x40)\n      tag_76\n      swap1\n      tag_77\n      jump\t// in\n    tag_76:\n      0x00\n      mload(0x40)\n      dup1\n      dup4\n      sub\n      dup2\n      dup6\n      dup8\n      gas\n      call\n      swap3\n      pop\n      pop\n      pop\n      returndatasize\n      dup1\n      0x00\n      dup2\n      eq\n      tag_80\n      jumpi\n      mload(0x40)\n      swap2\n      pop\n      and(add(returndatasize, 0x3f), not(0x1f))\n      dup3\n      add\n      0x40\n      mstore\n      returndatasize\n      dup3\n      mstore\n      returndatasize\n      0x00\n      0x20\n      dup5\n      add\n      returndatacopy\n      jump(tag_79)\n    tag_80:\n      0x60\n      swap2\n      pop\n    tag_79:\n      pop\n        /* \"Chainlink_test/FundMe.sol\":2966:3044  (success, ) = payable(msg.sender).call{value: fundersToAmount[msg.sender]}(\"\") */\n      pop\n      dup1\n      swap2\n      pop\n      pop\n        /* \"Chainlink_test/FundMe.sol\":3062:3069  success */\n      dup1\n        /* \"Chainlink_test/FundMe.sol\":3054:3092  require(success, \"transfer tx failed\") */\n      tag_81\n      jumpi\n      mload(0x40)\n      0x08c379a000000000000000000000000000000000000000000000000000000000\n      dup2\n      mstore\n      0x04\n      add\n      tag_82\n      swap1\n      tag_83\n      jump\t// in\n    tag_82:\n      mload(0x40)\n      dup1\n      swap2\n      sub\n      swap1\n      revert\n    tag_81:\n        /* \"Chainlink_test/FundMe.sol\":3132:3133  0 */\n      0x00\n        /* \"Chainlink_test/FundMe.sol\":3102:3117  fundersToAmount */\n      0x00\n        /* \"Chainlink_test/FundMe.sol\":3102:3129  fundersToAmount[msg.sender] */\n      0x00\n        /* \"Chainlink_test/FundMe.sol\":3118:3128  msg.sender */\n      caller\n        /* \"Chainlink_test/FundMe.sol\":3102:3129  fundersToAmount[msg.sender] */\n      0xffffffffffffffffffffffffffffffffffffffff\n      and\n      0xffffffffffffffffffffffffffffffffffffffff\n      and\n      dup2\n      mstore\n      0x20\n      add\n      swap1\n      dup2\n      mstore\n      0x20\n      add\n      0x00\n      keccak256\n        /* \"Chainlink_test/FundMe.sol\":3102:3133  fundersToAmount[msg.sender] = 0 */\n      dup2\n      swap1\n      sstore\n      pop\n        /* \"Chainlink_test/FundMe.sol\":2767:3140  {... */\n      pop\n        /* \"Chainlink_test/FundMe.sol\":2727:3140  function refund() external windowClosed {... */\n      jump\t// out\n        /* \"Chainlink_test/FundMe.sol\":609:629  address public owner */\n    tag_23:\n      0x02\n      0x00\n      swap1\n      sload\n      swap1\n      0x0100\n      exp\n      swap1\n      div\n      0xffffffffffffffffffffffffffffffffffffffff\n      and\n      dup2\n      jump\t// out\n        /* \"Chainlink_test/FundMe.sol\":1950:2720  function getFund() external windowClosed onlyOwner{... */\n    tag_28:\n        /* \"Chainlink_test/FundMe.sol\":3569:3577  lockTime */\n      sload(0x04)\n        /* \"Chainlink_test/FundMe.sol\":3547:3566  deploymentTimestamp */\n      sload(0x03)\n        /* \"Chainlink_test/FundMe.sol\":3547:3577  deploymentTimestamp + lockTime */\n      tag_85\n      swap2\n      swap1\n      tag_63\n      jump\t// in\n    tag_85:\n        /* \"Chainlink_test/FundMe.sol\":3528:3543  block.timestamp */\n      timestamp\n        /* \"Chainlink_test/FundMe.sol\":3528:3577  block.timestamp >= deploymentTimestamp + lockTime */\n      lt\n      iszero\n        /* \"Chainlink_test/FundMe.sol\":3520:3602  require(block.timestamp >= deploymentTimestamp + lockTime, \"window is not closed\") */\n      tag_86\n      jumpi\n      mload(0x40)\n      0x08c379a000000000000000000000000000000000000000000000000000000000\n      dup2\n      mstore\n      0x04\n      add\n      tag_87\n      swap1\n      tag_66\n      jump\t// in\n    tag_87:\n      mload(0x40)\n      dup1\n      swap2\n      sub\n      swap1\n      revert\n    tag_86:\n        /* \"Chainlink_test/FundMe.sol\":3679:3684  owner */\n      0x02\n      0x00\n      swap1\n      sload\n      swap1\n      0x0100\n      exp\n      swap1\n      div\n      0xffffffffffffffffffffffffffffffffffffffff\n      and\n        /* \"Chainlink_test/FundMe.sol\":3665:3684  msg.sender == owner */\n      0xffffffffffffffffffffffffffffffffffffffff\n      and\n        /* \"Chainlink_test/FundMe.sol\":3665:3675  msg.sender */\n      caller\n        /* \"Chainlink_test/FundMe.sol\":3665:3684  msg.sender == owner */\n      0xffffffffffffffffffffffffffffffffffffffff\n      and\n      eq\n        /* \"Chainlink_test/FundMe.sol\":3657:3730  require(msg.sender == owner, \"this function can only be called by owner\") */\n      tag_89\n      jumpi\n      mload(0x40)\n      0x08c379a000000000000000000000000000000000000000000000000000000000\n      dup2\n      mstore\n      0x04\n      add\n      tag_90\n      swap1\n      tag_59\n      jump\t// in\n    tag_90:\n      mload(0x40)\n      dup1\n      swap2\n      sub\n      swap1\n      revert\n    tag_89:\n        /* \"Chainlink_test/FundMe.sol\":589:602  10 * 10 ** 18 */\n      0x8ac7230489e80000\n        /* \"Chainlink_test/FundMe.sol\":2018:2056  convertEthToUsd(address(this).balance) */\n      tag_92\n        /* \"Chainlink_test/FundMe.sol\":2034:2055  address(this).balance */\n      selfbalance\n        /* \"Chainlink_test/FundMe.sol\":2018:2033  convertEthToUsd */\n      tag_69\n        /* \"Chainlink_test/FundMe.sol\":2018:2056  convertEthToUsd(address(this).balance) */\n      jump\t// in\n    tag_92:\n        /* \"Chainlink_test/FundMe.sol\":2018:2066  convertEthToUsd(address(this).balance) >= TARGET */\n      lt\n      iszero\n        /* \"Chainlink_test/FundMe.sol\":2010:2092  require(convertEthToUsd(address(this).balance) >= TARGET, \"Target is not reached\") */\n      tag_93\n      jumpi\n      mload(0x40)\n      0x08c379a000000000000000000000000000000000000000000000000000000000\n      dup2\n      mstore\n      0x04\n      add\n      tag_94\n      swap1\n      tag_95\n      jump\t// in\n    tag_94:\n      mload(0x40)\n      dup1\n      swap2\n      sub\n      swap1\n      revert\n    tag_93:\n        /* \"Chainlink_test/FundMe.sol\":2491:2503  bool success */\n      0x00\n        /* \"Chainlink_test/FundMe.sol\":2535:2545  msg.sender */\n      caller\n        /* \"Chainlink_test/FundMe.sol\":2527:2551  payable(msg.sender).call */\n      0xffffffffffffffffffffffffffffffffffffffff\n      and\n        /* \"Chainlink_test/FundMe.sol\":2559:2580  address(this).balance */\n      selfbalance\n        /* \"Chainlink_test/FundMe.sol\":2527:2585  payable(msg.sender).call{value: address(this).balance}(\"\") */\n      mload(0x40)\n      tag_96\n      swap1\n      tag_77\n      jump\t// in\n    tag_96:\n      0x00\n      mload(0x40)\n      dup1\n      dup4\n      sub\n      dup2\n      dup6\n      dup8\n      gas\n      call\n      swap3\n      pop\n      pop\n      pop\n      returndatasize\n      dup1\n      0x00\n      dup2\n      eq\n      tag_99\n      jumpi\n      mload(0x40)\n      swap2\n      pop\n      and(add(returndatasize, 0x3f), not(0x1f))\n      dup3\n      add\n      0x40\n      mstore\n      returndatasize\n      dup3\n      mstore\n      returndatasize\n      0x00\n      0x20\n      dup5\n      add\n      returndatacopy\n      jump(tag_98)\n    tag_99:\n      0x60\n      swap2\n      pop\n    tag_98:\n      pop\n        /* \"Chainlink_test/FundMe.sol\":2513:2585  (success, ) = payable(msg.sender).call{value: address(this).balance}(\"\") */\n      pop\n      dup1\n      swap2\n      pop\n      pop\n        /* \"Chainlink_test/FundMe.sol\":2603:2610  success */\n      dup1\n        /* \"Chainlink_test/FundMe.sol\":2595:2633  require(success, \"transfer tx failed\") */\n      tag_100\n      jumpi\n      mload(0x40)\n      0x08c379a000000000000000000000000000000000000000000000000000000000\n      dup2\n      mstore\n      0x04\n      add\n      tag_101\n      swap1\n      tag_83\n      jump\t// in\n    tag_101:\n      mload(0x40)\n      dup1\n      swap2\n      sub\n      swap1\n      revert\n    tag_100:\n        /* \"Chainlink_test/FundMe.sol\":2673:2674  0 */\n      0x00\n        /* \"Chainlink_test/FundMe.sol\":2643:2658  fundersToAmount */\n      0x00\n        /* \"Chainlink_test/FundMe.sol\":2643:2670  fundersToAmount[msg.sender] */\n      0x00\n        /* \"Chainlink_test/FundMe.sol\":2659:2669  msg.sender */\n      caller\n        /* \"Chainlink_test/FundMe.sol\":2643:2670  fundersToAmount[msg.sender] */\n      0xffffffffffffffffffffffffffffffffffffffff\n      and\n      0xffffffffffffffffffffffffffffffffffffffff\n      and\n      dup2\n      mstore\n      0x20\n      add\n      swap1\n      dup2\n      mstore\n      0x20\n      add\n      0x00\n      keccak256\n        /* \"Chainlink_test/FundMe.sol\":2643:2674  fundersToAmount[msg.sender] = 0 */\n      dup2\n      swap1\n      sstore\n      pop\n        /* \"Chainlink_test/FundMe.sol\":2701:2705  true */\n      0x01\n        /* \"Chainlink_test/FundMe.sol\":2684:2698  getFundSuccess */\n      0x05\n      0x00\n        /* \"Chainlink_test/FundMe.sol\":2684:2705  getFundSuccess = true */\n      0x0100\n      exp\n      dup2\n      sload\n      dup2\n      0xff\n      mul\n      not\n      and\n      swap1\n      dup4\n      iszero\n      iszero\n      mul\n      or\n      swap1\n      sstore\n      pop\n        /* \"Chainlink_test/FundMe.sol\":2000:2720  {... */\n      pop\n        /* \"Chainlink_test/FundMe.sol\":1950:2720  function getFund() external windowClosed onlyOwner{... */\n      jump\t// out\n        /* \"Chainlink_test/FundMe.sol\":404:454  mapping(address => uint256) public fundersToAmount */\n    tag_32:\n      mstore(0x20, 0x00)\n      dup1\n      0x00\n      mstore\n      keccak256(0x00, 0x40)\n      0x00\n      swap2\n      pop\n      swap1\n      pop\n      sload\n      dup2\n      jump\t// out\n        /* \"Chainlink_test/FundMe.sol\":1019:1275  function fund() external payable {... */\n    tag_36:\n        /* \"Chainlink_test/FundMe.sol\":494:506  1 * 10 ** 18 */\n      0x0de0b6b3a7640000\n        /* \"Chainlink_test/FundMe.sol\":1070:1096  convertEthToUsd(msg.value) */\n      tag_103\n        /* \"Chainlink_test/FundMe.sol\":1086:1095  msg.value */\n      callvalue\n        /* \"Chainlink_test/FundMe.sol\":1070:1085  convertEthToUsd */\n      tag_69\n        /* \"Chainlink_test/FundMe.sol\":1070:1096  convertEthToUsd(msg.value) */\n      jump\t// in\n    tag_103:\n        /* \"Chainlink_test/FundMe.sol\":1070:1113  convertEthToUsd(msg.value) >= MINIMUM_VALUE */\n      lt\n      iszero\n        /* \"Chainlink_test/FundMe.sol\":1062:1131  require(convertEthToUsd(msg.value) >= MINIMUM_VALUE, \"Send more ETH\") */\n      tag_104\n      jumpi\n      mload(0x40)\n      0x08c379a000000000000000000000000000000000000000000000000000000000\n      dup2\n      mstore\n      0x04\n      add\n      tag_105\n      swap1\n      tag_106\n      jump\t// in\n    tag_105:\n      mload(0x40)\n      dup1\n      swap2\n      sub\n      swap1\n      revert\n    tag_104:\n        /* \"Chainlink_test/FundMe.sol\":1189:1197  lockTime */\n      sload(0x04)\n        /* \"Chainlink_test/FundMe.sol\":1167:1186  deploymentTimestamp */\n      sload(0x03)\n        /* \"Chainlink_test/FundMe.sol\":1167:1197  deploymentTimestamp + lockTime */\n      tag_107\n      swap2\n      swap1\n      tag_63\n      jump\t// in\n    tag_107:\n        /* \"Chainlink_test/FundMe.sol\":1149:1164  block.timestamp */\n      timestamp\n        /* \"Chainlink_test/FundMe.sol\":1149:1197  block.timestamp < deploymentTimestamp + lockTime */\n      lt\n        /* \"Chainlink_test/FundMe.sol\":1141:1218  require(block.timestamp < deploymentTimestamp + lockTime, \"window is closed\") */\n      tag_108\n      jumpi\n      mload(0x40)\n      0x08c379a000000000000000000000000000000000000000000000000000000000\n      dup2\n      mstore\n      0x04\n      add\n      tag_109\n      swap1\n      tag_110\n      jump\t// in\n    tag_109:\n      mload(0x40)\n      dup1\n      swap2\n      sub\n      swap1\n      revert\n    tag_108:\n        /* \"Chainlink_test/FundMe.sol\":1259:1268  msg.value */\n      callvalue\n        /* \"Chainlink_test/FundMe.sol\":1228:1243  fundersToAmount */\n      0x00\n        /* \"Chainlink_test/FundMe.sol\":1228:1255  fundersToAmount[msg.sender] */\n      0x00\n        /* \"Chainlink_test/FundMe.sol\":1244:1254  msg.sender */\n      caller\n        /* \"Chainlink_test/FundMe.sol\":1228:1255  fundersToAmount[msg.sender] */\n      0xffffffffffffffffffffffffffffffffffffffff\n      and\n      0xffffffffffffffffffffffffffffffffffffffff\n      and\n      dup2\n      mstore\n      0x20\n      add\n      swap1\n      dup2\n      mstore\n      0x20\n      add\n      0x00\n      keccak256\n      0x00\n        /* \"Chainlink_test/FundMe.sol\":1228:1268  fundersToAmount[msg.sender] += msg.value */\n      dup3\n      dup3\n      sload\n      tag_111\n      swap2\n      swap1\n      tag_63\n      jump\t// in\n    tag_111:\n      swap3\n      pop\n      pop\n      dup2\n      swap1\n      sstore\n      pop\n        /* \"Chainlink_test/FundMe.sol\":1019:1275  function fund() external payable {... */\n      jump\t// out\n        /* \"Chainlink_test/FundMe.sol\":1281:1619  function getChainlinkDataFeedLatestAnswer() public view returns (int) {... */\n    tag_39:\n        /* \"Chainlink_test/FundMe.sol\":1346:1349  int */\n      0x00\n        /* \"Chainlink_test/FundMe.sol\":1436:1446  int answer */\n      0x00\n        /* \"Chainlink_test/FundMe.sol\":1563:1571  dataFeed */\n      0x01\n      0x00\n      swap1\n      sload\n      swap1\n      0x0100\n      exp\n      swap1\n      div\n      0xffffffffffffffffffffffffffffffffffffffff\n      and\n        /* \"Chainlink_test/FundMe.sol\":1563:1587  dataFeed.latestRoundData */\n      0xffffffffffffffffffffffffffffffffffffffff\n      and\n      0xfeaf968c\n        /* \"Chainlink_test/FundMe.sol\":1563:1589  dataFeed.latestRoundData() */\n      mload(0x40)\n      dup2\n      0xffffffff\n      and\n      0xe0\n      shl\n      dup2\n      mstore\n      0x04\n      add\n      0xa0\n      mload(0x40)\n      dup1\n      dup4\n      sub\n      dup2\n      dup7\n      gas\n      staticcall\n      iszero\n      dup1\n      iszero\n      tag_114\n      jumpi\n      returndatacopy(0x00, 0x00, returndatasize)\n      revert(0x00, returndatasize)\n    tag_114:\n      pop\n      pop\n      pop\n      pop\n      mload(0x40)\n      returndatasize\n      not(0x1f)\n      0x1f\n      dup3\n      add\n      and\n      dup3\n      add\n      dup1\n      0x40\n      mstore\n      pop\n      dup2\n      add\n      swap1\n      tag_115\n      swap2\n      swap1\n      tag_116\n      jump\t// in\n    tag_115:\n        /* \"Chainlink_test/FundMe.sol\":1388:1589  (... */\n      pop\n      pop\n      pop\n      swap2\n      pop\n      pop\n        /* \"Chainlink_test/FundMe.sol\":1606:1612  answer */\n      dup1\n        /* \"Chainlink_test/FundMe.sol\":1599:1612  return answer */\n      swap2\n      pop\n      pop\n        /* \"Chainlink_test/FundMe.sol\":1281:1619  function getChainlinkDataFeedLatestAnswer() public view returns (int) {... */\n      swap1\n      jump\t// out\n        /* \"Chainlink_test/FundMe.sol\":3150:3376  function setFunderToAmount(address funder, uint256 amountToUpdate) external {... */\n    tag_46:\n        /* \"Chainlink_test/FundMe.sol\":3258:3267  erc20Addr */\n      0x05\n      0x01\n      swap1\n      sload\n      swap1\n      0x0100\n      exp\n      swap1\n      div\n      0xffffffffffffffffffffffffffffffffffffffff\n      and\n        /* \"Chainlink_test/FundMe.sol\":3244:3267  msg.sender == erc20Addr */\n      0xffffffffffffffffffffffffffffffffffffffff\n      and\n        /* \"Chainlink_test/FundMe.sol\":3244:3254  msg.sender */\n      caller\n        /* \"Chainlink_test/FundMe.sol\":3244:3267  msg.sender == erc20Addr */\n      0xffffffffffffffffffffffffffffffffffffffff\n      and\n      eq\n        /* \"Chainlink_test/FundMe.sol\":3236:3319  require(msg.sender == erc20Addr, \"you do not have permission to call this funtion\") */\n      tag_118\n      jumpi\n      mload(0x40)\n      0x08c379a000000000000000000000000000000000000000000000000000000000\n      dup2\n      mstore\n      0x04\n      add\n      tag_119\n      swap1\n      tag_120\n      jump\t// in\n    tag_119:\n      mload(0x40)\n      dup1\n      swap2\n      sub\n      swap1\n      revert\n    tag_118:\n        /* \"Chainlink_test/FundMe.sol\":3355:3369  amountToUpdate */\n      dup1\n        /* \"Chainlink_test/FundMe.sol\":3329:3344  fundersToAmount */\n      0x00\n        /* \"Chainlink_test/FundMe.sol\":3329:3352  fundersToAmount[funder] */\n      0x00\n        /* \"Chainlink_test/FundMe.sol\":3345:3351  funder */\n      dup5\n        /* \"Chainlink_test/FundMe.sol\":3329:3352  fundersToAmount[funder] */\n      0xffffffffffffffffffffffffffffffffffffffff\n      and\n      0xffffffffffffffffffffffffffffffffffffffff\n      and\n      dup2\n      mstore\n      0x20\n      add\n      swap1\n      dup2\n      mstore\n      0x20\n      add\n      0x00\n      keccak256\n        /* \"Chainlink_test/FundMe.sol\":3329:3369  fundersToAmount[funder] = amountToUpdate */\n      dup2\n      swap1\n      sstore\n      pop\n        /* \"Chainlink_test/FundMe.sol\":3150:3376  function setFunderToAmount(address funder, uint256 amountToUpdate) external {... */\n      pop\n      pop\n      jump\t// out\n        /* \"Chainlink_test/FundMe.sol\":692:726  bool public getFundSuccess = false */\n    tag_49:\n      0x05\n      0x00\n      swap1\n      sload\n      swap1\n      0x0100\n      exp\n      swap1\n      div\n      0xff\n      and\n      dup2\n      jump\t// out\n        /* \"Chainlink_test/FundMe.sol\":1850:1944  function transferOwnership(address newOwner) public onlyOwner{... */\n    tag_55:\n        /* \"Chainlink_test/FundMe.sol\":3679:3684  owner */\n      0x02\n      0x00\n      swap1\n      sload\n      swap1\n      0x0100\n      exp\n      swap1\n      div\n      0xffffffffffffffffffffffffffffffffffffffff\n      and\n        /* \"Chainlink_test/FundMe.sol\":3665:3684  msg.sender == owner */\n      0xffffffffffffffffffffffffffffffffffffffff\n      and\n        /* \"Chainlink_test/FundMe.sol\":3665:3675  msg.sender */\n      caller\n        /* \"Chainlink_test/FundMe.sol\":3665:3684  msg.sender == owner */\n      0xffffffffffffffffffffffffffffffffffffffff\n      and\n      eq\n        /* \"Chainlink_test/FundMe.sol\":3657:3730  require(msg.sender == owner, \"this function can only be called by owner\") */\n      tag_122\n      jumpi\n      mload(0x40)\n      0x08c379a000000000000000000000000000000000000000000000000000000000\n      dup2\n      mstore\n      0x04\n      add\n      tag_123\n      swap1\n      tag_59\n      jump\t// in\n    tag_123:\n      mload(0x40)\n      dup1\n      swap2\n      sub\n      swap1\n      revert\n    tag_122:\n        /* \"Chainlink_test/FundMe.sol\":1929:1937  newOwner */\n      dup1\n        /* \"Chainlink_test/FundMe.sol\":1921:1926  owner */\n      0x02\n      0x00\n        /* \"Chainlink_test/FundMe.sol\":1921:1937  owner = newOwner */\n      0x0100\n      exp\n      dup2\n      sload\n      dup2\n      0xffffffffffffffffffffffffffffffffffffffff\n      mul\n      not\n      and\n      swap1\n      dup4\n      0xffffffffffffffffffffffffffffffffffffffff\n      and\n      mul\n      or\n      swap1\n      sstore\n      pop\n        /* \"Chainlink_test/FundMe.sol\":1850:1944  function transferOwnership(address newOwner) public onlyOwner{... */\n      pop\n      jump\t// out\n        /* \"Chainlink_test/FundMe.sol\":1642:1844  function convertEthToUsd(uint256 ethAmount) internal view returns(uint256){... */\n    tag_69:\n        /* \"Chainlink_test/FundMe.sol\":1708:1715  uint256 */\n      0x00\n        /* \"Chainlink_test/FundMe.sol\":1726:1742  uint256 ethPrice */\n      0x00\n        /* \"Chainlink_test/FundMe.sol\":1753:1787  getChainlinkDataFeedLatestAnswer() */\n      tag_126\n        /* \"Chainlink_test/FundMe.sol\":1753:1785  getChainlinkDataFeedLatestAnswer */\n      tag_39\n        /* \"Chainlink_test/FundMe.sol\":1753:1787  getChainlinkDataFeedLatestAnswer() */\n      jump\t// in\n    tag_126:\n        /* \"Chainlink_test/FundMe.sol\":1726:1788  uint256 ethPrice = uint256(getChainlinkDataFeedLatestAnswer()) */\n      swap1\n      pop\n        /* \"Chainlink_test/FundMe.sol\":1829:1836  10 ** 8 */\n      0x05f5e100\n        /* \"Chainlink_test/FundMe.sol\":1817:1825  ethPrice */\n      dup2\n        /* \"Chainlink_test/FundMe.sol\":1805:1814  ethAmount */\n      dup5\n        /* \"Chainlink_test/FundMe.sol\":1805:1825  ethAmount * ethPrice */\n      tag_127\n      swap2\n      swap1\n      tag_128\n      jump\t// in\n    tag_127:\n        /* \"Chainlink_test/FundMe.sol\":1805:1837  ethAmount * ethPrice / (10 ** 8) */\n      tag_129\n      swap2\n      swap1\n      tag_130\n      jump\t// in\n    tag_129:\n        /* \"Chainlink_test/FundMe.sol\":1798:1837  return ethAmount * ethPrice / (10 ** 8) */\n      swap2\n      pop\n      pop\n        /* \"Chainlink_test/FundMe.sol\":1642:1844  function convertEthToUsd(uint256 ethAmount) internal view returns(uint256){... */\n      swap2\n      swap1\n      pop\n      jump\t// out\n        /* \"#utility.yul\":88:205   */\n    tag_132:\n        /* \"#utility.yul\":197:198   */\n      0x00\n        /* \"#utility.yul\":194:195   */\n      0x00\n        /* \"#utility.yul\":187:199   */\n      revert\n        /* \"#utility.yul\":334:460   */\n    tag_134:\n        /* \"#utility.yul\":371:378   */\n      0x00\n        /* \"#utility.yul\":411:453   */\n      0xffffffffffffffffffffffffffffffffffffffff\n        /* \"#utility.yul\":404:409   */\n      dup3\n        /* \"#utility.yul\":400:454   */\n      and\n        /* \"#utility.yul\":389:454   */\n      swap1\n      pop\n        /* \"#utility.yul\":334:460   */\n      swap2\n      swap1\n      pop\n      jump\t// out\n        /* \"#utility.yul\":466:562   */\n    tag_135:\n        /* \"#utility.yul\":503:510   */\n      0x00\n        /* \"#utility.yul\":532:556   */\n      tag_183\n        /* \"#utility.yul\":550:555   */\n      dup3\n        /* \"#utility.yul\":532:556   */\n      tag_134\n      jump\t// in\n    tag_183:\n        /* \"#utility.yul\":521:556   */\n      swap1\n      pop\n        /* \"#utility.yul\":466:562   */\n      swap2\n      swap1\n      pop\n      jump\t// out\n        /* \"#utility.yul\":568:690   */\n    tag_136:\n        /* \"#utility.yul\":641:665   */\n      tag_185\n        /* \"#utility.yul\":659:664   */\n      dup2\n        /* \"#utility.yul\":641:665   */\n      tag_135\n      jump\t// in\n    tag_185:\n        /* \"#utility.yul\":634:639   */\n      dup2\n        /* \"#utility.yul\":631:666   */\n      eq\n        /* \"#utility.yul\":621:684   */\n      tag_186\n      jumpi\n        /* \"#utility.yul\":680:681   */\n      0x00\n        /* \"#utility.yul\":677:678   */\n      0x00\n        /* \"#utility.yul\":670:682   */\n      revert\n        /* \"#utility.yul\":621:684   */\n    tag_186:\n        /* \"#utility.yul\":568:690   */\n      pop\n      jump\t// out\n        /* \"#utility.yul\":696:835   */\n    tag_137:\n        /* \"#utility.yul\":742:747   */\n      0x00\n        /* \"#utility.yul\":780:786   */\n      dup2\n        /* \"#utility.yul\":767:787   */\n      calldataload\n        /* \"#utility.yul\":758:787   */\n      swap1\n      pop\n        /* \"#utility.yul\":796:829   */\n      tag_188\n        /* \"#utility.yul\":823:828   */\n      dup2\n        /* \"#utility.yul\":796:829   */\n      tag_136\n      jump\t// in\n    tag_188:\n        /* \"#utility.yul\":696:835   */\n      swap3\n      swap2\n      pop\n      pop\n      jump\t// out\n        /* \"#utility.yul\":841:1170   */\n    tag_16:\n        /* \"#utility.yul\":900:906   */\n      0x00\n        /* \"#utility.yul\":949:951   */\n      0x20\n        /* \"#utility.yul\":937:946   */\n      dup3\n        /* \"#utility.yul\":928:935   */\n      dup5\n        /* \"#utility.yul\":924:947   */\n      sub\n        /* \"#utility.yul\":920:952   */\n      slt\n        /* \"#utility.yul\":917:1036   */\n      iszero\n      tag_190\n      jumpi\n        /* \"#utility.yul\":955:1034   */\n      tag_191\n      tag_132\n      jump\t// in\n    tag_191:\n        /* \"#utility.yul\":917:1036   */\n    tag_190:\n        /* \"#utility.yul\":1075:1076   */\n      0x00\n        /* \"#utility.yul\":1100:1153   */\n      tag_192\n        /* \"#utility.yul\":1145:1152   */\n      dup5\n        /* \"#utility.yul\":1136:1142   */\n      dup3\n        /* \"#utility.yul\":1125:1134   */\n      dup6\n        /* \"#utility.yul\":1121:1143   */\n      add\n        /* \"#utility.yul\":1100:1153   */\n      tag_137\n      jump\t// in\n    tag_192:\n        /* \"#utility.yul\":1090:1153   */\n      swap2\n      pop\n        /* \"#utility.yul\":1046:1163   */\n      pop\n        /* \"#utility.yul\":841:1170   */\n      swap3\n      swap2\n      pop\n      pop\n      jump\t// out\n        /* \"#utility.yul\":1176:1294   */\n    tag_138:\n        /* \"#utility.yul\":1263:1287   */\n      tag_194\n        /* \"#utility.yul\":1281:1286   */\n      dup2\n        /* \"#utility.yul\":1263:1287   */\n      tag_135\n      jump\t// in\n    tag_194:\n        /* \"#utility.yul\":1258:1261   */\n      dup3\n        /* \"#utility.yul\":1251:1288   */\n      mstore\n        /* \"#utility.yul\":1176:1294   */\n      pop\n      pop\n      jump\t// out\n        /* \"#utility.yul\":1300:1522   */\n    tag_25:\n        /* \"#utility.yul\":1393:1397   */\n      0x00\n        /* \"#utility.yul\":1431:1433   */\n      0x20\n        /* \"#utility.yul\":1420:1429   */\n      dup3\n        /* \"#utility.yul\":1416:1434   */\n      add\n        /* \"#utility.yul\":1408:1434   */\n      swap1\n      pop\n        /* \"#utility.yul\":1444:1515   */\n      tag_196\n        /* \"#utility.yul\":1512:1513   */\n      0x00\n        /* \"#utility.yul\":1501:1510   */\n      dup4\n        /* \"#utility.yul\":1497:1514   */\n      add\n        /* \"#utility.yul\":1488:1494   */\n      dup5\n        /* \"#utility.yul\":1444:1515   */\n      tag_138\n      jump\t// in\n    tag_196:\n        /* \"#utility.yul\":1300:1522   */\n      swap3\n      swap2\n      pop\n      pop\n      jump\t// out\n        /* \"#utility.yul\":1528:1605   */\n    tag_139:\n        /* \"#utility.yul\":1565:1572   */\n      0x00\n        /* \"#utility.yul\":1594:1599   */\n      dup2\n        /* \"#utility.yul\":1583:1599   */\n      swap1\n      pop\n        /* \"#utility.yul\":1528:1605   */\n      swap2\n      swap1\n      pop\n      jump\t// out\n        /* \"#utility.yul\":1611:1729   */\n    tag_140:\n        /* \"#utility.yul\":1698:1722   */\n      tag_199\n        /* \"#utility.yul\":1716:1721   */\n      dup2\n        /* \"#utility.yul\":1698:1722   */\n      tag_139\n      jump\t// in\n    tag_199:\n        /* \"#utility.yul\":1693:1696   */\n      dup3\n        /* \"#utility.yul\":1686:1723   */\n      mstore\n        /* \"#utility.yul\":1611:1729   */\n      pop\n      pop\n      jump\t// out\n        /* \"#utility.yul\":1735:1957   */\n    tag_34:\n        /* \"#utility.yul\":1828:1832   */\n      0x00\n        /* \"#utility.yul\":1866:1868   */\n      0x20\n        /* \"#utility.yul\":1855:1864   */\n      dup3\n        /* \"#utility.yul\":1851:1869   */\n      add\n        /* \"#utility.yul\":1843:1869   */\n      swap1\n      pop\n        /* \"#utility.yul\":1879:1950   */\n      tag_201\n        /* \"#utility.yul\":1947:1948   */\n      0x00\n        /* \"#utility.yul\":1936:1945   */\n      dup4\n        /* \"#utility.yul\":1932:1949   */\n      add\n        /* \"#utility.yul\":1923:1929   */\n      dup5\n        /* \"#utility.yul\":1879:1950   */\n      tag_140\n      jump\t// in\n    tag_201:\n        /* \"#utility.yul\":1735:1957   */\n      swap3\n      swap2\n      pop\n      pop\n      jump\t// out\n        /* \"#utility.yul\":1963:2039   */\n    tag_141:\n        /* \"#utility.yul\":1999:2006   */\n      0x00\n        /* \"#utility.yul\":2028:2033   */\n      dup2\n        /* \"#utility.yul\":2017:2033   */\n      swap1\n      pop\n        /* \"#utility.yul\":1963:2039   */\n      swap2\n      swap1\n      pop\n      jump\t// out\n        /* \"#utility.yul\":2045:2160   */\n    tag_142:\n        /* \"#utility.yul\":2130:2153   */\n      tag_204\n        /* \"#utility.yul\":2147:2152   */\n      dup2\n        /* \"#utility.yul\":2130:2153   */\n      tag_141\n      jump\t// in\n    tag_204:\n        /* \"#utility.yul\":2125:2128   */\n      dup3\n        /* \"#utility.yul\":2118:2154   */\n      mstore\n        /* \"#utility.yul\":2045:2160   */\n      pop\n      pop\n      jump\t// out\n        /* \"#utility.yul\":2166:2384   */\n    tag_41:\n        /* \"#utility.yul\":2257:2261   */\n      0x00\n        /* \"#utility.yul\":2295:2297   */\n      0x20\n        /* \"#utility.yul\":2284:2293   */\n      dup3\n        /* \"#utility.yul\":2280:2298   */\n      add\n        /* \"#utility.yul\":2272:2298   */\n      swap1\n      pop\n        /* \"#utility.yul\":2308:2377   */\n      tag_206\n        /* \"#utility.yul\":2374:2375   */\n      0x00\n        /* \"#utility.yul\":2363:2372   */\n      dup4\n        /* \"#utility.yul\":2359:2376   */\n      add\n        /* \"#utility.yul\":2350:2356   */\n      dup5\n        /* \"#utility.yul\":2308:2377   */\n      tag_142\n      jump\t// in\n    tag_206:\n        /* \"#utility.yul\":2166:2384   */\n      swap3\n      swap2\n      pop\n      pop\n      jump\t// out\n        /* \"#utility.yul\":2390:2512   */\n    tag_143:\n        /* \"#utility.yul\":2463:2487   */\n      tag_208\n        /* \"#utility.yul\":2481:2486   */\n      dup2\n        /* \"#utility.yul\":2463:2487   */\n      tag_139\n      jump\t// in\n    tag_208:\n        /* \"#utility.yul\":2456:2461   */\n      dup2\n        /* \"#utility.yul\":2453:2488   */\n      eq\n        /* \"#utility.yul\":2443:2506   */\n      tag_209\n      jumpi\n        /* \"#utility.yul\":2502:2503   */\n      0x00\n        /* \"#utility.yul\":2499:2500   */\n      0x00\n        /* \"#utility.yul\":2492:2504   */\n      revert\n        /* \"#utility.yul\":2443:2506   */\n    tag_209:\n        /* \"#utility.yul\":2390:2512   */\n      pop\n      jump\t// out\n        /* \"#utility.yul\":2518:2657   */\n    tag_144:\n        /* \"#utility.yul\":2564:2569   */\n      0x00\n        /* \"#utility.yul\":2602:2608   */\n      dup2\n        /* \"#utility.yul\":2589:2609   */\n      calldataload\n        /* \"#utility.yul\":2580:2609   */\n      swap1\n      pop\n        /* \"#utility.yul\":2618:2651   */\n      tag_211\n        /* \"#utility.yul\":2645:2650   */\n      dup2\n        /* \"#utility.yul\":2618:2651   */\n      tag_143\n      jump\t// in\n    tag_211:\n        /* \"#utility.yul\":2518:2657   */\n      swap3\n      swap2\n      pop\n      pop\n      jump\t// out\n        /* \"#utility.yul\":2663:3137   */\n    tag_45:\n        /* \"#utility.yul\":2731:2737   */\n      0x00\n        /* \"#utility.yul\":2739:2745   */\n      0x00\n        /* \"#utility.yul\":2788:2790   */\n      0x40\n        /* \"#utility.yul\":2776:2785   */\n      dup4\n        /* \"#utility.yul\":2767:2774   */\n      dup6\n        /* \"#utility.yul\":2763:2786   */\n      sub\n        /* \"#utility.yul\":2759:2791   */\n      slt\n        /* \"#utility.yul\":2756:2875   */\n      iszero\n      tag_213\n      jumpi\n        /* \"#utility.yul\":2794:2873   */\n      tag_214\n      tag_132\n      jump\t// in\n    tag_214:\n        /* \"#utility.yul\":2756:2875   */\n    tag_213:\n        /* \"#utility.yul\":2914:2915   */\n      0x00\n        /* \"#utility.yul\":2939:2992   */\n      tag_215\n        /* \"#utility.yul\":2984:2991   */\n      dup6\n        /* \"#utility.yul\":2975:2981   */\n      dup3\n        /* \"#utility.yul\":2964:2973   */\n      dup7\n        /* \"#utility.yul\":2960:2982   */\n      add\n        /* \"#utility.yul\":2939:2992   */\n      tag_137\n      jump\t// in\n    tag_215:\n        /* \"#utility.yul\":2929:2992   */\n      swap3\n      pop\n        /* \"#utility.yul\":2885:3002   */\n      pop\n        /* \"#utility.yul\":3041:3043   */\n      0x20\n        /* \"#utility.yul\":3067:3120   */\n      tag_216\n        /* \"#utility.yul\":3112:3119   */\n      dup6\n        /* \"#utility.yul\":3103:3109   */\n      dup3\n        /* \"#utility.yul\":3092:3101   */\n      dup7\n        /* \"#utility.yul\":3088:3110   */\n      add\n        /* \"#utility.yul\":3067:3120   */\n      tag_144\n      jump\t// in\n    tag_216:\n        /* \"#utility.yul\":3057:3120   */\n      swap2\n      pop\n        /* \"#utility.yul\":3012:3130   */\n      pop\n        /* \"#utility.yul\":2663:3137   */\n      swap3\n      pop\n      swap3\n      swap1\n      pop\n      jump\t// out\n        /* \"#utility.yul\":3143:3233   */\n    tag_145:\n        /* \"#utility.yul\":3177:3184   */\n      0x00\n        /* \"#utility.yul\":3220:3225   */\n      dup2\n        /* \"#utility.yul\":3213:3226   */\n      iszero\n        /* \"#utility.yul\":3206:3227   */\n      iszero\n        /* \"#utility.yul\":3195:3227   */\n      swap1\n      pop\n        /* \"#utility.yul\":3143:3233   */\n      swap2\n      swap1\n      pop\n      jump\t// out\n        /* \"#utility.yul\":3239:3348   */\n    tag_146:\n        /* \"#utility.yul\":3320:3341   */\n      tag_219\n        /* \"#utility.yul\":3335:3340   */\n      dup2\n        /* \"#utility.yul\":3320:3341   */\n      tag_145\n      jump\t// in\n    tag_219:\n        /* \"#utility.yul\":3315:3318   */\n      dup3\n        /* \"#utility.yul\":3308:3342   */\n      mstore\n        /* \"#utility.yul\":3239:3348   */\n      pop\n      pop\n      jump\t// out\n        /* \"#utility.yul\":3354:3564   */\n    tag_51:\n        /* \"#utility.yul\":3441:3445   */\n      0x00\n        /* \"#utility.yul\":3479:3481   */\n      0x20\n        /* \"#utility.yul\":3468:3477   */\n      dup3\n        /* \"#utility.yul\":3464:3482   */\n      add\n        /* \"#utility.yul\":3456:3482   */\n      swap1\n      pop\n        /* \"#utility.yul\":3492:3557   */\n      tag_221\n        /* \"#utility.yul\":3554:3555   */\n      0x00\n        /* \"#utility.yul\":3543:3552   */\n      dup4\n        /* \"#utility.yul\":3539:3556   */\n      add\n        /* \"#utility.yul\":3530:3536   */\n      dup5\n        /* \"#utility.yul\":3492:3557   */\n      tag_146\n      jump\t// in\n    tag_221:\n        /* \"#utility.yul\":3354:3564   */\n      swap3\n      swap2\n      pop\n      pop\n      jump\t// out\n        /* \"#utility.yul\":3570:3739   */\n    tag_147:\n        /* \"#utility.yul\":3654:3665   */\n      0x00\n        /* \"#utility.yul\":3688:3694   */\n      dup3\n        /* \"#utility.yul\":3683:3686   */\n      dup3\n        /* \"#utility.yul\":3676:3695   */\n      mstore\n        /* \"#utility.yul\":3728:3732   */\n      0x20\n        /* \"#utility.yul\":3723:3726   */\n      dup3\n        /* \"#utility.yul\":3719:3733   */\n      add\n        /* \"#utility.yul\":3704:3733   */\n      swap1\n      pop\n        /* \"#utility.yul\":3570:3739   */\n      swap3\n      swap2\n      pop\n      pop\n      jump\t// out\n        /* \"#utility.yul\":3745:3973   */\n    tag_148:\n        /* \"#utility.yul\":3885:3919   */\n      0x746869732066756e6374696f6e2063616e206f6e6c792062652063616c6c6564\n        /* \"#utility.yul\":3881:3882   */\n      0x00\n        /* \"#utility.yul\":3873:3879   */\n      dup3\n        /* \"#utility.yul\":3869:3883   */\n      add\n        /* \"#utility.yul\":3862:3920   */\n      mstore\n        /* \"#utility.yul\":3954:3965   */\n      0x206279206f776e65720000000000000000000000000000000000000000000000\n        /* \"#utility.yul\":3949:3951   */\n      0x20\n        /* \"#utility.yul\":3941:3947   */\n      dup3\n        /* \"#utility.yul\":3937:3952   */\n      add\n        /* \"#utility.yul\":3930:3966   */\n      mstore\n        /* \"#utility.yul\":3745:3973   */\n      pop\n      jump\t// out\n        /* \"#utility.yul\":3979:4345   */\n    tag_149:\n        /* \"#utility.yul\":4121:4124   */\n      0x00\n        /* \"#utility.yul\":4142:4209   */\n      tag_225\n        /* \"#utility.yul\":4206:4208   */\n      0x29\n        /* \"#utility.yul\":4201:4204   */\n      dup4\n        /* \"#utility.yul\":4142:4209   */\n      tag_147\n      jump\t// in\n    tag_225:\n        /* \"#utility.yul\":4135:4209   */\n      swap2\n      pop\n        /* \"#utility.yul\":4218:4311   */\n      tag_226\n        /* \"#utility.yul\":4307:4310   */\n      dup3\n        /* \"#utility.yul\":4218:4311   */\n      tag_148\n      jump\t// in\n    tag_226:\n        /* \"#utility.yul\":4336:4338   */\n      0x40\n        /* \"#utility.yul\":4331:4334   */\n      dup3\n        /* \"#utility.yul\":4327:4339   */\n      add\n        /* \"#utility.yul\":4320:4339   */\n      swap1\n      pop\n        /* \"#utility.yul\":3979:4345   */\n      swap2\n      swap1\n      pop\n      jump\t// out\n        /* \"#utility.yul\":4351:4770   */\n    tag_59:\n        /* \"#utility.yul\":4517:4521   */\n      0x00\n        /* \"#utility.yul\":4555:4557   */\n      0x20\n        /* \"#utility.yul\":4544:4553   */\n      dup3\n        /* \"#utility.yul\":4540:4558   */\n      add\n        /* \"#utility.yul\":4532:4558   */\n      swap1\n      pop\n        /* \"#utility.yul\":4604:4613   */\n      dup2\n        /* \"#utility.yul\":4598:4602   */\n      dup2\n        /* \"#utility.yul\":4594:4614   */\n      sub\n        /* \"#utility.yul\":4590:4591   */\n      0x00\n        /* \"#utility.yul\":4579:4588   */\n      dup4\n        /* \"#utility.yul\":4575:4592   */\n      add\n        /* \"#utility.yul\":4568:4615   */\n      mstore\n        /* \"#utility.yul\":4632:4763   */\n      tag_228\n        /* \"#utility.yul\":4758:4762   */\n      dup2\n        /* \"#utility.yul\":4632:4763   */\n      tag_149\n      jump\t// in\n    tag_228:\n        /* \"#utility.yul\":4624:4763   */\n      swap1\n      pop\n        /* \"#utility.yul\":4351:4770   */\n      swap2\n      swap1\n      pop\n      jump\t// out\n        /* \"#utility.yul\":4776:4956   */\n    tag_150:\n        /* \"#utility.yul\":4824:4901   */\n      0x4e487b7100000000000000000000000000000000000000000000000000000000\n        /* \"#utility.yul\":4821:4822   */\n      0x00\n        /* \"#utility.yul\":4814:4902   */\n      mstore\n        /* \"#utility.yul\":4921:4925   */\n      0x11\n        /* \"#utility.yul\":4918:4919   */\n      0x04\n        /* \"#utility.yul\":4911:4926   */\n      mstore\n        /* \"#utility.yul\":4945:4949   */\n      0x24\n        /* \"#utility.yul\":4942:4943   */\n      0x00\n        /* \"#utility.yul\":4935:4950   */\n      revert\n        /* \"#utility.yul\":4962:5153   */\n    tag_63:\n        /* \"#utility.yul\":5002:5005   */\n      0x00\n        /* \"#utility.yul\":5021:5041   */\n      tag_231\n        /* \"#utility.yul\":5039:5040   */\n      dup3\n        /* \"#utility.yul\":5021:5041   */\n      tag_139\n      jump\t// in\n    tag_231:\n        /* \"#utility.yul\":5016:5041   */\n      swap2\n      pop\n        /* \"#utility.yul\":5055:5075   */\n      tag_232\n        /* \"#utility.yul\":5073:5074   */\n      dup4\n        /* \"#utility.yul\":5055:5075   */\n      tag_139\n      jump\t// in\n    tag_232:\n        /* \"#utility.yul\":5050:5075   */\n      swap3\n      pop\n        /* \"#utility.yul\":5098:5099   */\n      dup3\n        /* \"#utility.yul\":5095:5096   */\n      dup3\n        /* \"#utility.yul\":5091:5100   */\n      add\n        /* \"#utility.yul\":5084:5100   */\n      swap1\n      pop\n        /* \"#utility.yul\":5119:5122   */\n      dup1\n        /* \"#utility.yul\":5116:5117   */\n      dup3\n        /* \"#utility.yul\":5113:5123   */\n      gt\n        /* \"#utility.yul\":5110:5146   */\n      iszero\n      tag_233\n      jumpi\n        /* \"#utility.yul\":5126:5144   */\n      tag_234\n      tag_150\n      jump\t// in\n    tag_234:\n        /* \"#utility.yul\":5110:5146   */\n    tag_233:\n        /* \"#utility.yul\":4962:5153   */\n      swap3\n      swap2\n      pop\n      pop\n      jump\t// out\n        /* \"#utility.yul\":5159:5329   */\n    tag_151:\n        /* \"#utility.yul\":5299:5321   */\n      0x77696e646f77206973206e6f7420636c6f736564000000000000000000000000\n        /* \"#utility.yul\":5295:5296   */\n      0x00\n        /* \"#utility.yul\":5287:5293   */\n      dup3\n        /* \"#utility.yul\":5283:5297   */\n      add\n        /* \"#utility.yul\":5276:5322   */\n      mstore\n        /* \"#utility.yul\":5159:5329   */\n      pop\n      jump\t// out\n        /* \"#utility.yul\":5335:5701   */\n    tag_152:\n        /* \"#utility.yul\":5477:5480   */\n      0x00\n        /* \"#utility.yul\":5498:5565   */\n      tag_237\n        /* \"#utility.yul\":5562:5564   */\n      0x14\n        /* \"#utility.yul\":5557:5560   */\n      dup4\n        /* \"#utility.yul\":5498:5565   */\n      tag_147\n      jump\t// in\n    tag_237:\n        /* \"#utility.yul\":5491:5565   */\n      swap2\n      pop\n        /* \"#utility.yul\":5574:5667   */\n      tag_238\n        /* \"#utility.yul\":5663:5666   */\n      dup3\n        /* \"#utility.yul\":5574:5667   */\n      tag_151\n      jump\t// in\n    tag_238:\n        /* \"#utility.yul\":5692:5694   */\n      0x20\n        /* \"#utility.yul\":5687:5690   */\n      dup3\n        /* \"#utility.yul\":5683:5695   */\n      add\n        /* \"#utility.yul\":5676:5695   */\n      swap1\n      pop\n        /* \"#utility.yul\":5335:5701   */\n      swap2\n      swap1\n      pop\n      jump\t// out\n        /* \"#utility.yul\":5707:6126   */\n    tag_66:\n        /* \"#utility.yul\":5873:5877   */\n      0x00\n        /* \"#utility.yul\":5911:5913   */\n      0x20\n        /* \"#utility.yul\":5900:5909   */\n      dup3\n        /* \"#utility.yul\":5896:5914   */\n      add\n        /* \"#utility.yul\":5888:5914   */\n      swap1\n      pop\n        /* \"#utility.yul\":5960:5969   */\n      dup2\n        /* \"#utility.yul\":5954:5958   */\n      dup2\n        /* \"#utility.yul\":5950:5970   */\n      sub\n        /* \"#utility.yul\":5946:5947   */\n      0x00\n        /* \"#utility.yul\":5935:5944   */\n      dup4\n        /* \"#utility.yul\":5931:5948   */\n      add\n        /* \"#utility.yul\":5924:5971   */\n      mstore\n        /* \"#utility.yul\":5988:6119   */\n      tag_240\n        /* \"#utility.yul\":6114:6118   */\n      dup2\n        /* \"#utility.yul\":5988:6119   */\n      tag_152\n      jump\t// in\n    tag_240:\n        /* \"#utility.yul\":5980:6119   */\n      swap1\n      pop\n        /* \"#utility.yul\":5707:6126   */\n      swap2\n      swap1\n      pop\n      jump\t// out\n        /* \"#utility.yul\":6132:6299   */\n    tag_153:\n        /* \"#utility.yul\":6272:6291   */\n      0x5461726765742069732072656163686564000000000000000000000000000000\n        /* \"#utility.yul\":6268:6269   */\n      0x00\n        /* \"#utility.yul\":6260:6266   */\n      dup3\n        /* \"#utility.yul\":6256:6270   */\n      add\n        /* \"#utility.yul\":6249:6292   */\n      mstore\n        /* \"#utility.yul\":6132:6299   */\n      pop\n      jump\t// out\n        /* \"#utility.yul\":6305:6671   */\n    tag_154:\n        /* \"#utility.yul\":6447:6450   */\n      0x00\n        /* \"#utility.yul\":6468:6535   */\n      tag_243\n        /* \"#utility.yul\":6532:6534   */\n      0x11\n        /* \"#utility.yul\":6527:6530   */\n      dup4\n        /* \"#utility.yul\":6468:6535   */\n      tag_147\n      jump\t// in\n    tag_243:\n        /* \"#utility.yul\":6461:6535   */\n      swap2\n      pop\n        /* \"#utility.yul\":6544:6637   */\n      tag_244\n        /* \"#utility.yul\":6633:6636   */\n      dup3\n        /* \"#utility.yul\":6544:6637   */\n      tag_153\n      jump\t// in\n    tag_244:\n        /* \"#utility.yul\":6662:6664   */\n      0x20\n        /* \"#utility.yul\":6657:6660   */\n      dup3\n        /* \"#utility.yul\":6653:6665   */\n      add\n        /* \"#utility.yul\":6646:6665   */\n      swap1\n      pop\n        /* \"#utility.yul\":6305:6671   */\n      swap2\n      swap1\n      pop\n      jump\t// out\n        /* \"#utility.yul\":6677:7096   */\n    tag_72:\n        /* \"#utility.yul\":6843:6847   */\n      0x00\n        /* \"#utility.yul\":6881:6883   */\n      0x20\n        /* \"#utility.yul\":6870:6879   */\n      dup3\n        /* \"#utility.yul\":6866:6884   */\n      add\n        /* \"#utility.yul\":6858:6884   */\n      swap1\n      pop\n        /* \"#utility.yul\":6930:6939   */\n      dup2\n        /* \"#utility.yul\":6924:6928   */\n      dup2\n        /* \"#utility.yul\":6920:6940   */\n      sub\n        /* \"#utility.yul\":6916:6917   */\n      0x00\n        /* \"#utility.yul\":6905:6914   */\n      dup4\n        /* \"#utility.yul\":6901:6918   */\n      add\n        /* \"#utility.yul\":6894:6941   */\n      mstore\n        /* \"#utility.yul\":6958:7089   */\n      tag_246\n        /* \"#utility.yul\":7084:7088   */\n      dup2\n        /* \"#utility.yul\":6958:7089   */\n      tag_154\n      jump\t// in\n    tag_246:\n        /* \"#utility.yul\":6950:7089   */\n      swap1\n      pop\n        /* \"#utility.yul\":6677:7096   */\n      swap2\n      swap1\n      pop\n      jump\t// out\n        /* \"#utility.yul\":7102:7276   */\n    tag_155:\n        /* \"#utility.yul\":7242:7268   */\n      0x7468657265206973206e6f2066756e6420666f7220796f750000000000000000\n        /* \"#utility.yul\":7238:7239   */\n      0x00\n        /* \"#utility.yul\":7230:7236   */\n      dup3\n        /* \"#utility.yul\":7226:7240   */\n      add\n        /* \"#utility.yul\":7219:7269   */\n      mstore\n        /* \"#utility.yul\":7102:7276   */\n      pop\n      jump\t// out\n        /* \"#utility.yul\":7282:7648   */\n    tag_156:\n        /* \"#utility.yul\":7424:7427   */\n      0x00\n        /* \"#utility.yul\":7445:7512   */\n      tag_249\n        /* \"#utility.yul\":7509:7511   */\n      0x18\n        /* \"#utility.yul\":7504:7507   */\n      dup4\n        /* \"#utility.yul\":7445:7512   */\n      tag_147\n      jump\t// in\n    tag_249:\n        /* \"#utility.yul\":7438:7512   */\n      swap2\n      pop\n        /* \"#utility.yul\":7521:7614   */\n      tag_250\n        /* \"#utility.yul\":7610:7613   */\n      dup3\n        /* \"#utility.yul\":7521:7614   */\n      tag_155\n      jump\t// in\n    tag_250:\n        /* \"#utility.yul\":7639:7641   */\n      0x20\n        /* \"#utility.yul\":7634:7637   */\n      dup3\n        /* \"#utility.yul\":7630:7642   */\n      add\n        /* \"#utility.yul\":7623:7642   */\n      swap1\n      pop\n        /* \"#utility.yul\":7282:7648   */\n      swap2\n      swap1\n      pop\n      jump\t// out\n        /* \"#utility.yul\":7654:8073   */\n    tag_75:\n        /* \"#utility.yul\":7820:7824   */\n      0x00\n        /* \"#utility.yul\":7858:7860   */\n      0x20\n        /* \"#utility.yul\":7847:7856   */\n      dup3\n        /* \"#utility.yul\":7843:7861   */\n      add\n        /* \"#utility.yul\":7835:7861   */\n      swap1\n      pop\n        /* \"#utility.yul\":7907:7916   */\n      dup2\n        /* \"#utility.yul\":7901:7905   */\n      dup2\n        /* \"#utility.yul\":7897:7917   */\n      sub\n        /* \"#utility.yul\":7893:7894   */\n      0x00\n        /* \"#utility.yul\":7882:7891   */\n      dup4\n        /* \"#utility.yul\":7878:7895   */\n      add\n        /* \"#utility.yul\":7871:7918   */\n      mstore\n        /* \"#utility.yul\":7935:8066   */\n      tag_252\n        /* \"#utility.yul\":8061:8065   */\n      dup2\n        /* \"#utility.yul\":7935:8066   */\n      tag_156\n      jump\t// in\n    tag_252:\n        /* \"#utility.yul\":7927:8066   */\n      swap1\n      pop\n        /* \"#utility.yul\":7654:8073   */\n      swap2\n      swap1\n      pop\n      jump\t// out\n        /* \"#utility.yul\":8079:8226   */\n    tag_157:\n        /* \"#utility.yul\":8180:8191   */\n      0x00\n        /* \"#utility.yul\":8217:8220   */\n      dup2\n        /* \"#utility.yul\":8202:8220   */\n      swap1\n      pop\n        /* \"#utility.yul\":8079:8226   */\n      swap3\n      swap2\n      pop\n      pop\n      jump\t// out\n        /* \"#utility.yul\":8232:8346   */\n    tag_158:\n      pop\n      jump\t// out\n        /* \"#utility.yul\":8352:8750   */\n    tag_159:\n        /* \"#utility.yul\":8511:8514   */\n      0x00\n        /* \"#utility.yul\":8532:8615   */\n      tag_256\n        /* \"#utility.yul\":8613:8614   */\n      0x00\n        /* \"#utility.yul\":8608:8611   */\n      dup4\n        /* \"#utility.yul\":8532:8615   */\n      tag_157\n      jump\t// in\n    tag_256:\n        /* \"#utility.yul\":8525:8615   */\n      swap2\n      pop\n        /* \"#utility.yul\":8624:8717   */\n      tag_257\n        /* \"#utility.yul\":8713:8716   */\n      dup3\n        /* \"#utility.yul\":8624:8717   */\n      tag_158\n      jump\t// in\n    tag_257:\n        /* \"#utility.yul\":8742:8743   */\n      0x00\n        /* \"#utility.yul\":8737:8740   */\n      dup3\n        /* \"#utility.yul\":8733:8744   */\n      add\n        /* \"#utility.yul\":8726:8744   */\n      swap1\n      pop\n        /* \"#utility.yul\":8352:8750   */\n      swap2\n      swap1\n      pop\n      jump\t// out\n        /* \"#utility.yul\":8756:9135   */\n    tag_77:\n        /* \"#utility.yul\":8940:8943   */\n      0x00\n        /* \"#utility.yul\":8962:9109   */\n      tag_259\n        /* \"#utility.yul\":9105:9108   */\n      dup3\n        /* \"#utility.yul\":8962:9109   */\n      tag_159\n      jump\t// in\n    tag_259:\n        /* \"#utility.yul\":8955:9109   */\n      swap2\n      pop\n        /* \"#utility.yul\":9126:9129   */\n      dup2\n        /* \"#utility.yul\":9119:9129   */\n      swap1\n      pop\n        /* \"#utility.yul\":8756:9135   */\n      swap2\n      swap1\n      pop\n      jump\t// out\n        /* \"#utility.yul\":9141:9309   */\n    tag_160:\n        /* \"#utility.yul\":9281:9301   */\n      0x7472616e73666572207478206661696c65640000000000000000000000000000\n        /* \"#utility.yul\":9277:9278   */\n      0x00\n        /* \"#utility.yul\":9269:9275   */\n      dup3\n        /* \"#utility.yul\":9265:9279   */\n      add\n        /* \"#utility.yul\":9258:9302   */\n      mstore\n        /* \"#utility.yul\":9141:9309   */\n      pop\n      jump\t// out\n        /* \"#utility.yul\":9315:9681   */\n    tag_161:\n        /* \"#utility.yul\":9457:9460   */\n      0x00\n        /* \"#utility.yul\":9478:9545   */\n      tag_262\n        /* \"#utility.yul\":9542:9544   */\n      0x12\n        /* \"#utility.yul\":9537:9540   */\n      dup4\n        /* \"#utility.yul\":9478:9545   */\n      tag_147\n      jump\t// in\n    tag_262:\n        /* \"#utility.yul\":9471:9545   */\n      swap2\n      pop\n        /* \"#utility.yul\":9554:9647   */\n      tag_263\n        /* \"#utility.yul\":9643:9646   */\n      dup3\n        /* \"#utility.yul\":9554:9647   */\n      tag_160\n      jump\t// in\n    tag_263:\n        /* \"#utility.yul\":9672:9674   */\n      0x20\n        /* \"#utility.yul\":9667:9670   */\n      dup3\n        /* \"#utility.yul\":9663:9675   */\n      add\n        /* \"#utility.yul\":9656:9675   */\n      swap1\n      pop\n        /* \"#utility.yul\":9315:9681   */\n      swap2\n      swap1\n      pop\n      jump\t// out\n        /* \"#utility.yul\":9687:10106   */\n    tag_83:\n        /* \"#utility.yul\":9853:9857   */\n      0x00\n        /* \"#utility.yul\":9891:9893   */\n      0x20\n        /* \"#utility.yul\":9880:9889   */\n      dup3\n        /* \"#utility.yul\":9876:9894   */\n      add\n        /* \"#utility.yul\":9868:9894   */\n      swap1\n      pop\n        /* \"#utility.yul\":9940:9949   */\n      dup2\n        /* \"#utility.yul\":9934:9938   */\n      dup2\n        /* \"#utility.yul\":9930:9950   */\n      sub\n        /* \"#utility.yul\":9926:9927   */\n      0x00\n        /* \"#utility.yul\":9915:9924   */\n      dup4\n        /* \"#utility.yul\":9911:9928   */\n      add\n        /* \"#utility.yul\":9904:9951   */\n      mstore\n        /* \"#utility.yul\":9968:10099   */\n      tag_265\n        /* \"#utility.yul\":10094:10098   */\n      dup2\n        /* \"#utility.yul\":9968:10099   */\n      tag_161\n      jump\t// in\n    tag_265:\n        /* \"#utility.yul\":9960:10099   */\n      swap1\n      pop\n        /* \"#utility.yul\":9687:10106   */\n      swap2\n      swap1\n      pop\n      jump\t// out\n        /* \"#utility.yul\":10112:10283   */\n    tag_162:\n        /* \"#utility.yul\":10252:10275   */\n      0x546172676574206973206e6f7420726561636865640000000000000000000000\n        /* \"#utility.yul\":10248:10249   */\n      0x00\n        /* \"#utility.yul\":10240:10246   */\n      dup3\n        /* \"#utility.yul\":10236:10250   */\n      add\n        /* \"#utility.yul\":10229:10276   */\n      mstore\n        /* \"#utility.yul\":10112:10283   */\n      pop\n      jump\t// out\n        /* \"#utility.yul\":10289:10655   */\n    tag_163:\n        /* \"#utility.yul\":10431:10434   */\n      0x00\n        /* \"#utility.yul\":10452:10519   */\n      tag_268\n        /* \"#utility.yul\":10516:10518   */\n      0x15\n        /* \"#utility.yul\":10511:10514   */\n      dup4\n        /* \"#utility.yul\":10452:10519   */\n      tag_147\n      jump\t// in\n    tag_268:\n        /* \"#utility.yul\":10445:10519   */\n      swap2\n      pop\n        /* \"#utility.yul\":10528:10621   */\n      tag_269\n        /* \"#utility.yul\":10617:10620   */\n      dup3\n        /* \"#utility.yul\":10528:10621   */\n      tag_162\n      jump\t// in\n    tag_269:\n        /* \"#utility.yul\":10646:10648   */\n      0x20\n        /* \"#utility.yul\":10641:10644   */\n      dup3\n        /* \"#utility.yul\":10637:10649   */\n      add\n        /* \"#utility.yul\":10630:10649   */\n      swap1\n      pop\n        /* \"#utility.yul\":10289:10655   */\n      swap2\n      swap1\n      pop\n      jump\t// out\n        /* \"#utility.yul\":10661:11080   */\n    tag_95:\n        /* \"#utility.yul\":10827:10831   */\n      0x00\n        /* \"#utility.yul\":10865:10867   */\n      0x20\n        /* \"#utility.yul\":10854:10863   */\n      dup3\n        /* \"#utility.yul\":10850:10868   */\n      add\n        /* \"#utility.yul\":10842:10868   */\n      swap1\n      pop\n        /* \"#utility.yul\":10914:10923   */\n      dup2\n        /* \"#utility.yul\":10908:10912   */\n      dup2\n        /* \"#utility.yul\":10904:10924   */\n      sub\n        /* \"#utility.yul\":10900:10901   */\n      0x00\n        /* \"#utility.yul\":10889:10898   */\n      dup4\n        /* \"#utility.yul\":10885:10902   */\n      add\n        /* \"#utility.yul\":10878:10925   */\n      mstore\n        /* \"#utility.yul\":10942:11073   */\n      tag_271\n        /* \"#utility.yul\":11068:11072   */\n      dup2\n        /* \"#utility.yul\":10942:11073   */\n      tag_163\n      jump\t// in\n    tag_271:\n        /* \"#utility.yul\":10934:11073   */\n      swap1\n      pop\n        /* \"#utility.yul\":10661:11080   */\n      swap2\n      swap1\n      pop\n      jump\t// out\n        /* \"#utility.yul\":11086:11249   */\n    tag_164:\n        /* \"#utility.yul\":11226:11241   */\n      0x53656e64206d6f72652045544800000000000000000000000000000000000000\n        /* \"#utility.yul\":11222:11223   */\n      0x00\n        /* \"#utility.yul\":11214:11220   */\n      dup3\n        /* \"#utility.yul\":11210:11224   */\n      add\n        /* \"#utility.yul\":11203:11242   */\n      mstore\n        /* \"#utility.yul\":11086:11249   */\n      pop\n      jump\t// out\n        /* \"#utility.yul\":11255:11621   */\n    tag_165:\n        /* \"#utility.yul\":11397:11400   */\n      0x00\n        /* \"#utility.yul\":11418:11485   */\n      tag_274\n        /* \"#utility.yul\":11482:11484   */\n      0x0d\n        /* \"#utility.yul\":11477:11480   */\n      dup4\n        /* \"#utility.yul\":11418:11485   */\n      tag_147\n      jump\t// in\n    tag_274:\n        /* \"#utility.yul\":11411:11485   */\n      swap2\n      pop\n        /* \"#utility.yul\":11494:11587   */\n      tag_275\n        /* \"#utility.yul\":11583:11586   */\n      dup3\n        /* \"#utility.yul\":11494:11587   */\n      tag_164\n      jump\t// in\n    tag_275:\n        /* \"#utility.yul\":11612:11614   */\n      0x20\n        /* \"#utility.yul\":11607:11610   */\n      dup3\n        /* \"#utility.yul\":11603:11615   */\n      add\n        /* \"#utility.yul\":11596:11615   */\n      swap1\n      pop\n        /* \"#utility.yul\":11255:11621   */\n      swap2\n      swap1\n      pop\n      jump\t// out\n        /* \"#utility.yul\":11627:12046   */\n    tag_106:\n        /* \"#utility.yul\":11793:11797   */\n      0x00\n        /* \"#utility.yul\":11831:11833   */\n      0x20\n        /* \"#utility.yul\":11820:11829   */\n      dup3\n        /* \"#utility.yul\":11816:11834   */\n      add\n        /* \"#utility.yul\":11808:11834   */\n      swap1\n      pop\n        /* \"#utility.yul\":11880:11889   */\n      dup2\n        /* \"#utility.yul\":11874:11878   */\n      dup2\n        /* \"#utility.yul\":11870:11890   */\n      sub\n        /* \"#utility.yul\":11866:11867   */\n      0x00\n        /* \"#utility.yul\":11855:11864   */\n      dup4\n        /* \"#utility.yul\":11851:11868   */\n      add\n        /* \"#utility.yul\":11844:11891   */\n      mstore\n        /* \"#utility.yul\":11908:12039   */\n      tag_277\n        /* \"#utility.yul\":12034:12038   */\n      dup2\n        /* \"#utility.yul\":11908:12039   */\n      tag_165\n      jump\t// in\n    tag_277:\n        /* \"#utility.yul\":11900:12039   */\n      swap1\n      pop\n        /* \"#utility.yul\":11627:12046   */\n      swap2\n      swap1\n      pop\n      jump\t// out\n        /* \"#utility.yul\":12052:12218   */\n    tag_166:\n        /* \"#utility.yul\":12192:12210   */\n      0x77696e646f7720697320636c6f73656400000000000000000000000000000000\n        /* \"#utility.yul\":12188:12189   */\n      0x00\n        /* \"#utility.yul\":12180:12186   */\n      dup3\n        /* \"#utility.yul\":12176:12190   */\n      add\n        /* \"#utility.yul\":12169:12211   */\n      mstore\n        /* \"#utility.yul\":12052:12218   */\n      pop\n      jump\t// out\n        /* \"#utility.yul\":12224:12590   */\n    tag_167:\n        /* \"#utility.yul\":12366:12369   */\n      0x00\n        /* \"#utility.yul\":12387:12454   */\n      tag_280\n        /* \"#utility.yul\":12451:12453   */\n      0x10\n        /* \"#utility.yul\":12446:12449   */\n      dup4\n        /* \"#utility.yul\":12387:12454   */\n      tag_147\n      jump\t// in\n    tag_280:\n        /* \"#utility.yul\":12380:12454   */\n      swap2\n      pop\n        /* \"#utility.yul\":12463:12556   */\n      tag_281\n        /* \"#utility.yul\":12552:12555   */\n      dup3\n        /* \"#utility.yul\":12463:12556   */\n      tag_166\n      jump\t// in\n    tag_281:\n        /* \"#utility.yul\":12581:12583   */\n      0x20\n        /* \"#utility.yul\":12576:12579   */\n      dup3\n        /* \"#utility.yul\":12572:12584   */\n      add\n        /* \"#utility.yul\":12565:12584   */\n      swap1\n      pop\n        /* \"#utility.yul\":12224:12590   */\n      swap2\n      swap1\n      pop\n      jump\t// out\n        /* \"#utility.yul\":12596:13015   */\n    tag_110:\n        /* \"#utility.yul\":12762:12766   */\n      0x00\n        /* \"#utility.yul\":12800:12802   */\n      0x20\n        /* \"#utility.yul\":12789:12798   */\n      dup3\n        /* \"#utility.yul\":12785:12803   */\n      add\n        /* \"#utility.yul\":12777:12803   */\n      swap1\n      pop\n        /* \"#utility.yul\":12849:12858   */\n      dup2\n        /* \"#utility.yul\":12843:12847   */\n      dup2\n        /* \"#utility.yul\":12839:12859   */\n      sub\n        /* \"#utility.yul\":12835:12836   */\n      0x00\n        /* \"#utility.yul\":12824:12833   */\n      dup4\n        /* \"#utility.yul\":12820:12837   */\n      add\n        /* \"#utility.yul\":12813:12860   */\n      mstore\n        /* \"#utility.yul\":12877:13008   */\n      tag_283\n        /* \"#utility.yul\":13003:13007   */\n      dup2\n        /* \"#utility.yul\":12877:13008   */\n      tag_167\n      jump\t// in\n    tag_283:\n        /* \"#utility.yul\":12869:13008   */\n      swap1\n      pop\n        /* \"#utility.yul\":12596:13015   */\n      swap2\n      swap1\n      pop\n      jump\t// out\n        /* \"#utility.yul\":13021:13126   */\n    tag_168:\n        /* \"#utility.yul\":13057:13064   */\n      0x00\n        /* \"#utility.yul\":13097:13119   */\n      0xffffffffffffffffffff\n        /* \"#utility.yul\":13090:13095   */\n      dup3\n        /* \"#utility.yul\":13086:13120   */\n      and\n        /* \"#utility.yul\":13075:13120   */\n      swap1\n      pop\n        /* \"#utility.yul\":13021:13126   */\n      swap2\n      swap1\n      pop\n      jump\t// out\n        /* \"#utility.yul\":13132:13252   */\n    tag_169:\n        /* \"#utility.yul\":13204:13227   */\n      tag_286\n        /* \"#utility.yul\":13221:13226   */\n      dup2\n        /* \"#utility.yul\":13204:13227   */\n      tag_168\n      jump\t// in\n    tag_286:\n        /* \"#utility.yul\":13197:13202   */\n      dup2\n        /* \"#utility.yul\":13194:13228   */\n      eq\n        /* \"#utility.yul\":13184:13246   */\n      tag_287\n      jumpi\n        /* \"#utility.yul\":13242:13243   */\n      0x00\n        /* \"#utility.yul\":13239:13240   */\n      0x00\n        /* \"#utility.yul\":13232:13244   */\n      revert\n        /* \"#utility.yul\":13184:13246   */\n    tag_287:\n        /* \"#utility.yul\":13132:13252   */\n      pop\n      jump\t// out\n        /* \"#utility.yul\":13258:13399   */\n    tag_170:\n        /* \"#utility.yul\":13314:13319   */\n      0x00\n        /* \"#utility.yul\":13345:13351   */\n      dup2\n        /* \"#utility.yul\":13339:13352   */\n      mload\n        /* \"#utility.yul\":13330:13352   */\n      swap1\n      pop\n        /* \"#utility.yul\":13361:13393   */\n      tag_289\n        /* \"#utility.yul\":13387:13392   */\n      dup2\n        /* \"#utility.yul\":13361:13393   */\n      tag_169\n      jump\t// in\n    tag_289:\n        /* \"#utility.yul\":13258:13399   */\n      swap3\n      swap2\n      pop\n      pop\n      jump\t// out\n        /* \"#utility.yul\":13405:13525   */\n    tag_171:\n        /* \"#utility.yul\":13477:13500   */\n      tag_291\n        /* \"#utility.yul\":13494:13499   */\n      dup2\n        /* \"#utility.yul\":13477:13500   */\n      tag_141\n      jump\t// in\n    tag_291:\n        /* \"#utility.yul\":13470:13475   */\n      dup2\n        /* \"#utility.yul\":13467:13501   */\n      eq\n        /* \"#utility.yul\":13457:13519   */\n      tag_292\n      jumpi\n        /* \"#utility.yul\":13515:13516   */\n      0x00\n        /* \"#utility.yul\":13512:13513   */\n      0x00\n        /* \"#utility.yul\":13505:13517   */\n      revert\n        /* \"#utility.yul\":13457:13519   */\n    tag_292:\n        /* \"#utility.yul\":13405:13525   */\n      pop\n      jump\t// out\n        /* \"#utility.yul\":13531:13672   */\n    tag_172:\n        /* \"#utility.yul\":13587:13592   */\n      0x00\n        /* \"#utility.yul\":13618:13624   */\n      dup2\n        /* \"#utility.yul\":13612:13625   */\n      mload\n        /* \"#utility.yul\":13603:13625   */\n      swap1\n      pop\n        /* \"#utility.yul\":13634:13666   */\n      tag_294\n        /* \"#utility.yul\":13660:13665   */\n      dup2\n        /* \"#utility.yul\":13634:13666   */\n      tag_171\n      jump\t// in\n    tag_294:\n        /* \"#utility.yul\":13531:13672   */\n      swap3\n      swap2\n      pop\n      pop\n      jump\t// out\n        /* \"#utility.yul\":13678:13821   */\n    tag_173:\n        /* \"#utility.yul\":13735:13740   */\n      0x00\n        /* \"#utility.yul\":13766:13772   */\n      dup2\n        /* \"#utility.yul\":13760:13773   */\n      mload\n        /* \"#utility.yul\":13751:13773   */\n      swap1\n      pop\n        /* \"#utility.yul\":13782:13815   */\n      tag_296\n        /* \"#utility.yul\":13809:13814   */\n      dup2\n        /* \"#utility.yul\":13782:13815   */\n      tag_143\n      jump\t// in\n    tag_296:\n        /* \"#utility.yul\":13678:13821   */\n      swap3\n      swap2\n      pop\n      pop\n      jump\t// out\n        /* \"#utility.yul\":13827:14798   */\n    tag_116:\n        /* \"#utility.yul\":13930:13936   */\n      0x00\n        /* \"#utility.yul\":13938:13944   */\n      0x00\n        /* \"#utility.yul\":13946:13952   */\n      0x00\n        /* \"#utility.yul\":13954:13960   */\n      0x00\n        /* \"#utility.yul\":13962:13968   */\n      0x00\n        /* \"#utility.yul\":14011:14014   */\n      0xa0\n        /* \"#utility.yul\":13999:14008   */\n      dup7\n        /* \"#utility.yul\":13990:13997   */\n      dup9\n        /* \"#utility.yul\":13986:14009   */\n      sub\n        /* \"#utility.yul\":13982:14015   */\n      slt\n        /* \"#utility.yul\":13979:14099   */\n      iszero\n      tag_298\n      jumpi\n        /* \"#utility.yul\":14018:14097   */\n      tag_299\n      tag_132\n      jump\t// in\n    tag_299:\n        /* \"#utility.yul\":13979:14099   */\n    tag_298:\n        /* \"#utility.yul\":14138:14139   */\n      0x00\n        /* \"#utility.yul\":14163:14226   */\n      tag_300\n        /* \"#utility.yul\":14218:14225   */\n      dup9\n        /* \"#utility.yul\":14209:14215   */\n      dup3\n        /* \"#utility.yul\":14198:14207   */\n      dup10\n        /* \"#utility.yul\":14194:14216   */\n      add\n        /* \"#utility.yul\":14163:14226   */\n      tag_170\n      jump\t// in\n    tag_300:\n        /* \"#utility.yul\":14153:14226   */\n      swap6\n      pop\n        /* \"#utility.yul\":14109:14236   */\n      pop\n        /* \"#utility.yul\":14275:14277   */\n      0x20\n        /* \"#utility.yul\":14301:14364   */\n      tag_301\n        /* \"#utility.yul\":14356:14363   */\n      dup9\n        /* \"#utility.yul\":14347:14353   */\n      dup3\n        /* \"#utility.yul\":14336:14345   */\n      dup10\n        /* \"#utility.yul\":14332:14354   */\n      add\n        /* \"#utility.yul\":14301:14364   */\n      tag_172\n      jump\t// in\n    tag_301:\n        /* \"#utility.yul\":14291:14364   */\n      swap5\n      pop\n        /* \"#utility.yul\":14246:14374   */\n      pop\n        /* \"#utility.yul\":14413:14415   */\n      0x40\n        /* \"#utility.yul\":14439:14503   */\n      tag_302\n        /* \"#utility.yul\":14495:14502   */\n      dup9\n        /* \"#utility.yul\":14486:14492   */\n      dup3\n        /* \"#utility.yul\":14475:14484   */\n      dup10\n        /* \"#utility.yul\":14471:14493   */\n      add\n        /* \"#utility.yul\":14439:14503   */\n      tag_173\n      jump\t// in\n    tag_302:\n        /* \"#utility.yul\":14429:14503   */\n      swap4\n      pop\n        /* \"#utility.yul\":14384:14513   */\n      pop\n        /* \"#utility.yul\":14552:14554   */\n      0x60\n        /* \"#utility.yul\":14578:14642   */\n      tag_303\n        /* \"#utility.yul\":14634:14641   */\n      dup9\n        /* \"#utility.yul\":14625:14631   */\n      dup3\n        /* \"#utility.yul\":14614:14623   */\n      dup10\n        /* \"#utility.yul\":14610:14632   */\n      add\n        /* \"#utility.yul\":14578:14642   */\n      tag_173\n      jump\t// in\n    tag_303:\n        /* \"#utility.yul\":14568:14642   */\n      swap3\n      pop\n        /* \"#utility.yul\":14523:14652   */\n      pop\n        /* \"#utility.yul\":14691:14694   */\n      0x80\n        /* \"#utility.yul\":14718:14781   */\n      tag_304\n        /* \"#utility.yul\":14773:14780   */\n      dup9\n        /* \"#utility.yul\":14764:14770   */\n      dup3\n        /* \"#utility.yul\":14753:14762   */\n      dup10\n        /* \"#utility.yul\":14749:14771   */\n      add\n        /* \"#utility.yul\":14718:14781   */\n      tag_170\n      jump\t// in\n    tag_304:\n        /* \"#utility.yul\":14708:14781   */\n      swap2\n      pop\n        /* \"#utility.yul\":14662:14791   */\n      pop\n        /* \"#utility.yul\":13827:14798   */\n      swap3\n      swap6\n      pop\n      swap3\n      swap6\n      swap1\n      swap4\n      pop\n      jump\t// out\n        /* \"#utility.yul\":14804:15038   */\n    tag_174:\n        /* \"#utility.yul\":14944:14978   */\n      0x796f7520646f206e6f742068617665207065726d697373696f6e20746f206361\n        /* \"#utility.yul\":14940:14941   */\n      0x00\n        /* \"#utility.yul\":14932:14938   */\n      dup3\n        /* \"#utility.yul\":14928:14942   */\n      add\n        /* \"#utility.yul\":14921:14979   */\n      mstore\n        /* \"#utility.yul\":15013:15030   */\n      0x6c6c20746869732066756e74696f6e0000000000000000000000000000000000\n        /* \"#utility.yul\":15008:15010   */\n      0x20\n        /* \"#utility.yul\":15000:15006   */\n      dup3\n        /* \"#utility.yul\":14996:15011   */\n      add\n        /* \"#utility.yul\":14989:15031   */\n      mstore\n        /* \"#utility.yul\":14804:15038   */\n      pop\n      jump\t// out\n        /* \"#utility.yul\":15044:15410   */\n    tag_175:\n        /* \"#utility.yul\":15186:15189   */\n      0x00\n        /* \"#utility.yul\":15207:15274   */\n      tag_307\n        /* \"#utility.yul\":15271:15273   */\n      0x2f\n        /* \"#utility.yul\":15266:15269   */\n      dup4\n        /* \"#utility.yul\":15207:15274   */\n      tag_147\n      jump\t// in\n    tag_307:\n        /* \"#utility.yul\":15200:15274   */\n      swap2\n      pop\n        /* \"#utility.yul\":15283:15376   */\n      tag_308\n        /* \"#utility.yul\":15372:15375   */\n      dup3\n        /* \"#utility.yul\":15283:15376   */\n      tag_174\n      jump\t// in\n    tag_308:\n        /* \"#utility.yul\":15401:15403   */\n      0x40\n        /* \"#utility.yul\":15396:15399   */\n      dup3\n        /* \"#utility.yul\":15392:15404   */\n      add\n        /* \"#utility.yul\":15385:15404   */\n      swap1\n      pop\n        /* \"#utility.yul\":15044:15410   */\n      swap2\n      swap1\n      pop\n      jump\t// out\n        /* \"#utility.yul\":15416:15835   */\n    tag_120:\n        /* \"#utility.yul\":15582:15586   */\n      0x00\n        /* \"#utility.yul\":15620:15622   */\n      0x20\n        /* \"#utility.yul\":15609:15618   */\n      dup3\n        /* \"#utility.yul\":15605:15623   */\n      add\n        /* \"#utility.yul\":15597:15623   */\n      swap1\n      pop\n        /* \"#utility.yul\":15669:15678   */\n      dup2\n        /* \"#utility.yul\":15663:15667   */\n      dup2\n        /* \"#utility.yul\":15659:15679   */\n      sub\n        /* \"#utility.yul\":15655:15656   */\n      0x00\n        /* \"#utility.yul\":15644:15653   */\n      dup4\n        /* \"#utility.yul\":15640:15657   */\n      add\n        /* \"#utility.yul\":15633:15680   */\n      mstore\n        /* \"#utility.yul\":15697:15828   */\n      tag_310\n        /* \"#utility.yul\":15823:15827   */\n      dup2\n        /* \"#utility.yul\":15697:15828   */\n      tag_175\n      jump\t// in\n    tag_310:\n        /* \"#utility.yul\":15689:15828   */\n      swap1\n      pop\n        /* \"#utility.yul\":15416:15835   */\n      swap2\n      swap1\n      pop\n      jump\t// out\n        /* \"#utility.yul\":15841:16251   */\n    tag_128:\n        /* \"#utility.yul\":15881:15888   */\n      0x00\n        /* \"#utility.yul\":15904:15924   */\n      tag_312\n        /* \"#utility.yul\":15922:15923   */\n      dup3\n        /* \"#utility.yul\":15904:15924   */\n      tag_139\n      jump\t// in\n    tag_312:\n        /* \"#utility.yul\":15899:15924   */\n      swap2\n      pop\n        /* \"#utility.yul\":15938:15958   */\n      tag_313\n        /* \"#utility.yul\":15956:15957   */\n      dup4\n        /* \"#utility.yul\":15938:15958   */\n      tag_139\n      jump\t// in\n    tag_313:\n        /* \"#utility.yul\":15933:15958   */\n      swap3\n      pop\n        /* \"#utility.yul\":15993:15994   */\n      dup3\n        /* \"#utility.yul\":15990:15991   */\n      dup3\n        /* \"#utility.yul\":15986:15995   */\n      mul\n        /* \"#utility.yul\":16015:16045   */\n      tag_314\n        /* \"#utility.yul\":16033:16044   */\n      dup2\n        /* \"#utility.yul\":16015:16045   */\n      tag_139\n      jump\t// in\n    tag_314:\n        /* \"#utility.yul\":16004:16045   */\n      swap2\n      pop\n        /* \"#utility.yul\":16194:16195   */\n      dup3\n        /* \"#utility.yul\":16185:16192   */\n      dup3\n        /* \"#utility.yul\":16181:16196   */\n      div\n        /* \"#utility.yul\":16178:16179   */\n      dup5\n        /* \"#utility.yul\":16175:16197   */\n      eq\n        /* \"#utility.yul\":16155:16156   */\n      dup4\n        /* \"#utility.yul\":16148:16157   */\n      iszero\n        /* \"#utility.yul\":16128:16211   */\n      or\n        /* \"#utility.yul\":16105:16244   */\n      tag_315\n      jumpi\n        /* \"#utility.yul\":16224:16242   */\n      tag_316\n      tag_150\n      jump\t// in\n    tag_316:\n        /* \"#utility.yul\":16105:16244   */\n    tag_315:\n        /* \"#utility.yul\":15889:16251   */\n      pop\n        /* \"#utility.yul\":15841:16251   */\n      swap3\n      swap2\n      pop\n      pop\n      jump\t// out\n        /* \"#utility.yul\":16257:16437   */\n    tag_176:\n        /* \"#utility.yul\":16305:16382   */\n      0x4e487b7100000000000000000000000000000000000000000000000000000000\n        /* \"#utility.yul\":16302:16303   */\n      0x00\n        /* \"#utility.yul\":16295:16383   */\n      mstore\n        /* \"#utility.yul\":16402:16406   */\n      0x12\n        /* \"#utility.yul\":16399:16400   */\n      0x04\n        /* \"#utility.yul\":16392:16407   */\n      mstore\n        /* \"#utility.yul\":16426:16430   */\n      0x24\n        /* \"#utility.yul\":16423:16424   */\n      0x00\n        /* \"#utility.yul\":16416:16431   */\n      revert\n        /* \"#utility.yul\":16443:16628   */\n    tag_130:\n        /* \"#utility.yul\":16483:16484   */\n      0x00\n        /* \"#utility.yul\":16500:16520   */\n      tag_319\n        /* \"#utility.yul\":16518:16519   */\n      dup3\n        /* \"#utility.yul\":16500:16520   */\n      tag_139\n      jump\t// in\n    tag_319:\n        /* \"#utility.yul\":16495:16520   */\n      swap2\n      pop\n        /* \"#utility.yul\":16534:16554   */\n      tag_320\n        /* \"#utility.yul\":16552:16553   */\n      dup4\n        /* \"#utility.yul\":16534:16554   */\n      tag_139\n      jump\t// in\n    tag_320:\n        /* \"#utility.yul\":16529:16554   */\n      swap3\n      pop\n        /* \"#utility.yul\":16573:16574   */\n      dup3\n        /* \"#utility.yul\":16563:16598   */\n      tag_321\n      jumpi\n        /* \"#utility.yul\":16578:16596   */\n      tag_322\n      tag_176\n      jump\t// in\n    tag_322:\n        /* \"#utility.yul\":16563:16598   */\n    tag_321:\n        /* \"#utility.yul\":16620:16621   */\n      dup3\n        /* \"#utility.yul\":16617:16618   */\n      dup3\n        /* \"#utility.yul\":16613:16622   */\n      div\n        /* \"#utility.yul\":16608:16622   */\n      swap1\n      pop\n        /* \"#utility.yul\":16443:16628   */\n      swap3\n      swap2\n      pop\n      pop\n      jump\t// out\n\n    auxdata: 0xa26469706673582212202eb649b3fd00e88be6a0b2f253c9b58aa0afa29be0a8ca6ccd2e77b3d47fc4fe64736f6c634300081e0033\n}\n",
				"bytecode": {
					"linkReferences": {},
					"object": "60806040525f60055f6101000a81548160ff021916908315150217905550348015610028575f5ffd5b5060405161148a38038061148a833981810160405281019061004a9190610129565b73694aa1769357215de4fac081bf1f309adc32530660015f6101000a81548173ffffffffffffffffffffffffffffffffffffffff021916908373ffffffffffffffffffffffffffffffffffffffff1602179055503360025f6101000a81548173ffffffffffffffffffffffffffffffffffffffff021916908373ffffffffffffffffffffffffffffffffffffffff160217905550426003819055508060048190555050610154565b5f5ffd5b5f819050919050565b610108816100f6565b8114610112575f5ffd5b50565b5f81519050610123816100ff565b92915050565b5f6020828403121561013e5761013d6100f2565b5b5f61014b84828501610115565b91505092915050565b611329806101615f395ff3fe608060405260043610610090575f3560e01c8063b60d428811610058578063b60d42881461014e578063bea4dfb514610158578063d39cf00614610182578063da4658e0146101aa578063f2fde38b146101d457610090565b806313ffff0114610094578063590e1ae3146100bc5780638da5cb5b146100d25780638edd6eb6146100fc5780639f883a0514610112575b5f5ffd5b34801561009f575f5ffd5b506100ba60048036038101906100b59190610b6c565b6101fc565b005b3480156100c7575f5ffd5b506100d06102cf565b005b3480156100dd575f5ffd5b506100e661051c565b6040516100f39190610ba6565b60405180910390f35b348015610107575f5ffd5b50610110610541565b005b34801561011d575f5ffd5b5061013860048036038101906101339190610b6c565b61077d565b6040516101459190610bd7565b60405180910390f35b610156610791565b005b348015610163575f5ffd5b5061016c610889565b6040516101799190610c08565b60405180910390f35b34801561018d575f5ffd5b506101a860048036038101906101a39190610c4b565b610926565b005b3480156101b5575f5ffd5b506101be6109fb565b6040516101cb9190610ca3565b60405180910390f35b3480156101df575f5ffd5b506101fa60048036038101906101f59190610b6c565b610a0d565b005b60025f9054906101000a900473ffffffffffffffffffffffffffffffffffffffff1673ffffffffffffffffffffffffffffffffffffffff163373ffffffffffffffffffffffffffffffffffffffff161461028b576040517f08c379a000000000000000000000000000000000000000000000000000000000815260040161028290610d3c565b60405180910390fd5b80600560016101000a81548173ffffffffffffffffffffffffffffffffffffffff021916908373ffffffffffffffffffffffffffffffffffffffff16021790555050565b6004546003546102df9190610d87565b421015610321576040517f08c379a000000000000000000000000000000000000000000000000000000000815260040161031890610e04565b60405180910390fd5b678ac7230489e8000061033347610adf565b1015610374576040517f08c379a000000000000000000000000000000000000000000000000000000000815260040161036b90610e6c565b60405180910390fd5b5f5f5f3373ffffffffffffffffffffffffffffffffffffffff1673ffffffffffffffffffffffffffffffffffffffff1681526020019081526020015f2054036103f2576040517f08c379a00000000000000000000000000000000000000000000000000000000081526004016103e990610ed4565b60405180910390fd5b5f3373ffffffffffffffffffffffffffffffffffffffff165f5f3373ffffffffffffffffffffffffffffffffffffffff1673ffffffffffffffffffffffffffffffffffffffff1681526020019081526020015f205460405161045390610f1f565b5f6040518083038185875af1925050503d805f811461048d576040519150601f19603f3d011682016040523d82523d5f602084013e610492565b606091505b505080915050806104d8576040517f08c379a00000000000000000000000000000000000000000000000000000000081526004016104cf90610f7d565b60405180910390fd5b5f5f5f3373ffffffffffffffffffffffffffffffffffffffff1673ffffffffffffffffffffffffffffffffffffffff1681526020019081526020015f208190555050565b60025f9054906101000a900473ffffffffffffffffffffffffffffffffffffffff1681565b6004546003546105519190610d87565b421015610593576040517f08c379a000000000000000000000000000000000000000000000000000000000815260040161058a90610e04565b60405180910390fd5b60025f9054906101000a900473ffffffffffffffffffffffffffffffffffffffff1673ffffffffffffffffffffffffffffffffffffffff163373ffffffffffffffffffffffffffffffffffffffff1614610622576040517f08c379a000000000000000000000000000000000000000000000000000000000815260040161061990610d3c565b60405180910390fd5b678ac7230489e8000061063447610adf565b1015610675576040517f08c379a000000000000000000000000000000000000000000000000000000000815260040161066c90610fe5565b60405180910390fd5b5f3373ffffffffffffffffffffffffffffffffffffffff164760405161069a90610f1f565b5f6040518083038185875af1925050503d805f81146106d4576040519150601f19603f3d011682016040523d82523d5f602084013e6106d9565b606091505b5050809150508061071f576040517f08c379a000000000000000000000000000000000000000000000000000000000815260040161071690610f7d565b60405180910390fd5b5f5f5f3373ffffffffffffffffffffffffffffffffffffffff1673ffffffffffffffffffffffffffffffffffffffff1681526020019081526020015f2081905550600160055f6101000a81548160ff02191690831515021790555050565b5f602052805f5260405f205f915090505481565b670de0b6b3a76400006107a334610adf565b10156107e4576040517f08c379a00000000000000000000000000000000000000000000000000000000081526004016107db9061104d565b60405180910390fd5b6004546003546107f49190610d87565b4210610835576040517f08c379a000000000000000000000000000000000000000000000000000000000815260040161082c906110b5565b60405180910390fd5b345f5f3373ffffffffffffffffffffffffffffffffffffffff1673ffffffffffffffffffffffffffffffffffffffff1681526020019081526020015f205f8282546108809190610d87565b92505081905550565b5f5f60015f9054906101000a900473ffffffffffffffffffffffffffffffffffffffff1673ffffffffffffffffffffffffffffffffffffffff1663feaf968c6040518163ffffffff1660e01b815260040160a060405180830381865afa1580156108f5573d5f5f3e3d5ffd5b505050506040513d601f19601f820116820180604052508101906109199190611150565b5050509150508091505090565b600560019054906101000a900473ffffffffffffffffffffffffffffffffffffffff1673ffffffffffffffffffffffffffffffffffffffff163373ffffffffffffffffffffffffffffffffffffffff16146109b6576040517f08c379a00000000000000000000000000000000000000000000000000000000081526004016109ad90611237565b60405180910390fd5b805f5f8473ffffffffffffffffffffffffffffffffffffffff1673ffffffffffffffffffffffffffffffffffffffff1681526020019081526020015f20819055505050565b60055f9054906101000a900460ff1681565b60025f9054906101000a900473ffffffffffffffffffffffffffffffffffffffff1673ffffffffffffffffffffffffffffffffffffffff163373ffffffffffffffffffffffffffffffffffffffff1614610a9c576040517f08c379a0000000000000000000000000000000000000000000000000000000008152600401610a9390610d3c565b60405180910390fd5b8060025f6101000a81548173ffffffffffffffffffffffffffffffffffffffff021916908373ffffffffffffffffffffffffffffffffffffffff16021790555050565b5f5f610ae9610889565b90506305f5e1008184610afc9190611255565b610b0691906112c3565b915050919050565b5f5ffd5b5f73ffffffffffffffffffffffffffffffffffffffff82169050919050565b5f610b3b82610b12565b9050919050565b610b4b81610b31565b8114610b55575f5ffd5b50565b5f81359050610b6681610b42565b92915050565b5f60208284031215610b8157610b80610b0e565b5b5f610b8e84828501610b58565b91505092915050565b610ba081610b31565b82525050565b5f602082019050610bb95f830184610b97565b92915050565b5f819050919050565b610bd181610bbf565b82525050565b5f602082019050610bea5f830184610bc8565b92915050565b5f819050919050565b610c0281610bf0565b82525050565b5f602082019050610c1b5f830184610bf9565b92915050565b610c2a81610bbf565b8114610c34575f5ffd5b50565b5f81359050610c4581610c21565b92915050565b5f5f60408385031215610c6157610c60610b0e565b5b5f610c6e85828601610b58565b9250506020610c7f85828601610c37565b9150509250929050565b5f8115159050919050565b610c9d81610c89565b82525050565b5f602082019050610cb65f830184610c94565b92915050565b5f82825260208201905092915050565b7f746869732066756e6374696f6e2063616e206f6e6c792062652063616c6c65645f8201527f206279206f776e65720000000000000000000000000000000000000000000000602082015250565b5f610d26602983610cbc565b9150610d3182610ccc565b604082019050919050565b5f6020820190508181035f830152610d5381610d1a565b9050919050565b7f4e487b71000000000000000000000000000000000000000000000000000000005f52601160045260245ffd5b5f610d9182610bbf565b9150610d9c83610bbf565b9250828201905080821115610db457610db3610d5a565b5b92915050565b7f77696e646f77206973206e6f7420636c6f7365640000000000000000000000005f82015250565b5f610dee601483610cbc565b9150610df982610dba565b602082019050919050565b5f6020820190508181035f830152610e1b81610de2565b9050919050565b7f54617267657420697320726561636865640000000000000000000000000000005f82015250565b5f610e56601183610cbc565b9150610e6182610e22565b602082019050919050565b5f6020820190508181035f830152610e8381610e4a565b9050919050565b7f7468657265206973206e6f2066756e6420666f7220796f7500000000000000005f82015250565b5f610ebe601883610cbc565b9150610ec982610e8a565b602082019050919050565b5f6020820190508181035f830152610eeb81610eb2565b9050919050565b5f81905092915050565b50565b5f610f0a5f83610ef2565b9150610f1582610efc565b5f82019050919050565b5f610f2982610eff565b9150819050919050565b7f7472616e73666572207478206661696c656400000000000000000000000000005f82015250565b5f610f67601283610cbc565b9150610f7282610f33565b602082019050919050565b5f6020820190508181035f830152610f9481610f5b565b9050919050565b7f546172676574206973206e6f74207265616368656400000000000000000000005f82015250565b5f610fcf601583610cbc565b9150610fda82610f9b565b602082019050919050565b5f6020820190508181035f830152610ffc81610fc3565b9050919050565b7f53656e64206d6f726520455448000000000000000000000000000000000000005f82015250565b5f611037600d83610cbc565b915061104282611003565b602082019050919050565b5f6020820190508181035f8301526110648161102b565b9050919050565b7f77696e646f7720697320636c6f736564000000000000000000000000000000005f82015250565b5f61109f601083610cbc565b91506110aa8261106b565b602082019050919050565b5f6020820190508181035f8301526110cc81611093565b9050919050565b5f69ffffffffffffffffffff82169050919050565b6110f1816110d3565b81146110fb575f5ffd5b50565b5f8151905061110c816110e8565b92915050565b61111b81610bf0565b8114611125575f5ffd5b50565b5f8151905061113681611112565b92915050565b5f8151905061114a81610c21565b92915050565b5f5f5f5f5f60a0868803121561116957611168610b0e565b5b5f611176888289016110fe565b955050602061118788828901611128565b94505060406111988882890161113c565b93505060606111a98882890161113c565b92505060806111ba888289016110fe565b9150509295509295909350565b7f796f7520646f206e6f742068617665207065726d697373696f6e20746f2063615f8201527f6c6c20746869732066756e74696f6e0000000000000000000000000000000000602082015250565b5f611221602f83610cbc565b915061122c826111c7565b604082019050919050565b5f6020820190508181035f83015261124e81611215565b9050919050565b5f61125f82610bbf565b915061126a83610bbf565b925082820261127881610bbf565b9150828204841483151761128f5761128e610d5a565b5b5092915050565b7f4e487b71000000000000000000000000000000000000000000000000000000005f52601260045260245ffd5b5f6112cd82610bbf565b91506112d883610bbf565b9250826112e8576112e7611296565b5b82820490509291505056fea26469706673582212202eb649b3fd00e88be6a0b2f253c9b58aa0afa29be0a8ca6ccd2e77b3d47fc4fe64736f6c634300081e0033",
					"opcodes": "PUSH1 0x80 PUSH1 0x40 MSTORE PUSH0 PUSH1 0x5 PUSH0 PUSH2 0x100 EXP DUP2 SLOAD DUP2 PUSH1 0xFF MUL NOT AND SWAP1 DUP4 ISZERO ISZERO MUL OR SWAP1 SSTORE POP CALLVALUE DUP1 ISZERO PUSH2 0x28 JUMPI PUSH0 PUSH0 REVERT JUMPDEST POP PUSH1 0x40 MLOAD PUSH2 0x148A CODESIZE SUB DUP1 PUSH2 0x148A DUP4 CODECOPY DUP2 DUP2 ADD PUSH1 0x40 MSTORE DUP2 ADD SWAP1 PUSH2 0x4A SWAP2 SWAP1 PUSH2 0x129 JUMP JUMPDEST PUSH20 0x694AA1769357215DE4FAC081BF1F309ADC325306 PUSH1 0x1 PUSH0 PUSH2 0x100 EXP DUP2 SLOAD DUP2 PUSH20 0xFFFFFFFFFFFFFFFFFFFFFFFFFFFFFFFFFFFFFFFF MUL NOT AND SWAP1 DUP4 PUSH20 0xFFFFFFFFFFFFFFFFFFFFFFFFFFFFFFFFFFFFFFFF AND MUL OR SWAP1 SSTORE POP CALLER PUSH1 0x2 PUSH0 PUSH2 0x100 EXP DUP2 SLOAD DUP2 PUSH20 0xFFFFFFFFFFFFFFFFFFFFFFFFFFFFFFFFFFFFFFFF MUL NOT AND SWAP1 DUP4 PUSH20 0xFFFFFFFFFFFFFFFFFFFFFFFFFFFFFFFFFFFFFFFF AND MUL OR SWAP1 SSTORE POP TIMESTAMP PUSH1 0x3 DUP2 SWAP1 SSTORE POP DUP1 PUSH1 0x4 DUP2 SWAP1 SSTORE POP POP PUSH2 0x154 JUMP JUMPDEST PUSH0 PUSH0 REVERT JUMPDEST PUSH0 DUP2 SWAP1 POP SWAP2 SWAP1 POP JUMP JUMPDEST PUSH2 0x108 DUP2 PUSH2 0xF6 JUMP JUMPDEST DUP2 EQ PUSH2 0x112 JUMPI PUSH0 PUSH0 REVERT JUMPDEST POP JUMP JUMPDEST PUSH0 DUP2 MLOAD SWAP1 POP PUSH2 0x123 DUP2 PUSH2 0xFF JUMP JUMPDEST SWAP3 SWAP2 POP POP JUMP JUMPDEST PUSH0 PUSH1 0x20 DUP3 DUP5 SUB SLT ISZERO PUSH2 0x13E JUMPI PUSH2 0x13D PUSH2 0xF2 JUMP JUMPDEST JUMPDEST PUSH0 PUSH2 0x14B DUP5 DUP3 DUP6 ADD PUSH2 0x115 JUMP JUMPDEST SWAP2 POP POP SWAP3 SWAP2 POP POP JUMP JUMPDEST PUSH2 0x1329 DUP1 PUSH2 0x161 PUSH0 CODECOPY PUSH0 RETURN INVALID PUSH1 0x80 PUSH1 0x40 MSTORE PUSH1 0x4 CALLDATASIZE LT PUSH2 0x90 JUMPI PUSH0 CALLDATALOAD PUSH1 0xE0 SHR DUP1 PUSH4 0xB60D4288 GT PUSH2 0x58 JUMPI DUP1 PUSH4 0xB60D4288 EQ PUSH2 0x14E JUMPI DUP1 PUSH4 0xBEA4DFB5 EQ PUSH2 0x158 JUMPI DUP1 PUSH4 0xD39CF006 EQ PUSH2 0x182 JUMPI DUP1 PUSH4 0xDA4658E0 EQ PUSH2 0x1AA JUMPI DUP1 PUSH4 0xF2FDE38B EQ PUSH2 0x1D4 JUMPI PUSH2 0x90 JUMP JUMPDEST DUP1 PUSH4 0x13FFFF01 EQ PUSH2 0x94 JUMPI DUP1 PUSH4 0x590E1AE3 EQ PUSH2 0xBC JUMPI DUP1 PUSH4 0x8DA5CB5B EQ PUSH2 0xD2 JUMPI DUP1 PUSH4 0x8EDD6EB6 EQ PUSH2 0xFC JUMPI DUP1 PUSH4 0x9F883A05 EQ PUSH2 0x112 JUMPI JUMPDEST PUSH0 PUSH0 REVERT JUMPDEST CALLVALUE DUP1 ISZERO PUSH2 0x9F JUMPI PUSH0 PUSH0 REVERT JUMPDEST POP PUSH2 0xBA PUSH1 0x4 DUP1 CALLDATASIZE SUB DUP2 ADD SWAP1 PUSH2 0xB5 SWAP2 SWAP1 PUSH2 0xB6C JUMP JUMPDEST PUSH2 0x1FC JUMP JUMPDEST STOP JUMPDEST CALLVALUE DUP1 ISZERO PUSH2 0xC7 JUMPI PUSH0 PUSH0 REVERT JUMPDEST POP PUSH2 0xD0 PUSH2 0x2CF JUMP JUMPDEST STOP JUMPDEST CALLVALUE DUP1 ISZERO PUSH2 0xDD JUMPI PUSH0 PUSH0 REVERT JUMPDEST POP PUSH2 0xE6 PUSH2 0x51C JUMP JUMPDEST PUSH1 0x40 MLOAD PUSH2 0xF3 SWAP2 SWAP1 PUSH2 0xBA6 JUMP JUMPDEST PUSH1 0x40 MLOAD DUP1 SWAP2 SUB SWAP1 RETURN JUMPDEST CALLVALUE DUP1 ISZERO PUSH2 0x107 JUMPI PUSH0 PUSH0 REVERT JUMPDEST POP PUSH2 0x110 PUSH2 0x541 JUMP JUMPDEST STOP JUMPDEST CALLVALUE DUP1 ISZERO PUSH2 0x11D JUMPI PUSH0 PUSH0 REVERT JUMPDEST POP PUSH2 0x138 PUSH1 0x4 DUP1 CALLDATASIZE SUB DUP2 ADD SWAP1 PUSH2 0x133 SWAP2 SWAP1 PUSH2 0xB6C JUMP JUMPDEST PUSH2 0x77D JUMP JUMPDEST PUSH1 0x40 MLOAD PUSH2 0x145 SWAP2 SWAP1 PUSH2 0xBD7 JUMP JUMPDEST PUSH1 0x40 MLOAD DUP1 SWAP2 SUB SWAP1 RETURN JUMPDEST PUSH2 0x156 PUSH2 0x791 JUMP JUMPDEST STOP JUMPDEST CALLVALUE DUP1 ISZERO PUSH2 0x163 JUMPI PUSH0 PUSH0 REVERT JUMPDEST POP PUSH2 0x16C PUSH2 0x889 JUMP JUMPDEST PUSH1 0x40 MLOAD PUSH2 0x179 SWAP2 SWAP1 PUSH2 0xC08 JUMP JUMPDEST PUSH1 0x40 MLOAD DUP1 SWAP2 SUB SWAP1 RETURN JUMPDEST CALLVALUE DUP1 ISZERO PUSH2 0x18D JUMPI PUSH0 PUSH0 REVERT JUMPDEST POP PUSH2 0x1A8 PUSH1 0x4 DUP1 CALLDATASIZE SUB DUP2 ADD SWAP1 PUSH2 0x1A3 SWAP2 SWAP1 PUSH2 0xC4B JUMP JUMPDEST PUSH2 0x926 JUMP JUMPDEST STOP JUMPDEST CALLVALUE DUP1 ISZERO PUSH2 0x1B5 JUMPI PUSH0 PUSH0 REVERT JUMPDEST POP PUSH2 0x1BE PUSH2 0x9FB JUMP JUMPDEST PUSH1 0x40 MLOAD PUSH2 0x1CB SWAP2 SWAP1 PUSH2 0xCA3 JUMP JUMPDEST PUSH1 0x40 MLOAD DUP1 SWAP2 SUB SWAP1 RETURN JUMPDEST CALLVALUE DUP1 ISZERO PUSH2 0x1DF JUMPI PUSH0 PUSH0 REVERT JUMPDEST POP PUSH2 0x1FA PUSH1 0x4 DUP1 CALLDATASIZE SUB DUP2 ADD SWAP1 PUSH2 0x1F5 SWAP2 SWAP1 PUSH2 0xB6C JUMP JUMPDEST PUSH2 0xA0D JUMP JUMPDEST STOP JUMPDEST PUSH1 0x2 PUSH0 SWAP1 SLOAD SWAP1 PUSH2 0x100 EXP SWAP1 DIV PUSH20 0xFFFFFFFFFFFFFFFFFFFFFFFFFFFFFFFFFFFFFFFF AND PUSH20 0xFFFFFFFFFFFFFFFFFFFFFFFFFFFFFFFFFFFFFFFF AND CALLER PUSH20 0xFFFFFFFFFFFFFFFFFFFFFFFFFFFFFFFFFFFFFFFF AND EQ PUSH2 0x28B JUMPI PUSH1 0x40 MLOAD PUSH32 0x8C379A000000000000000000000000000000000000000000000000000000000 DUP2 MSTORE PUSH1 0x4 ADD PUSH2 0x282 SWAP1 PUSH2 0xD3C JUMP JUMPDEST PUSH1 0x40 MLOAD DUP1 SWAP2 SUB SWAP1 REVERT JUMPDEST DUP1 PUSH1 0x5 PUSH1 0x1 PUSH2 0x100 EXP DUP2 SLOAD DUP2 PUSH20 0xFFFFFFFFFFFFFFFFFFFFFFFFFFFFFFFFFFFFFFFF MUL NOT AND SWAP1 DUP4 PUSH20 0xFFFFFFFFFFFFFFFFFFFFFFFFFFFFFFFFFFFFFFFF AND MUL OR SWAP1 SSTORE POP POP JUMP JUMPDEST PUSH1 0x4 SLOAD PUSH1 0x3 SLOAD PUSH2 0x2DF SWAP2 SWAP1 PUSH2 0xD87 JUMP JUMPDEST TIMESTAMP LT ISZERO PUSH2 0x321 JUMPI PUSH1 0x40 MLOAD PUSH32 0x8C379A000000000000000000000000000000000000000000000000000000000 DUP2 MSTORE PUSH1 0x4 ADD PUSH2 0x318 SWAP1 PUSH2 0xE04 JUMP JUMPDEST PUSH1 0x40 MLOAD DUP1 SWAP2 SUB SWAP1 REVERT JUMPDEST PUSH8 0x8AC7230489E80000 PUSH2 0x333 SELFBALANCE PUSH2 0xADF JUMP JUMPDEST LT ISZERO PUSH2 0x374 JUMPI PUSH1 0x40 MLOAD PUSH32 0x8C379A000000000000000000000000000000000000000000000000000000000 DUP2 MSTORE PUSH1 0x4 ADD PUSH2 0x36B SWAP1 PUSH2 0xE6C JUMP JUMPDEST PUSH1 0x40 MLOAD DUP1 SWAP2 SUB SWAP1 REVERT JUMPDEST PUSH0 PUSH0 PUSH0 CALLER PUSH20 0xFFFFFFFFFFFFFFFFFFFFFFFFFFFFFFFFFFFFFFFF AND PUSH20 0xFFFFFFFFFFFFFFFFFFFFFFFFFFFFFFFFFFFFFFFF AND DUP2 MSTORE PUSH1 0x20 ADD SWAP1 DUP2 MSTORE PUSH1 0x20 ADD PUSH0 KECCAK256 SLOAD SUB PUSH2 0x3F2 JUMPI PUSH1 0x40 MLOAD PUSH32 0x8C379A000000000000000000000000000000000000000000000000000000000 DUP2 MSTORE PUSH1 0x4 ADD PUSH2 0x3E9 SWAP1 PUSH2 0xED4 JUMP JUMPDEST PUSH1 0x40 MLOAD DUP1 SWAP2 SUB SWAP1 REVERT JUMPDEST PUSH0 CALLER PUSH20 0xFFFFFFFFFFFFFFFFFFFFFFFFFFFFFFFFFFFFFFFF AND PUSH0 PUSH0 CALLER PUSH20 0xFFFFFFFFFFFFFFFFFFFFFFFFFFFFFFFFFFFFFFFF AND PUSH20 0xFFFFFFFFFFFFFFFFFFFFFFFFFFFFFFFFFFFFFFFF AND DUP2 MSTORE PUSH1 0x20 ADD SWAP1 DUP2 MSTORE PUSH1 0x20 ADD PUSH0 KECCAK256 SLOAD PUSH1 0x40 MLOAD PUSH2 0x453 SWAP1 PUSH2 0xF1F JUMP JUMPDEST PUSH0 PUSH1 0x40 MLOAD DUP1 DUP4 SUB DUP2 DUP6 DUP8 GAS CALL SWAP3 POP POP POP RETURNDATASIZE DUP1 PUSH0 DUP2 EQ PUSH2 0x48D JUMPI PUSH1 0x40 MLOAD SWAP2 POP PUSH1 0x1F NOT PUSH1 0x3F RETURNDATASIZE ADD AND DUP3 ADD PUSH1 0x40 MSTORE RETURNDATASIZE DUP3 MSTORE RETURNDATASIZE PUSH0 PUSH1 0x20 DUP5 ADD RETURNDATACOPY PUSH2 0x492 JUMP JUMPDEST PUSH1 0x60 SWAP2 POP JUMPDEST POP POP DUP1 SWAP2 POP POP DUP1 PUSH2 0x4D8 JUMPI PUSH1 0x40 MLOAD PUSH32 0x8C379A000000000000000000000000000000000000000000000000000000000 DUP2 MSTORE PUSH1 0x4 ADD PUSH2 0x4CF SWAP1 PUSH2 0xF7D JUMP JUMPDEST PUSH1 0x40 MLOAD DUP1 SWAP2 SUB SWAP1 REVERT JUMPDEST PUSH0 PUSH0 PUSH0 CALLER PUSH20 0xFFFFFFFFFFFFFFFFFFFFFFFFFFFFFFFFFFFFFFFF AND PUSH20 0xFFFFFFFFFFFFFFFFFFFFFFFFFFFFFFFFFFFFFFFF AND DUP2 MSTORE PUSH1 0x20 ADD SWAP1 DUP2 MSTORE PUSH1 0x20 ADD PUSH0 KECCAK256 DUP2 SWAP1 SSTORE POP POP JUMP JUMPDEST PUSH1 0x2 PUSH0 SWAP1 SLOAD SWAP1 PUSH2 0x100 EXP SWAP1 DIV PUSH20 0xFFFFFFFFFFFFFFFFFFFFFFFFFFFFFFFFFFFFFFFF AND DUP2 JUMP JUMPDEST PUSH1 0x4 SLOAD PUSH1 0x3 SLOAD PUSH2 0x551 SWAP2 SWAP1 PUSH2 0xD87 JUMP JUMPDEST TIMESTAMP LT ISZERO PUSH2 0x593 JUMPI PUSH1 0x40 MLOAD PUSH32 0x8C379A000000000000000000000000000000000000000000000000000000000 DUP2 MSTORE PUSH1 0x4 ADD PUSH2 0x58A SWAP1 PUSH2 0xE04 JUMP JUMPDEST PUSH1 0x40 MLOAD DUP1 SWAP2 SUB SWAP1 REVERT JUMPDEST PUSH1 0x2 PUSH0 SWAP1 SLOAD SWAP1 PUSH2 0x100 EXP SWAP1 DIV PUSH20 0xFFFFFFFFFFFFFFFFFFFFFFFFFFFFFFFFFFFFFFFF AND PUSH20 0xFFFFFFFFFFFFFFFFFFFFFFFFFFFFFFFFFFFFFFFF AND CALLER PUSH20 0xFFFFFFFFFFFFFFFFFFFFFFFFFFFFFFFFFFFFFFFF AND EQ PUSH2 0x622 JUMPI PUSH1 0x40 MLOAD PUSH32 0x8C379A000000000000000000000000000000000000000000000000000000000 DUP2 MSTORE PUSH1 0x4 ADD PUSH2 0x619 SWAP1 PUSH2 0xD3C JUMP JUMPDEST PUSH1 0x40 MLOAD DUP1 SWAP2 SUB SWAP1 REVERT JUMPDEST PUSH8 0x8AC7230489E80000 PUSH2 0x634 SELFBALANCE PUSH2 0xADF JUMP JUMPDEST LT ISZERO PUSH2 0x675 JUMPI PUSH1 0x40 MLOAD PUSH32 0x8C379A000000000000000000000000000000000000000000000000000000000 DUP2 MSTORE PUSH1 0x4 ADD PUSH2 0x66C SWAP1 PUSH2 0xFE5 JUMP JUMPDEST PUSH1 0x40 MLOAD DUP1 SWAP2 SUB SWAP1 REVERT JUMPDEST PUSH0 CALLER PUSH20 0xFFFFFFFFFFFFFFFFFFFFFFFFFFFFFFFFFFFFFFFF AND SELFBALANCE PUSH1 0x40 MLOAD PUSH2 0x69A SWAP1 PUSH2 0xF1F JUMP JUMPDEST PUSH0 PUSH1 0x40 MLOAD DUP1 DUP4 SUB DUP2 DUP6 DUP8 GAS CALL SWAP3 POP POP POP RETURNDATASIZE DUP1 PUSH0 DUP2 EQ PUSH2 0x6D4 JUMPI PUSH1 0x40 MLOAD SWAP2 POP PUSH1 0x1F NOT PUSH1 0x3F RETURNDATASIZE ADD AND DUP3 ADD PUSH1 0x40 MSTORE RETURNDATASIZE DUP3 MSTORE RETURNDATASIZE PUSH0 PUSH1 0x20 DUP5 ADD RETURNDATACOPY PUSH2 0x6D9 JUMP JUMPDEST PUSH1 0x60 SWAP2 POP JUMPDEST POP POP DUP1 SWAP2 POP POP DUP1 PUSH2 0x71F JUMPI PUSH1 0x40 MLOAD PUSH32 0x8C379A000000000000000000000000000000000000000000000000000000000 DUP2 MSTORE PUSH1 0x4 ADD PUSH2 0x716 SWAP1 PUSH2 0xF7D JUMP JUMPDEST PUSH1 0x40 MLOAD DUP1 SWAP2 SUB SWAP1 REVERT JUMPDEST PUSH0 PUSH0 PUSH0 CALLER PUSH20 0xFFFFFFFFFFFFFFFFFFFFFFFFFFFFFFFFFFFFFFFF AND PUSH20 0xFFFFFFFFFFFFFFFFFFFFFFFFFFFFFFFFFFFFFFFF AND DUP2 MSTORE PUSH1 0x20 ADD SWAP1 DUP2 MSTORE PUSH1 0x20 ADD PUSH0 KECCAK256 DUP2 SWAP1 SSTORE POP PUSH1 0x1 PUSH1 0x5 PUSH0 PUSH2 0x100 EXP DUP2 SLOAD DUP2 PUSH1 0xFF MUL NOT AND SWAP1 DUP4 ISZERO ISZERO MUL OR SWAP1 SSTORE POP POP JUMP JUMPDEST PUSH0 PUSH1 0x20 MSTORE DUP1 PUSH0 MSTORE PUSH1 0x40 PUSH0 KECCAK256 PUSH0 SWAP2 POP SWAP1 POP SLOAD DUP2 JUMP JUMPDEST PUSH8 0xDE0B6B3A7640000 PUSH2 0x7A3 CALLVALUE PUSH2 0xADF JUMP JUMPDEST LT ISZERO PUSH2 0x7E4 JUMPI PUSH1 0x40 MLOAD PUSH32 0x8C379A000000000000000000000000000000000000000000000000000000000 DUP2 MSTORE PUSH1 0x4 ADD PUSH2 0x7DB SWAP1 PUSH2 0x104D JUMP JUMPDEST PUSH1 0x40 MLOAD DUP1 SWAP2 SUB SWAP1 REVERT JUMPDEST PUSH1 0x4 SLOAD PUSH1 0x3 SLOAD PUSH2 0x7F4 SWAP2 SWAP1 PUSH2 0xD87 JUMP JUMPDEST TIMESTAMP LT PUSH2 0x835 JUMPI PUSH1 0x40 MLOAD PUSH32 0x8C379A000000000000000000000000000000000000000000000000000000000 DUP2 MSTORE PUSH1 0x4 ADD PUSH2 0x82C SWAP1 PUSH2 0x10B5 JUMP JUMPDEST PUSH1 0x40 MLOAD DUP1 SWAP2 SUB SWAP1 REVERT JUMPDEST CALLVALUE PUSH0 PUSH0 CALLER PUSH20 0xFFFFFFFFFFFFFFFFFFFFFFFFFFFFFFFFFFFFFFFF AND PUSH20 0xFFFFFFFFFFFFFFFFFFFFFFFFFFFFFFFFFFFFFFFF AND DUP2 MSTORE PUSH1 0x20 ADD SWAP1 DUP2 MSTORE PUSH1 0x20 ADD PUSH0 KECCAK256 PUSH0 DUP3 DUP3 SLOAD PUSH2 0x880 SWAP2 SWAP1 PUSH2 0xD87 JUMP JUMPDEST SWAP3 POP POP DUP2 SWAP1 SSTORE POP JUMP JUMPDEST PUSH0 PUSH0 PUSH1 0x1 PUSH0 SWAP1 SLOAD SWAP1 PUSH2 0x100 EXP SWAP1 DIV PUSH20 0xFFFFFFFFFFFFFFFFFFFFFFFFFFFFFFFFFFFFFFFF AND PUSH20 0xFFFFFFFFFFFFFFFFFFFFFFFFFFFFFFFFFFFFFFFF AND PUSH4 0xFEAF968C PUSH1 0x40 MLOAD DUP2 PUSH4 0xFFFFFFFF AND PUSH1 0xE0 SHL DUP2 MSTORE PUSH1 0x4 ADD PUSH1 0xA0 PUSH1 0x40 MLOAD DUP1 DUP4 SUB DUP2 DUP7 GAS STATICCALL ISZERO DUP1 ISZERO PUSH2 0x8F5 JUMPI RETURNDATASIZE PUSH0 PUSH0 RETURNDATACOPY RETURNDATASIZE PUSH0 REVERT JUMPDEST POP POP POP POP PUSH1 0x40 MLOAD RETURNDATASIZE PUSH1 0x1F NOT PUSH1 0x1F DUP3 ADD AND DUP3 ADD DUP1 PUSH1 0x40 MSTORE POP DUP2 ADD SWAP1 PUSH2 0x919 SWAP2 SWAP1 PUSH2 0x1150 JUMP JUMPDEST POP POP POP SWAP2 POP POP DUP1 SWAP2 POP POP SWAP1 JUMP JUMPDEST PUSH1 0x5 PUSH1 0x1 SWAP1 SLOAD SWAP1 PUSH2 0x100 EXP SWAP1 DIV PUSH20 0xFFFFFFFFFFFFFFFFFFFFFFFFFFFFFFFFFFFFFFFF AND PUSH20 0xFFFFFFFFFFFFFFFFFFFFFFFFFFFFFFFFFFFFFFFF AND CALLER PUSH20 0xFFFFFFFFFFFFFFFFFFFFFFFFFFFFFFFFFFFFFFFF AND EQ PUSH2 0x9B6 JUMPI PUSH1 0x40 MLOAD PUSH32 0x8C379A000000000000000000000000000000000000000000000000000000000 DUP2 MSTORE PUSH1 0x4 ADD PUSH2 0x9AD SWAP1 PUSH2 0x1237 JUMP JUMPDEST PUSH1 0x40 MLOAD DUP1 SWAP2 SUB SWAP1 REVERT JUMPDEST DUP1 PUSH0 PUSH0 DUP5 PUSH20 0xFFFFFFFFFFFFFFFFFFFFFFFFFFFFFFFFFFFFFFFF AND PUSH20 0xFFFFFFFFFFFFFFFFFFFFFFFFFFFFFFFFFFFFFFFF AND DUP2 MSTORE PUSH1 0x20 ADD SWAP1 DUP2 MSTORE PUSH1 0x20 ADD PUSH0 KECCAK256 DUP2 SWAP1 SSTORE POP POP POP JUMP JUMPDEST PUSH1 0x5 PUSH0 SWAP1 SLOAD SWAP1 PUSH2 0x100 EXP SWAP1 DIV PUSH1 0xFF AND DUP2 JUMP JUMPDEST PUSH1 0x2 PUSH0 SWAP1 SLOAD SWAP1 PUSH2 0x100 EXP SWAP1 DIV PUSH20 0xFFFFFFFFFFFFFFFFFFFFFFFFFFFFFFFFFFFFFFFF AND PUSH20 0xFFFFFFFFFFFFFFFFFFFFFFFFFFFFFFFFFFFFFFFF AND CALLER PUSH20 0xFFFFFFFFFFFFFFFFFFFFFFFFFFFFFFFFFFFFFFFF AND EQ PUSH2 0xA9C JUMPI PUSH1 0x40 MLOAD PUSH32 0x8C379A000000000000000000000000000000000000000000000000000000000 DUP2 MSTORE PUSH1 0x4 ADD PUSH2 0xA93 SWAP1 PUSH2 0xD3C JUMP JUMPDEST PUSH1 0x40 MLOAD DUP1 SWAP2 SUB SWAP1 REVERT JUMPDEST DUP1 PUSH1 0x2 PUSH0 PUSH2 0x100 EXP DUP2 SLOAD DUP2 PUSH20 0xFFFFFFFFFFFFFFFFFFFFFFFFFFFFFFFFFFFFFFFF MUL NOT AND SWAP1 DUP4 PUSH20 0xFFFFFFFFFFFFFFFFFFFFFFFFFFFFFFFFFFFFFFFF AND MUL OR SWAP1 SSTORE POP POP JUMP JUMPDEST PUSH0 PUSH0 PUSH2 0xAE9 PUSH2 0x889 JUMP JUMPDEST SWAP1 POP PUSH4 0x5F5E100 DUP2 DUP5 PUSH2 0xAFC SWAP2 SWAP1 PUSH2 0x1255 JUMP JUMPDEST PUSH2 0xB06 SWAP2 SWAP1 PUSH2 0x12C3 JUMP JUMPDEST SWAP2 POP POP SWAP2 SWAP1 POP JUMP JUMPDEST PUSH0 PUSH0 REVERT JUMPDEST PUSH0 PUSH20 0xFFFFFFFFFFFFFFFFFFFFFFFFFFFFFFFFFFFFFFFF DUP3 AND SWAP1 POP SWAP2 SWAP1 POP JUMP JUMPDEST PUSH0 PUSH2 0xB3B DUP3 PUSH2 0xB12 JUMP JUMPDEST SWAP1 POP SWAP2 SWAP1 POP JUMP JUMPDEST PUSH2 0xB4B DUP2 PUSH2 0xB31 JUMP JUMPDEST DUP2 EQ PUSH2 0xB55 JUMPI PUSH0 PUSH0 REVERT JUMPDEST POP JUMP JUMPDEST PUSH0 DUP2 CALLDATALOAD SWAP1 POP PUSH2 0xB66 DUP2 PUSH2 0xB42 JUMP JUMPDEST SWAP3 SWAP2 POP POP JUMP JUMPDEST PUSH0 PUSH1 0x20 DUP3 DUP5 SUB SLT ISZERO PUSH2 0xB81 JUMPI PUSH2 0xB80 PUSH2 0xB0E JUMP JUMPDEST JUMPDEST PUSH0 PUSH2 0xB8E DUP5 DUP3 DUP6 ADD PUSH2 0xB58 JUMP JUMPDEST SWAP2 POP POP SWAP3 SWAP2 POP POP JUMP JUMPDEST PUSH2 0xBA0 DUP2 PUSH2 0xB31 JUMP JUMPDEST DUP3 MSTORE POP POP JUMP JUMPDEST PUSH0 PUSH1 0x20 DUP3 ADD SWAP1 POP PUSH2 0xBB9 PUSH0 DUP4 ADD DUP5 PUSH2 0xB97 JUMP JUMPDEST SWAP3 SWAP2 POP POP JUMP JUMPDEST PUSH0 DUP2 SWAP1 POP SWAP2 SWAP1 POP JUMP JUMPDEST PUSH2 0xBD1 DUP2 PUSH2 0xBBF JUMP JUMPDEST DUP3 MSTORE POP POP JUMP JUMPDEST PUSH0 PUSH1 0x20 DUP3 ADD SWAP1 POP PUSH2 0xBEA PUSH0 DUP4 ADD DUP5 PUSH2 0xBC8 JUMP JUMPDEST SWAP3 SWAP2 POP POP JUMP JUMPDEST PUSH0 DUP2 SWAP1 POP SWAP2 SWAP1 POP JUMP JUMPDEST PUSH2 0xC02 DUP2 PUSH2 0xBF0 JUMP JUMPDEST DUP3 MSTORE POP POP JUMP JUMPDEST PUSH0 PUSH1 0x20 DUP3 ADD SWAP1 POP PUSH2 0xC1B PUSH0 DUP4 ADD DUP5 PUSH2 0xBF9 JUMP JUMPDEST SWAP3 SWAP2 POP POP JUMP JUMPDEST PUSH2 0xC2A DUP2 PUSH2 0xBBF JUMP JUMPDEST DUP2 EQ PUSH2 0xC34 JUMPI PUSH0 PUSH0 REVERT JUMPDEST POP JUMP JUMPDEST PUSH0 DUP2 CALLDATALOAD SWAP1 POP PUSH2 0xC45 DUP2 PUSH2 0xC21 JUMP JUMPDEST SWAP3 SWAP2 POP POP JUMP JUMPDEST PUSH0 PUSH0 PUSH1 0x40 DUP4 DUP6 SUB SLT ISZERO PUSH2 0xC61 JUMPI PUSH2 0xC60 PUSH2 0xB0E JUMP JUMPDEST JUMPDEST PUSH0 PUSH2 0xC6E DUP6 DUP3 DUP7 ADD PUSH2 0xB58 JUMP JUMPDEST SWAP3 POP POP PUSH1 0x20 PUSH2 0xC7F DUP6 DUP3 DUP7 ADD PUSH2 0xC37 JUMP JUMPDEST SWAP2 POP POP SWAP3 POP SWAP3 SWAP1 POP JUMP JUMPDEST PUSH0 DUP2 ISZERO ISZERO SWAP1 POP SWAP2 SWAP1 POP JUMP JUMPDEST PUSH2 0xC9D DUP2 PUSH2 0xC89 JUMP JUMPDEST DUP3 MSTORE POP POP JUMP JUMPDEST PUSH0 PUSH1 0x20 DUP3 ADD SWAP1 POP PUSH2 0xCB6 PUSH0 DUP4 ADD DUP5 PUSH2 0xC94 JUMP JUMPDEST SWAP3 SWAP2 POP POP JUMP JUMPDEST PUSH0 DUP3 DUP3 MSTORE PUSH1 0x20 DUP3 ADD SWAP1 POP SWAP3 SWAP2 POP POP JUMP JUMPDEST PUSH32 0x746869732066756E6374696F6E2063616E206F6E6C792062652063616C6C6564 PUSH0 DUP3 ADD MSTORE PUSH32 0x206279206F776E65720000000000000000000000000000000000000000000000 PUSH1 0x20 DUP3 ADD MSTORE POP JUMP JUMPDEST PUSH0 PUSH2 0xD26 PUSH1 0x29 DUP4 PUSH2 0xCBC JUMP JUMPDEST SWAP2 POP PUSH2 0xD31 DUP3 PUSH2 0xCCC JUMP JUMPDEST PUSH1 0x40 DUP3 ADD SWAP1 POP SWAP2 SWAP1 POP JUMP JUMPDEST PUSH0 PUSH1 0x20 DUP3 ADD SWAP1 POP DUP2 DUP2 SUB PUSH0 DUP4 ADD MSTORE PUSH2 0xD53 DUP2 PUSH2 0xD1A JUMP JUMPDEST SWAP1 POP SWAP2 SWAP1 POP JUMP JUMPDEST PUSH32 0x4E487B7100000000000000000000000000000000000000000000000000000000 PUSH0 MSTORE PUSH1 0x11 PUSH1 0x4 MSTORE PUSH1 0x24 PUSH0 REVERT JUMPDEST PUSH0 PUSH2 0xD91 DUP3 PUSH2 0xBBF JUMP JUMPDEST SWAP2 POP PUSH2 0xD9C DUP4 PUSH2 0xBBF JUMP JUMPDEST SWAP3 POP DUP3 DUP3 ADD SWAP1 POP DUP1 DUP3 GT ISZERO PUSH2 0xDB4 JUMPI PUSH2 0xDB3 PUSH2 0xD5A JUMP JUMPDEST JUMPDEST SWAP3 SWAP2 POP POP JUMP JUMPDEST PUSH32 0x77696E646F77206973206E6F7420636C6F736564000000000000000000000000 PUSH0 DUP3 ADD MSTORE POP JUMP JUMPDEST PUSH0 PUSH2 0xDEE PUSH1 0x14 DUP4 PUSH2 0xCBC JUMP JUMPDEST SWAP2 POP PUSH2 0xDF9 DUP3 PUSH2 0xDBA JUMP JUMPDEST PUSH1 0x20 DUP3 ADD SWAP1 POP SWAP2 SWAP1 POP JUMP JUMPDEST PUSH0 PUSH1 0x20 DUP3 ADD SWAP1 POP DUP2 DUP2 SUB PUSH0 DUP4 ADD MSTORE PUSH2 0xE1B DUP2 PUSH2 0xDE2 JUMP JUMPDEST SWAP1 POP SWAP2 SWAP1 POP JUMP JUMPDEST PUSH32 0x5461726765742069732072656163686564000000000000000000000000000000 PUSH0 DUP3 ADD MSTORE POP JUMP JUMPDEST PUSH0 PUSH2 0xE56 PUSH1 0x11 DUP4 PUSH2 0xCBC JUMP JUMPDEST SWAP2 POP PUSH2 0xE61 DUP3 PUSH2 0xE22 JUMP JUMPDEST PUSH1 0x20 DUP3 ADD SWAP1 POP SWAP2 SWAP1 POP JUMP JUMPDEST PUSH0 PUSH1 0x20 DUP3 ADD SWAP1 POP DUP2 DUP2 SUB PUSH0 DUP4 ADD MSTORE PUSH2 0xE83 DUP2 PUSH2 0xE4A JUMP JUMPDEST SWAP1 POP SWAP2 SWAP1 POP JUMP JUMPDEST PUSH32 0x7468657265206973206E6F2066756E6420666F7220796F750000000000000000 PUSH0 DUP3 ADD MSTORE POP JUMP JUMPDEST PUSH0 PUSH2 0xEBE PUSH1 0x18 DUP4 PUSH2 0xCBC JUMP JUMPDEST SWAP2 POP PUSH2 0xEC9 DUP3 PUSH2 0xE8A JUMP JUMPDEST PUSH1 0x20 DUP3 ADD SWAP1 POP SWAP2 SWAP1 POP JUMP JUMPDEST PUSH0 PUSH1 0x20 DUP3 ADD SWAP1 POP DUP2 DUP2 SUB PUSH0 DUP4 ADD MSTORE PUSH2 0xEEB DUP2 PUSH2 0xEB2 JUMP JUMPDEST SWAP1 POP SWAP2 SWAP1 POP JUMP JUMPDEST PUSH0 DUP2 SWAP1 POP SWAP3 SWAP2 POP POP JUMP JUMPDEST POP JUMP JUMPDEST PUSH0 PUSH2 0xF0A PUSH0 DUP4 PUSH2 0xEF2 JUMP JUMPDEST SWAP2 POP PUSH2 0xF15 DUP3 PUSH2 0xEFC JUMP JUMPDEST PUSH0 DUP3 ADD SWAP1 POP SWAP2 SWAP1 POP JUMP JUMPDEST PUSH0 PUSH2 0xF29 DUP3 PUSH2 0xEFF JUMP JUMPDEST SWAP2 POP DUP2 SWAP1 POP SWAP2 SWAP1 POP JUMP JUMPDEST PUSH32 0x7472616E73666572207478206661696C65640000000000000000000000000000 PUSH0 DUP3 ADD MSTORE POP JUMP JUMPDEST PUSH0 PUSH2 0xF67 PUSH1 0x12 DUP4 PUSH2 0xCBC JUMP JUMPDEST SWAP2 POP PUSH2 0xF72 DUP3 PUSH2 0xF33 JUMP JUMPDEST PUSH1 0x20 DUP3 ADD SWAP1 POP SWAP2 SWAP1 POP JUMP JUMPDEST PUSH0 PUSH1 0x20 DUP3 ADD SWAP1 POP DUP2 DUP2 SUB PUSH0 DUP4 ADD MSTORE PUSH2 0xF94 DUP2 PUSH2 0xF5B JUMP JUMPDEST SWAP1 POP SWAP2 SWAP1 POP JUMP JUMPDEST PUSH32 0x546172676574206973206E6F7420726561636865640000000000000000000000 PUSH0 DUP3 ADD MSTORE POP JUMP JUMPDEST PUSH0 PUSH2 0xFCF PUSH1 0x15 DUP4 PUSH2 0xCBC JUMP JUMPDEST SWAP2 POP PUSH2 0xFDA DUP3 PUSH2 0xF9B JUMP JUMPDEST PUSH1 0x20 DUP3 ADD SWAP1 POP SWAP2 SWAP1 POP JUMP JUMPDEST PUSH0 PUSH1 0x20 DUP3 ADD SWAP1 POP DUP2 DUP2 SUB PUSH0 DUP4 ADD MSTORE PUSH2 0xFFC DUP2 PUSH2 0xFC3 JUMP JUMPDEST SWAP1 POP SWAP2 SWAP1 POP JUMP JUMPDEST PUSH32 0x53656E64206D6F72652045544800000000000000000000000000000000000000 PUSH0 DUP3 ADD MSTORE POP JUMP JUMPDEST PUSH0 PUSH2 0x1037 PUSH1 0xD DUP4 PUSH2 0xCBC JUMP JUMPDEST SWAP2 POP PUSH2 0x1042 DUP3 PUSH2 0x1003 JUMP JUMPDEST PUSH1 0x20 DUP3 ADD SWAP1 POP SWAP2 SWAP1 POP JUMP JUMPDEST PUSH0 PUSH1 0x20 DUP3 ADD SWAP1 POP DUP2 DUP2 SUB PUSH0 DUP4 ADD MSTORE PUSH2 0x1064 DUP2 PUSH2 0x102B JUMP JUMPDEST SWAP1 POP SWAP2 SWAP1 POP JUMP JUMPDEST PUSH32 0x77696E646F7720697320636C6F73656400000000000000000000000000000000 PUSH0 DUP3 ADD MSTORE POP JUMP JUMPDEST PUSH0 PUSH2 0x109F PUSH1 0x10 DUP4 PUSH2 0xCBC JUMP JUMPDEST SWAP2 POP PUSH2 0x10AA DUP3 PUSH2 0x106B JUMP JUMPDEST PUSH1 0x20 DUP3 ADD SWAP1 POP SWAP2 SWAP1 POP JUMP JUMPDEST PUSH0 PUSH1 0x20 DUP3 ADD SWAP1 POP DUP2 DUP2 SUB PUSH0 DUP4 ADD MSTORE PUSH2 0x10CC DUP2 PUSH2 0x1093 JUMP JUMPDEST SWAP1 POP SWAP2 SWAP1 POP JUMP JUMPDEST PUSH0 PUSH10 0xFFFFFFFFFFFFFFFFFFFF DUP3 AND SWAP1 POP SWAP2 SWAP1 POP JUMP JUMPDEST PUSH2 0x10F1 DUP2 PUSH2 0x10D3 JUMP JUMPDEST DUP2 EQ PUSH2 0x10FB JUMPI PUSH0 PUSH0 REVERT JUMPDEST POP JUMP JUMPDEST PUSH0 DUP2 MLOAD SWAP1 POP PUSH2 0x110C DUP2 PUSH2 0x10E8 JUMP JUMPDEST SWAP3 SWAP2 POP POP JUMP JUMPDEST PUSH2 0x111B DUP2 PUSH2 0xBF0 JUMP JUMPDEST DUP2 EQ PUSH2 0x1125 JUMPI PUSH0 PUSH0 REVERT JUMPDEST POP JUMP JUMPDEST PUSH0 DUP2 MLOAD SWAP1 POP PUSH2 0x1136 DUP2 PUSH2 0x1112 JUMP JUMPDEST SWAP3 SWAP2 POP POP JUMP JUMPDEST PUSH0 DUP2 MLOAD SWAP1 POP PUSH2 0x114A DUP2 PUSH2 0xC21 JUMP JUMPDEST SWAP3 SWAP2 POP POP JUMP JUMPDEST PUSH0 PUSH0 PUSH0 PUSH0 PUSH0 PUSH1 0xA0 DUP7 DUP9 SUB SLT ISZERO PUSH2 0x1169 JUMPI PUSH2 0x1168 PUSH2 0xB0E JUMP JUMPDEST JUMPDEST PUSH0 PUSH2 0x1176 DUP9 DUP3 DUP10 ADD PUSH2 0x10FE JUMP JUMPDEST SWAP6 POP POP PUSH1 0x20 PUSH2 0x1187 DUP9 DUP3 DUP10 ADD PUSH2 0x1128 JUMP JUMPDEST SWAP5 POP POP PUSH1 0x40 PUSH2 0x1198 DUP9 DUP3 DUP10 ADD PUSH2 0x113C JUMP JUMPDEST SWAP4 POP POP PUSH1 0x60 PUSH2 0x11A9 DUP9 DUP3 DUP10 ADD PUSH2 0x113C JUMP JUMPDEST SWAP3 POP POP PUSH1 0x80 PUSH2 0x11BA DUP9 DUP3 DUP10 ADD PUSH2 0x10FE JUMP JUMPDEST SWAP2 POP POP SWAP3 SWAP6 POP SWAP3 SWAP6 SWAP1 SWAP4 POP JUMP JUMPDEST PUSH32 0x796F7520646F206E6F742068617665207065726D697373696F6E20746F206361 PUSH0 DUP3 ADD MSTORE PUSH32 0x6C6C20746869732066756E74696F6E0000000000000000000000000000000000 PUSH1 0x20 DUP3 ADD MSTORE POP JUMP JUMPDEST PUSH0 PUSH2 0x1221 PUSH1 0x2F DUP4 PUSH2 0xCBC JUMP JUMPDEST SWAP2 POP PUSH2 0x122C DUP3 PUSH2 0x11C7 JUMP JUMPDEST PUSH1 0x40 DUP3 ADD SWAP1 POP SWAP2 SWAP1 POP JUMP JUMPDEST PUSH0 PUSH1 0x20 DUP3 ADD SWAP1 POP DUP2 DUP2 SUB PUSH0 DUP4 ADD MSTORE PUSH2 0x124E DUP2 PUSH2 0x1215 JUMP JUMPDEST SWAP1 POP SWAP2 SWAP1 POP JUMP JUMPDEST PUSH0 PUSH2 0x125F DUP3 PUSH2 0xBBF JUMP JUMPDEST SWAP2 POP PUSH2 0x126A DUP4 PUSH2 0xBBF JUMP JUMPDEST SWAP3 POP DUP3 DUP3 MUL PUSH2 0x1278 DUP2 PUSH2 0xBBF JUMP JUMPDEST SWAP2 POP DUP3 DUP3 DIV DUP5 EQ DUP4 ISZERO OR PUSH2 0x128F JUMPI PUSH2 0x128E PUSH2 0xD5A JUMP JUMPDEST JUMPDEST POP SWAP3 SWAP2 POP POP JUMP JUMPDEST PUSH32 0x4E487B7100000000000000000000000000000000000000000000000000000000 PUSH0 MSTORE PUSH1 0x12 PUSH1 0x4 MSTORE PUSH1 0x24 PUSH0 REVERT JUMPDEST PUSH0 PUSH2 0x12CD DUP3 PUSH2 0xBBF JUMP JUMPDEST SWAP2 POP PUSH2 0x12D8 DUP4 PUSH2 0xBBF JUMP JUMPDEST SWAP3 POP DUP3 PUSH2 0x12E8 JUMPI PUSH2 0x12E7 PUSH2 0x1296 JUMP JUMPDEST JUMPDEST DUP3 DUP3 DIV SWAP1 POP SWAP3 SWAP2 POP POP JUMP INVALID LOG2 PUSH5 0x6970667358 0x22 SLT KECCAK256 0x2E 0xB6 BLOBHASH 0xB3 REVERT STOP 0xE8 DUP12 DUPN 0xA0 0xB2 CALLCODE MSTORE8 0xC9 0xB5 DUP11 LOG0 0xAF LOG2 SWAP12 RJUMP 0xA8CA PUSH13 0xCD2E77B3D47FC4FE64736F6C63 NUMBER STOP ADDMOD 0x1E STOP CALLER "
				},
				"gasEstimates": {
					"creation": {
						"codeDepositCost": "981000",
						"executionCost": "infinite",
						"totalCost": "infinite"
					},
					"external": {
						"fund()": "infinite",
						"fundersToAmount(address)": "2890",
						"getChainlinkDataFeedLatestAnswer()": "infinite",
						"getFund()": "infinite",
						"getFundSuccess()": "2532",
						"owner()": "2553",
						"refund()": "infinite",
						"setErc20Addr(address)": "26936",
						"setFunderToAmount(address,uint256)": "25084",
						"transferOwnership(address)": "26972"
					},
					"internal": {
						"convertEthToUsd(uint256)": "infinite"
					}
				},
				"methodIdentifiers": {
					"fund()": "b60d4288",
					"fundersToAmount(address)": "9f883a05",
					"getChainlinkDataFeedLatestAnswer()": "bea4dfb5",
					"getFund()": "8edd6eb6",
					"getFundSuccess()": "da4658e0",
					"owner()": "8da5cb5b",
					"refund()": "590e1ae3",
					"setErc20Addr(address)": "13ffff01",
					"setFunderToAmount(address,uint256)": "d39cf006",
					"transferOwnership(address)": "f2fde38b"
				}
			},
			"storageLayout": {
				"storage": [
					{
						"astId": 53,
						"contract": "Chainlink_test/FundMe.sol:FundMe",
						"label": "fundersToAmount",
						"offset": 0,
						"slot": "0",
						"type": "t_mapping(t_address,t_uint256)"
					},
					{
						"astId": 63,
						"contract": "Chainlink_test/FundMe.sol:FundMe",
						"label": "dataFeed",
						"offset": 0,
						"slot": "1",
						"type": "t_contract(AggregatorV3Interface)45"
					},
					{
						"astId": 72,
						"contract": "Chainlink_test/FundMe.sol:FundMe",
						"label": "owner",
						"offset": 0,
						"slot": "2",
						"type": "t_address"
					},
					{
						"astId": 74,
						"contract": "Chainlink_test/FundMe.sol:FundMe",
						"label": "deploymentTimestamp",
						"offset": 0,
						"slot": "3",
						"type": "t_uint256"
					},
					{
						"astId": 76,
						"contract": "Chainlink_test/FundMe.sol:FundMe",
						"label": "lockTime",
						"offset": 0,
						"slot": "4",
						"type": "t_uint256"
					},
					{
						"astId": 79,
						"contract": "Chainlink_test/FundMe.sol:FundMe",
						"label": "getFundSuccess",
						"offset": 0,
						"slot": "5",
						"type": "t_bool"
					},
					{
						"astId": 81,
						"contract": "Chainlink_test/FundMe.sol:FundMe",
						"label": "erc20Addr",
						"offset": 1,
						"slot": "5",
						"type": "t_address"
					}
				],
				"types": {
					"t_address": {
						"encoding": "inplace",
						"label": "address",
						"numberOfBytes": "20"
					},
					"t_bool": {
						"encoding": "inplace",
						"label": "bool",
						"numberOfBytes": "1"
					},
					"t_contract(AggregatorV3Interface)45": {
						"encoding": "inplace",
						"label": "contract AggregatorV3Interface",
						"numberOfBytes": "20"
					},
					"t_mapping(t_address,t_uint256)": {
						"encoding": "mapping",
						"key": "t_address",
						"label": "mapping(address => uint256)",
						"numberOfBytes": "32",
						"value": "t_uint256"
					},
					"t_uint256": {
						"encoding": "inplace",
						"label": "uint256",
						"numberOfBytes": "32"
					}
				}
			},
			"userdoc": {
				"kind": "user",
				"methods": {},
				"version": 1
			}
		}
	}
}